{
  "contractName": "Deposit",
  "abi": [
    {
      "inputs": [],
      "stateMutability": "nonpayable",
      "type": "constructor"
    },
    {
      "anonymous": false,
      "inputs": [
        {
          "indexed": true,
          "internalType": "address",
          "name": "sender",
          "type": "address"
        },
        {
          "indexed": false,
          "internalType": "uint256",
          "name": "amountA",
          "type": "uint256"
        },
        {
          "indexed": false,
          "internalType": "uint256",
          "name": "amountB",
          "type": "uint256"
        }
      ],
      "name": "Mint",
      "type": "event"
    },
    {
      "inputs": [],
      "name": "MINIMUM_LIQUIDITY",
      "outputs": [
        {
          "internalType": "uint256",
          "name": "",
          "type": "uint256"
        }
      ],
      "stateMutability": "view",
      "type": "function"
    },
    {
      "inputs": [],
      "name": "eth",
      "outputs": [
        {
          "internalType": "address",
          "name": "",
          "type": "address"
        }
      ],
      "stateMutability": "view",
      "type": "function"
    },
    {
      "inputs": [],
      "name": "factory",
      "outputs": [
        {
          "internalType": "address",
          "name": "",
          "type": "address"
        }
      ],
      "stateMutability": "view",
      "type": "function"
    },
    {
      "inputs": [],
      "name": "stToken",
      "outputs": [
        {
          "internalType": "contract SbToken",
          "name": "",
          "type": "address"
        }
      ],
      "stateMutability": "view",
      "type": "function"
    }
  ],
  "bytecode": "0x608060405234801561001057600080fd5b50336000806101000a81548173ffffffffffffffffffffffffffffffffffffffff021916908373ffffffffffffffffffffffffffffffffffffffff16021790555061027f806100606000396000f3fe608060405234801561001057600080fd5b506004361061004c5760003560e01c806323b6443e146100515780638c7c9e0c1461006f578063ba9a7a561461008d578063c45a0155146100ab575b600080fd5b6100596100c9565b60405161006691906101be565b60405180910390f35b6100776100ef565b60405161008491906101fa565b60405180910390f35b610095610115565b6040516100a2919061022e565b60405180910390f35b6100b361011b565b6040516100c091906101fa565b60405180910390f35b600160009054906101000a900473ffffffffffffffffffffffffffffffffffffffff1681565b600260009054906101000a900473ffffffffffffffffffffffffffffffffffffffff1681565b6103e881565b60008054906101000a900473ffffffffffffffffffffffffffffffffffffffff1681565b600073ffffffffffffffffffffffffffffffffffffffff82169050919050565b6000819050919050565b600061018461017f61017a8461013f565b61015f565b61013f565b9050919050565b600061019682610169565b9050919050565b60006101a88261018b565b9050919050565b6101b88161019d565b82525050565b60006020820190506101d360008301846101af565b92915050565b60006101e48261013f565b9050919050565b6101f4816101d9565b82525050565b600060208201905061020f60008301846101eb565b92915050565b6000819050919050565b61022881610215565b82525050565b6000602082019050610243600083018461021f565b9291505056fea2646970667358221220cbece6468cbc7edaa13b4778461f9c002aecec7a14f5f89ef283b985d27f0d0b64736f6c634300080d0033",
  "immutableReferences": {},
  "source": "//SPDX-License-Identifier: MIT\r\npragma solidity ^0.8.0;\r\n\r\nimport \"./SBtokenFactory.sol\";\r\nimport \"./SbToken.sol\";\r\n\r\ncontract Deposit{\r\n    \r\n    uint public constant MINIMUM_LIQUIDITY = 10**3;\r\n\r\n    address public factory;\r\n    SbToken public stToken;\r\n    address public eth;\r\n\r\n    event Mint(address indexed sender, uint amountA, uint amountB);\r\n\r\n    constructor(){\r\n        factory = msg.sender;\r\n    }\r\n\r\n    function mintFee(uint _reserveA, uint _reserveB) private returns (bool feeOn){\r\n        address feeTo = SBtokenFactory(factory).feeTo();\r\n        feeOn = feeTo != address(0);\r\n        \r\n    }\r\n\r\n}",
  "sourcePath": "C:\\Users\\HP\\OneDrive\\Desktop\\BlockChainAss\\blockchain\\contracts\\Deposit.sol",
  "compiler": {
    "name": "solc",
    "version": "0.8.13+commit.abaa5c0e.Emscripten.clang"
  },
  "schemaVersion": "3.4.5",
  "updatedAt": "2022-04-09T09:12:20.721Z",
  "devdoc": {
    "kind": "dev",
    "methods": {},
    "version": 1
  },
  "userdoc": {
    "kind": "user",
    "methods": {},
    "version": 1
  }
}