{
  "contractName": "LpToken",
  "abi": [
    {
      "inputs": [
        {
          "internalType": "address",
          "name": "",
          "type": "address"
        }
      ],
      "name": "data",
      "outputs": [
        {
          "internalType": "uint256",
          "name": "providedEth",
          "type": "uint256"
        },
        {
          "internalType": "uint256",
          "name": "providedSbt",
          "type": "uint256"
        },
        {
          "internalType": "uint256",
          "name": "reward",
          "type": "uint256"
        }
      ],
      "stateMutability": "view",
      "type": "function",
      "constant": true
    },
    {
      "inputs": [
        {
          "internalType": "address",
          "name": "_add",
          "type": "address"
        },
        {
          "internalType": "uint256",
          "name": "eth",
          "type": "uint256"
        },
        {
          "internalType": "uint256",
          "name": "sbt",
          "type": "uint256"
        }
      ],
      "name": "create",
      "outputs": [],
      "stateMutability": "nonpayable",
      "type": "function"
    },
    {
      "inputs": [
        {
          "internalType": "address",
          "name": "_add",
          "type": "address"
        }
      ],
      "name": "get",
      "outputs": [
        {
          "components": [
            {
              "internalType": "uint256",
              "name": "providedEth",
              "type": "uint256"
            },
            {
              "internalType": "uint256",
              "name": "providedSbt",
              "type": "uint256"
            },
            {
              "internalType": "uint256",
              "name": "reward",
              "type": "uint256"
            }
          ],
          "internalType": "struct LpToken.Lp",
          "name": "",
          "type": "tuple"
        }
      ],
      "stateMutability": "view",
      "type": "function",
      "constant": true
    },
    {
      "inputs": [
        {
          "internalType": "address",
          "name": "_add",
          "type": "address"
        },
        {
          "internalType": "uint256",
          "name": "eth",
          "type": "uint256"
        },
        {
          "internalType": "uint256",
          "name": "sbt",
          "type": "uint256"
        }
      ],
      "name": "update",
      "outputs": [],
      "stateMutability": "nonpayable",
      "type": "function"
    },
    {
      "inputs": [
        {
          "internalType": "address",
          "name": "_add",
          "type": "address"
        },
        {
          "internalType": "uint256",
          "name": "reward",
          "type": "uint256"
        }
      ],
      "name": "addReward",
      "outputs": [],
      "stateMutability": "nonpayable",
      "type": "function"
    },
    {
      "inputs": [
        {
          "internalType": "address",
          "name": "_add",
          "type": "address"
        }
      ],
      "name": "del",
      "outputs": [],
      "stateMutability": "nonpayable",
      "type": "function"
    }
  ],
  "bytecode": "0x608060405234801561001057600080fd5b506106ad806100206000396000f3fe608060405234801561001057600080fd5b50600436106100625760003560e01c80635165da30146100675780639feb8f5014610083578063b90d3d0c1461009f578063b9caebf4146100d1578063c2bc2efc146100ed578063d09b6d431461011d575b600080fd5b610081600480360381019061007c9190610480565b610139565b005b61009d600480360381019061009891906104d3565b6101b9565b005b6100b960048036038101906100b49190610513565b610215565b6040516100c89392919061054f565b60405180910390f35b6100eb60048036038101906100e69190610513565b61023f565b005b61010760048036038101906101029190610513565b61029b565b60405161011491906105d7565b60405180910390f35b61013760048036038101906101329190610480565b610311565b005b604051806060016040528083815260200182815260200160008152506000808573ffffffffffffffffffffffffffffffffffffffff1673ffffffffffffffffffffffffffffffffffffffff168152602001908152602001600020600082015181600001556020820151816001015560408201518160020155905050505050565b806000808473ffffffffffffffffffffffffffffffffffffffff1673ffffffffffffffffffffffffffffffffffffffff168152602001908152602001600020600201600082825461020a9190610621565b925050819055505050565b60006020528060005260406000206000915090508060000154908060010154908060020154905083565b6000808273ffffffffffffffffffffffffffffffffffffffff1673ffffffffffffffffffffffffffffffffffffffff16815260200190815260200160002060008082016000905560018201600090556002820160009055505050565b6102a36103c6565b6000808373ffffffffffffffffffffffffffffffffffffffff1673ffffffffffffffffffffffffffffffffffffffff16815260200190815260200160002060405180606001604052908160008201548152602001600182015481526020016002820154815250509050919050565b816000808573ffffffffffffffffffffffffffffffffffffffff1673ffffffffffffffffffffffffffffffffffffffff16815260200190815260200160002060000160008282546103629190610621565b92505081905550806000808573ffffffffffffffffffffffffffffffffffffffff1673ffffffffffffffffffffffffffffffffffffffff16815260200190815260200160002060010160008282546103ba9190610621565b92505081905550505050565b60405180606001604052806000815260200160008152602001600081525090565b600080fd5b600073ffffffffffffffffffffffffffffffffffffffff82169050919050565b6000610417826103ec565b9050919050565b6104278161040c565b811461043257600080fd5b50565b6000813590506104448161041e565b92915050565b6000819050919050565b61045d8161044a565b811461046857600080fd5b50565b60008135905061047a81610454565b92915050565b600080600060608486031215610499576104986103e7565b5b60006104a786828701610435565b93505060206104b88682870161046b565b92505060406104c98682870161046b565b9150509250925092565b600080604083850312156104ea576104e96103e7565b5b60006104f885828601610435565b92505060206105098582860161046b565b9150509250929050565b600060208284031215610529576105286103e7565b5b600061053784828501610435565b91505092915050565b6105498161044a565b82525050565b60006060820190506105646000830186610540565b6105716020830185610540565b61057e6040830184610540565b949350505050565b61058f8161044a565b82525050565b6060820160008201516105ab6000850182610586565b5060208201516105be6020850182610586565b5060408201516105d16040850182610586565b50505050565b60006060820190506105ec6000830184610595565b92915050565b7f4e487b7100000000000000000000000000000000000000000000000000000000600052601160045260246000fd5b600061062c8261044a565b91506106378361044a565b9250827fffffffffffffffffffffffffffffffffffffffffffffffffffffffffffffffff0382111561066c5761066b6105f2565b5b82820190509291505056fea26469706673582212208d46c11649012d61babdc19660dab507eb7a852e133686a390a279796544061364736f6c634300080d0033",
  "immutableReferences": {},
  "source": "// SPDX-License-Identifier: MIT\r\npragma solidity >=0.5.0 <0.9.0;\r\n\r\ncontract LpToken {\r\n    struct Lp {\r\n        uint providedEth;\r\n        uint providedSbt;\r\n        uint reward;\r\n    }\r\n\r\n    mapping(address => Lp) public data;\r\n\r\n    function create(address _add, uint eth, uint sbt) public {\r\n        data[_add] = Lp(eth, sbt, 0);\r\n    }\r\n\r\n    function get(address _add)public view returns (Lp memory){\r\n        return data[_add];\r\n    }\r\n\r\n    function update(address _add, uint eth, uint sbt) public {\r\n        data[_add].providedEth += eth;\r\n        data[_add].providedSbt += sbt;\r\n\r\n    }\r\n\r\n    function addReward(address _add, uint reward)public {\r\n        data[_add].reward += reward;\r\n    }\r\n\r\n    function del(address _add)public {\r\n        delete data[_add];\r\n    }\r\n}\r\n",
  "sourcePath": "C:\\Users\\User\\Documents\\GitHub\\blockchain\\contracts\\LpToken.sol",
  "compiler": {
    "name": "solc",
    "version": "0.8.13+commit.abaa5c0e.Emscripten.clang"
  },
  "schemaVersion": "3.4.6",
  "updatedAt": "2022-04-09T04:16:53.215Z",
  "networkType": "ethereum",
  "devdoc": {
    "kind": "dev",
    "methods": {},
    "version": 1
  },
  "userdoc": {
    "kind": "user",
    "methods": {},
    "version": 1
  }
}