{
  "contractName": "LpToken",
  "abi": [
    {
      "inputs": [
        {
          "internalType": "address",
          "name": "",
          "type": "address"
        }
      ],
      "name": "data",
      "outputs": [
        {
          "internalType": "uint256",
          "name": "providedEth",
          "type": "uint256"
        },
        {
          "internalType": "uint256",
          "name": "providedSbt",
          "type": "uint256"
        },
        {
          "internalType": "uint256",
          "name": "reward",
          "type": "uint256"
        }
      ],
      "stateMutability": "view",
      "type": "function",
      "constant": true
    },
    {
      "inputs": [
        {
          "internalType": "address",
          "name": "_add",
          "type": "address"
        },
        {
          "internalType": "uint256",
          "name": "eth",
          "type": "uint256"
        },
        {
          "internalType": "uint256",
          "name": "sbt",
          "type": "uint256"
        }
      ],
      "name": "create",
      "outputs": [],
      "stateMutability": "nonpayable",
      "type": "function"
    },
    {
      "inputs": [
        {
          "internalType": "address",
          "name": "_add",
          "type": "address"
        }
      ],
      "name": "get",
      "outputs": [
        {
          "components": [
            {
              "internalType": "uint256",
              "name": "providedEth",
              "type": "uint256"
            },
            {
              "internalType": "uint256",
              "name": "providedSbt",
              "type": "uint256"
            },
            {
              "internalType": "uint256",
              "name": "reward",
              "type": "uint256"
            }
          ],
          "internalType": "struct LpToken.Lp",
          "name": "",
          "type": "tuple"
        }
      ],
      "stateMutability": "view",
      "type": "function",
      "constant": true
    },
    {
      "inputs": [
        {
          "internalType": "address",
          "name": "_add",
          "type": "address"
        },
        {
          "internalType": "uint256",
          "name": "eth",
          "type": "uint256"
        },
        {
          "internalType": "uint256",
          "name": "sbt",
          "type": "uint256"
        }
      ],
      "name": "update",
      "outputs": [],
      "stateMutability": "nonpayable",
      "type": "function"
    },
    {
      "inputs": [
        {
          "internalType": "address",
          "name": "_add",
          "type": "address"
        },
        {
          "internalType": "uint256",
          "name": "eth",
          "type": "uint256"
        },
        {
          "internalType": "uint256",
          "name": "sbt",
          "type": "uint256"
        }
      ],
      "name": "minus",
      "outputs": [],
      "stateMutability": "nonpayable",
      "type": "function"
    },
    {
      "inputs": [
        {
          "internalType": "address",
          "name": "_add",
          "type": "address"
        },
        {
          "internalType": "uint256",
          "name": "reward",
          "type": "uint256"
        }
      ],
      "name": "addReward",
      "outputs": [],
      "stateMutability": "nonpayable",
      "type": "function"
    },
    {
      "inputs": [
        {
          "internalType": "address",
          "name": "_add",
          "type": "address"
        }
      ],
      "name": "del",
      "outputs": [],
      "stateMutability": "nonpayable",
      "type": "function"
    }
  ],
  "bytecode": "0x608060405234801561001057600080fd5b506107cd806100206000396000f3fe608060405234801561001057600080fd5b506004361061007d5760003560e01c8063b90d3d0c1161005b578063b90d3d0c146100d6578063b9caebf414610108578063c2bc2efc14610124578063d09b6d43146101545761007d565b806347ec5eb2146100825780635165da301461009e5780639feb8f50146100ba575b600080fd5b61009c6004803603810190610097919061056c565b610170565b005b6100b860048036038101906100b3919061056c565b610225565b005b6100d460048036038101906100cf91906105bf565b6102a5565b005b6100f060048036038101906100eb91906105ff565b610301565b6040516100ff9392919061063b565b60405180910390f35b610122600480360381019061011d91906105ff565b61032b565b005b61013e600480360381019061013991906105ff565b610387565b60405161014b91906106c3565b60405180910390f35b61016e6004803603810190610169919061056c565b6103fd565b005b816000808573ffffffffffffffffffffffffffffffffffffffff1673ffffffffffffffffffffffffffffffffffffffff16815260200190815260200160002060000160008282546101c1919061070d565b92505081905550806000808573ffffffffffffffffffffffffffffffffffffffff1673ffffffffffffffffffffffffffffffffffffffff1681526020019081526020016000206001016000828254610219919061070d565b92505081905550505050565b604051806060016040528083815260200182815260200160008152506000808573ffffffffffffffffffffffffffffffffffffffff1673ffffffffffffffffffffffffffffffffffffffff168152602001908152602001600020600082015181600001556020820151816001015560408201518160020155905050505050565b806000808473ffffffffffffffffffffffffffffffffffffffff1673ffffffffffffffffffffffffffffffffffffffff16815260200190815260200160002060020160008282546102f69190610741565b925050819055505050565b60006020528060005260406000206000915090508060000154908060010154908060020154905083565b6000808273ffffffffffffffffffffffffffffffffffffffff1673ffffffffffffffffffffffffffffffffffffffff16815260200190815260200160002060008082016000905560018201600090556002820160009055505050565b61038f6104b2565b6000808373ffffffffffffffffffffffffffffffffffffffff1673ffffffffffffffffffffffffffffffffffffffff16815260200190815260200160002060405180606001604052908160008201548152602001600182015481526020016002820154815250509050919050565b816000808573ffffffffffffffffffffffffffffffffffffffff1673ffffffffffffffffffffffffffffffffffffffff168152602001908152602001600020600001600082825461044e9190610741565b92505081905550806000808573ffffffffffffffffffffffffffffffffffffffff1673ffffffffffffffffffffffffffffffffffffffff16815260200190815260200160002060010160008282546104a69190610741565b92505081905550505050565b60405180606001604052806000815260200160008152602001600081525090565b600080fd5b600073ffffffffffffffffffffffffffffffffffffffff82169050919050565b6000610503826104d8565b9050919050565b610513816104f8565b811461051e57600080fd5b50565b6000813590506105308161050a565b92915050565b6000819050919050565b61054981610536565b811461055457600080fd5b50565b60008135905061056681610540565b92915050565b600080600060608486031215610585576105846104d3565b5b600061059386828701610521565b93505060206105a486828701610557565b92505060406105b586828701610557565b9150509250925092565b600080604083850312156105d6576105d56104d3565b5b60006105e485828601610521565b92505060206105f585828601610557565b9150509250929050565b600060208284031215610615576106146104d3565b5b600061062384828501610521565b91505092915050565b61063581610536565b82525050565b6000606082019050610650600083018661062c565b61065d602083018561062c565b61066a604083018461062c565b949350505050565b61067b81610536565b82525050565b6060820160008201516106976000850182610672565b5060208201516106aa6020850182610672565b5060408201516106bd6040850182610672565b50505050565b60006060820190506106d86000830184610681565b92915050565b7f4e487b7100000000000000000000000000000000000000000000000000000000600052601160045260246000fd5b600061071882610536565b915061072383610536565b925082821015610736576107356106de565b5b828203905092915050565b600061074c82610536565b915061075783610536565b9250827fffffffffffffffffffffffffffffffffffffffffffffffffffffffffffffffff0382111561078c5761078b6106de565b5b82820190509291505056fea264697066735822122055b8243a4f3ce66eee4cb0ce8fc655a0b9665b81622e02a5e7770aa4e685804b64736f6c634300080d0033",
  "immutableReferences": {},
  "source": "// SPDX-License-Identifier: MIT\r\npragma solidity >=0.5.0 <0.9.0;\r\n\r\ncontract LpToken {\r\n    struct Lp {\r\n        uint providedEth;\r\n        uint providedSbt;\r\n        uint reward;\r\n    }\r\n\r\n    mapping(address => Lp) public data;\r\n\r\n    function create(address _add, uint eth, uint sbt) public {\r\n        data[_add] = Lp(eth, sbt, 0);\r\n    }\r\n\r\n    function get(address _add)public view returns (Lp memory){\r\n        return data[_add];\r\n    }\r\n\r\n    function update(address _add, uint eth, uint sbt) public {\r\n        data[_add].providedEth += eth;\r\n        data[_add].providedSbt += sbt;\r\n\r\n    }\r\n\r\n    function minus(address _add, uint eth, uint sbt) public {\r\n        data[_add].providedEth -= eth;\r\n        data[_add].providedSbt -= sbt;\r\n\r\n    }\r\n\r\n    function addReward(address _add, uint reward)public {\r\n        data[_add].reward += reward;\r\n    }\r\n\r\n    function del(address _add)public {\r\n        delete data[_add];\r\n    }\r\n}\r\n",
  "sourcePath": "C:\\Users\\User\\Documents\\GitHub\\blockchain\\contracts\\LpToken.sol",
  "compiler": {
    "name": "solc",
    "version": "0.8.13+commit.abaa5c0e.Emscripten.clang"
  },
  "schemaVersion": "3.4.5",
  "updatedAt": "2022-04-10T09:35:43.941Z",
  "networkType": "ethereum",
  "devdoc": {
    "kind": "dev",
    "methods": {},
    "version": 1
  },
  "userdoc": {
    "kind": "user",
    "methods": {},
    "version": 1
  }
}