{
  "contractName": "LpToken",
  "abi": [
    {
      "inputs": [
        {
          "internalType": "address",
          "name": "",
          "type": "address"
        }
      ],
      "name": "data",
      "outputs": [
        {
          "internalType": "uint256",
          "name": "providedEth",
          "type": "uint256"
        },
        {
          "internalType": "uint256",
          "name": "providedSbt",
          "type": "uint256"
        },
        {
          "internalType": "uint256",
          "name": "reward",
          "type": "uint256"
        }
      ],
      "stateMutability": "view",
      "type": "function",
      "constant": true
    }
  ],
  "bytecode": "0x608060405234801561001057600080fd5b506101a2806100206000396000f3fe608060405234801561001057600080fd5b506004361061002b5760003560e01c8063b90d3d0c14610030575b600080fd5b61004a600480360381019061004591906100ef565b610062565b60405161005993929190610135565b60405180910390f35b60006020528060005260406000206000915090508060000154908060010154908060020154905083565b600080fd5b600073ffffffffffffffffffffffffffffffffffffffff82169050919050565b60006100bc82610091565b9050919050565b6100cc816100b1565b81146100d757600080fd5b50565b6000813590506100e9816100c3565b92915050565b6000602082840312156101055761010461008c565b5b6000610113848285016100da565b91505092915050565b6000819050919050565b61012f8161011c565b82525050565b600060608201905061014a6000830186610126565b6101576020830185610126565b6101646040830184610126565b94935050505056fea2646970667358221220f05ab35bddd6e897e470f828de2a38a8788c92e7472db99fb002be12d4994e1664736f6c634300080d0033",
  "immutableReferences": {},
  "source": "// SPDX-License-Identifier: MIT\r\npragma solidity >=0.5.0 <0.9.0;\r\n\r\n\r\n\r\ncontract LpToken {\r\n    \r\n\r\n    struct Lp{\r\n        uint providedEth;\r\n        uint providedSbt;\r\n        uint reward;\r\n    }\r\n\r\n    mapping(address => Lp) public data;\r\n    \r\n    \r\n}",
  "sourcePath": "C:\\Users\\HP\\OneDrive\\Desktop\\BlockchainAss\\blockchain\\contracts\\LpToken.sol",
  "compiler": {
    "name": "solc",
    "version": "0.8.13+commit.abaa5c0e.Emscripten.clang"
  },
  "schemaVersion": "3.4.5",
  "updatedAt": "2022-03-21T09:28:35.968Z",
  "networkType": "ethereum",
  "devdoc": {
    "kind": "dev",
    "methods": {},
    "version": 1
  },
  "userdoc": {
    "kind": "user",
    "methods": {},
    "version": 1
  }
}