{
  "contractName": "LpToken",
  "abi": [
    {
      "inputs": [
        {
          "internalType": "address",
          "name": "",
          "type": "address"
        }
      ],
      "name": "data",
      "outputs": [
        {
          "internalType": "uint256",
          "name": "",
          "type": "uint256"
        }
      ],
      "stateMutability": "view",
      "type": "function",
      "constant": true
    },
    {
      "inputs": [],
      "name": "totalSupply",
      "outputs": [
        {
          "internalType": "uint256",
          "name": "",
          "type": "uint256"
        }
      ],
      "stateMutability": "view",
      "type": "function",
      "constant": true
    },
    {
      "inputs": [
        {
          "internalType": "uint256",
          "name": "sbtProvided",
          "type": "uint256"
        },
        {
          "internalType": "uint256",
          "name": "totalSbt",
          "type": "uint256"
        }
      ],
      "name": "calcLp",
      "outputs": [
        {
          "internalType": "uint256",
          "name": "",
          "type": "uint256"
        }
      ],
      "stateMutability": "view",
      "type": "function",
      "constant": true
    },
    {
      "inputs": [
        {
          "internalType": "uint256",
          "name": "supply",
          "type": "uint256"
        }
      ],
      "name": "addSupply",
      "outputs": [],
      "stateMutability": "nonpayable",
      "type": "function"
    },
    {
      "inputs": [
        {
          "internalType": "address",
          "name": "_add",
          "type": "address"
        },
        {
          "internalType": "uint256",
          "name": "sbtProvided",
          "type": "uint256"
        },
        {
          "internalType": "uint256",
          "name": "totalSbt",
          "type": "uint256"
        }
      ],
      "name": "create",
      "outputs": [],
      "stateMutability": "nonpayable",
      "type": "function"
    },
    {
      "inputs": [
        {
          "internalType": "address",
          "name": "_add",
          "type": "address"
        }
      ],
      "name": "get",
      "outputs": [
        {
          "internalType": "uint256",
          "name": "",
          "type": "uint256"
        }
      ],
      "stateMutability": "view",
      "type": "function",
      "constant": true
    },
    {
      "inputs": [
        {
          "internalType": "address",
          "name": "_add",
          "type": "address"
        },
        {
          "internalType": "uint256",
          "name": "sbtProvided",
          "type": "uint256"
        },
        {
          "internalType": "uint256",
          "name": "totalSbt",
          "type": "uint256"
        }
      ],
      "name": "update",
      "outputs": [],
      "stateMutability": "nonpayable",
      "type": "function"
    },
    {
      "inputs": [
        {
          "internalType": "address",
          "name": "_add",
          "type": "address"
        },
        {
          "internalType": "uint256",
          "name": "lpToken",
          "type": "uint256"
        }
      ],
      "name": "minus",
      "outputs": [],
      "stateMutability": "nonpayable",
      "type": "function"
    }
  ],
  "bytecode": "0x608060405234801561001057600080fd5b50610776806100206000396000f3fe608060405234801561001057600080fd5b50600436106100885760003560e01c80639d07747e1161005b5780639d07747e146100ff578063b90d3d0c1461012f578063c2bc2efc1461015f578063d09b6d431461018f57610088565b806318160ddd1461008d57806340753a76146100ab5780634acca733146100c75780635165da30146100e3575b600080fd5b6100956101ab565b6040516100a291906103f6565b60405180910390f35b6100c560048036038101906100c09190610442565b6101b1565b005b6100e160048036038101906100dc91906104cd565b6101c3565b005b6100fd60048036038101906100f8919061050d565b61021d565b005b61011960048036038101906101149190610560565b610275565b60405161012691906103f6565b60405180910390f35b610149600480360381019061014491906105a0565b610298565b60405161015691906103f6565b60405180910390f35b610179600480360381019061017491906105a0565b6102b0565b60405161018691906103f6565b60405180910390f35b6101a960048036038101906101a4919061050d565b6102f9565b005b60005481565b6101ba81610363565b60008190555050565b80600160008473ffffffffffffffffffffffffffffffffffffffff1673ffffffffffffffffffffffffffffffffffffffff168152602001908152602001600020600082825461021291906105fc565b925050819055505050565b60006102298383610275565b905080600160008673ffffffffffffffffffffffffffffffffffffffff1673ffffffffffffffffffffffffffffffffffffffff1681526020019081526020016000208190555050505050565b600081836000546102869190610630565b61029091906106b9565b905092915050565b60016020528060005260406000206000915090505481565b6000600160008373ffffffffffffffffffffffffffffffffffffffff1673ffffffffffffffffffffffffffffffffffffffff168152602001908152602001600020549050919050565b60006103058383610275565b905080600160008673ffffffffffffffffffffffffffffffffffffffff1673ffffffffffffffffffffffffffffffffffffffff168152602001908152602001600020600082825461035691906106ea565b9250508190555050505050565b600060038211156103ca578190506000600160028461038291906106b9565b61038c91906106ea565b90505b818110156103c45780915060028182856103a991906106b9565b6103b391906106ea565b6103bd91906106b9565b905061038f565b506103d8565b600082146103d757600190505b5b919050565b6000819050919050565b6103f0816103dd565b82525050565b600060208201905061040b60008301846103e7565b92915050565b600080fd5b61041f816103dd565b811461042a57600080fd5b50565b60008135905061043c81610416565b92915050565b60006020828403121561045857610457610411565b5b60006104668482850161042d565b91505092915050565b600073ffffffffffffffffffffffffffffffffffffffff82169050919050565b600061049a8261046f565b9050919050565b6104aa8161048f565b81146104b557600080fd5b50565b6000813590506104c7816104a1565b92915050565b600080604083850312156104e4576104e3610411565b5b60006104f2858286016104b8565b92505060206105038582860161042d565b9150509250929050565b60008060006060848603121561052657610525610411565b5b6000610534868287016104b8565b93505060206105458682870161042d565b92505060406105568682870161042d565b9150509250925092565b6000806040838503121561057757610576610411565b5b60006105858582860161042d565b92505060206105968582860161042d565b9150509250929050565b6000602082840312156105b6576105b5610411565b5b60006105c4848285016104b8565b91505092915050565b7f4e487b7100000000000000000000000000000000000000000000000000000000600052601160045260246000fd5b6000610607826103dd565b9150610612836103dd565b925082821015610625576106246105cd565b5b828203905092915050565b600061063b826103dd565b9150610646836103dd565b9250817fffffffffffffffffffffffffffffffffffffffffffffffffffffffffffffffff048311821515161561067f5761067e6105cd565b5b828202905092915050565b7f4e487b7100000000000000000000000000000000000000000000000000000000600052601260045260246000fd5b60006106c4826103dd565b91506106cf836103dd565b9250826106df576106de61068a565b5b828204905092915050565b60006106f5826103dd565b9150610700836103dd565b9250827fffffffffffffffffffffffffffffffffffffffffffffffffffffffffffffffff03821115610735576107346105cd565b5b82820190509291505056fea2646970667358221220651acd00b8a47bb57fe168e9de91495ecb0f8ccda256ddb77deb615ac5f98b2f64736f6c634300080d0033",
  "immutableReferences": {},
  "source": "// SPDX-License-Identifier: MIT\r\npragma solidity >=0.5.0 <0.9.0;\r\n\r\ncontract LpToken {\r\n    uint public totalSupply;\r\n\r\n    mapping(address => uint) public data;\r\n    \r\n\r\n// babylonian method (https://en.wikipedia.org/wiki/Methods_of_computing_square_roots#Babylonian_method)\r\n    function sqrt(uint y) internal pure returns (uint z) {\r\n        if (y > 3) {\r\n            z = y;\r\n            uint x = y / 2 + 1;\r\n            while (x < z) {\r\n                z = x;\r\n                x = (y / x + x) / 2;\r\n            }\r\n        } else if (y != 0) {\r\n            z = 1;\r\n        }\r\n    }\r\n\r\n    function calcLp(uint sbtProvided, uint totalSbt) public view returns(uint){\r\n        return(totalSupply*sbtProvided)/totalSbt;      \r\n    }\r\n\r\n    function addSupply(uint supply)public{\r\n        totalSupply = sqrt(supply);\r\n    }\r\n\r\n    function create(address _add, uint sbtProvided, uint totalSbt) public{\r\n        uint lp = calcLp(sbtProvided, totalSbt);\r\n        data[_add] = lp;\r\n    }\r\n\r\n    function get(address _add)public view returns (uint){\r\n        return data[_add];\r\n    }\r\n\r\n    function update(address _add, uint sbtProvided, uint totalSbt) public {\r\n        uint lp = calcLp( sbtProvided, totalSbt);\r\n        data[_add] += lp;\r\n\r\n    }\r\n\r\n    function minus(address _add, uint lpToken) public {\r\n        data[_add] -= lpToken;\r\n\r\n    }\r\n\r\n    // function del(address _add)public {\r\n    //     bool found = false;\r\n    //     delete data[_add];\r\n\r\n    //     for(uint i=0 ;i < liqProviders.length; i++){\r\n    //         if(liqProviders[i] == _add){\r\n    //             for(uint j=i ;j < liqProviders.length; j++){\r\n                    \r\n    //                 if(j+1 == liqProviders.length){\r\n    //                     liqProviders.pop();\r\n    //                 }else{\r\n    //                     liqProviders[j] = liqProviders[j+1];\r\n    //                 }\r\n\r\n    //             }\r\n    //             found = true;\r\n    //         }\r\n\r\n    //         if(found){\r\n    //             break;\r\n    //         }\r\n            \r\n    //     }\r\n        \r\n    // }\r\n\r\n    \r\n}\r\n",
  "sourcePath": "C:\\Users\\mingh\\OneDrive\\Documents\\GitHub\\blockchain\\contracts\\LpToken.sol",
  "compiler": {
    "name": "solc",
    "version": "0.8.13+commit.abaa5c0e.Emscripten.clang"
  },
  "schemaVersion": "3.4.4",
  "updatedAt": "2022-04-10T17:00:07.826Z",
  "networkType": "ethereum",
  "devdoc": {
    "kind": "dev",
    "methods": {},
    "version": 1
  },
  "userdoc": {
    "kind": "user",
    "methods": {},
    "version": 1
  }
}