{
  "contractName": "pool",
  "abi": [
    {
      "inputs": [
        {
          "internalType": "contract SbToken",
          "name": "_sbToken",
          "type": "address"
        },
        {
          "internalType": "contract LpToken",
          "name": "_lpToken",
          "type": "address"
        }
      ],
      "stateMutability": "nonpayable",
      "type": "constructor"
    },
    {
      "anonymous": false,
      "inputs": [
        {
          "indexed": false,
          "internalType": "address",
          "name": "account",
          "type": "address"
        },
        {
          "indexed": false,
          "internalType": "address",
          "name": "token",
          "type": "address"
        },
        {
          "indexed": false,
          "internalType": "uint256",
          "name": "amountSbt",
          "type": "uint256"
        },
        {
          "indexed": false,
          "internalType": "uint256",
          "name": "amountEth",
          "type": "uint256"
        }
      ],
      "name": "PoolInitialised",
      "type": "event"
    },
    {
      "stateMutability": "payable",
      "type": "fallback",
      "payable": true
    },
    {
      "inputs": [],
      "name": "ethRatio",
      "outputs": [
        {
          "internalType": "uint256",
          "name": "",
          "type": "uint256"
        }
      ],
      "stateMutability": "view",
      "type": "function",
      "constant": true
    },
    {
      "inputs": [],
      "name": "isRunning",
      "outputs": [
        {
          "internalType": "bool",
          "name": "",
          "type": "bool"
        }
      ],
      "stateMutability": "view",
      "type": "function",
      "constant": true
    },
    {
      "inputs": [],
      "name": "lp",
      "outputs": [
        {
          "internalType": "contract LpToken",
          "name": "",
          "type": "address"
        }
      ],
      "stateMutability": "view",
      "type": "function",
      "constant": true
    },
    {
      "inputs": [],
      "name": "owner",
      "outputs": [
        {
          "internalType": "address",
          "name": "",
          "type": "address"
        }
      ],
      "stateMutability": "view",
      "type": "function",
      "constant": true
    },
    {
      "inputs": [],
      "name": "sbt",
      "outputs": [
        {
          "internalType": "contract SbToken",
          "name": "",
          "type": "address"
        }
      ],
      "stateMutability": "view",
      "type": "function",
      "constant": true
    },
    {
      "inputs": [],
      "name": "sbtBalance",
      "outputs": [
        {
          "internalType": "uint256",
          "name": "",
          "type": "uint256"
        }
      ],
      "stateMutability": "view",
      "type": "function",
      "constant": true
    },
    {
      "inputs": [],
      "name": "sbtGet",
      "outputs": [
        {
          "internalType": "uint256",
          "name": "",
          "type": "uint256"
        }
      ],
      "stateMutability": "view",
      "type": "function",
      "constant": true
    },
    {
      "inputs": [],
      "name": "sbtRatio",
      "outputs": [
        {
          "internalType": "uint256",
          "name": "",
          "type": "uint256"
        }
      ],
      "stateMutability": "view",
      "type": "function",
      "constant": true
    },
    {
      "stateMutability": "payable",
      "type": "receive",
      "payable": true
    },
    {
      "inputs": [
        {
          "internalType": "uint256",
          "name": "sbtSupply",
          "type": "uint256"
        }
      ],
      "name": "settingUp",
      "outputs": [],
      "stateMutability": "payable",
      "type": "function",
      "payable": true
    },
    {
      "inputs": [],
      "name": "getBalanceEth",
      "outputs": [
        {
          "internalType": "uint256",
          "name": "",
          "type": "uint256"
        }
      ],
      "stateMutability": "view",
      "type": "function",
      "constant": true
    },
    {
      "inputs": [
        {
          "internalType": "uint256",
          "name": "percent",
          "type": "uint256"
        },
        {
          "internalType": "uint256",
          "name": "providedSBT",
          "type": "uint256"
        },
        {
          "internalType": "uint256",
          "name": "providedETH",
          "type": "uint256"
        },
        {
          "internalType": "uint256",
          "name": "reward",
          "type": "uint256"
        }
      ],
      "name": "withdrawLiquity",
      "outputs": [],
      "stateMutability": "payable",
      "type": "function",
      "payable": true
    },
    {
      "inputs": [],
      "name": "isPoolRunning",
      "outputs": [
        {
          "internalType": "bool",
          "name": "",
          "type": "bool"
        }
      ],
      "stateMutability": "view",
      "type": "function",
      "constant": true
    },
    {
      "inputs": [
        {
          "internalType": "uint256",
          "name": "_amountTokenEth",
          "type": "uint256"
        }
      ],
      "name": "getSwapTokenSbEstimate",
      "outputs": [
        {
          "internalType": "uint256",
          "name": "",
          "type": "uint256"
        },
        {
          "internalType": "uint256",
          "name": "",
          "type": "uint256"
        }
      ],
      "stateMutability": "nonpayable",
      "type": "function"
    },
    {
      "inputs": [
        {
          "internalType": "uint256",
          "name": "_amountTokenSb",
          "type": "uint256"
        }
      ],
      "name": "getSwapTokenEthEstimate",
      "outputs": [
        {
          "internalType": "uint256",
          "name": "",
          "type": "uint256"
        }
      ],
      "stateMutability": "nonpayable",
      "type": "function"
    },
    {
      "inputs": [
        {
          "internalType": "uint256",
          "name": "_amountSbt",
          "type": "uint256"
        }
      ],
      "name": "getEthNeed",
      "outputs": [
        {
          "internalType": "uint256",
          "name": "",
          "type": "uint256"
        },
        {
          "internalType": "uint256",
          "name": "",
          "type": "uint256"
        }
      ],
      "stateMutability": "nonpayable",
      "type": "function"
    },
    {
      "inputs": [
        {
          "internalType": "uint256",
          "name": "_amountEth",
          "type": "uint256"
        }
      ],
      "name": "getSbtNeed",
      "outputs": [
        {
          "internalType": "uint256",
          "name": "",
          "type": "uint256"
        }
      ],
      "stateMutability": "nonpayable",
      "type": "function"
    },
    {
      "inputs": [
        {
          "internalType": "uint256",
          "name": "amountSbt",
          "type": "uint256"
        },
        {
          "internalType": "uint256",
          "name": "getAmount",
          "type": "uint256"
        }
      ],
      "name": "tokenEthSwapTokenSb",
      "outputs": [],
      "stateMutability": "payable",
      "type": "function",
      "payable": true
    },
    {
      "inputs": [
        {
          "internalType": "uint256",
          "name": "amountSbt",
          "type": "uint256"
        },
        {
          "internalType": "uint256",
          "name": "amountEth",
          "type": "uint256"
        }
      ],
      "name": "tokenSbSwapTokenEth",
      "outputs": [],
      "stateMutability": "nonpayable",
      "type": "function"
    },
    {
      "inputs": [
        {
          "internalType": "uint256",
          "name": "ethAmount",
          "type": "uint256"
        }
      ],
      "name": "calSBT",
      "outputs": [
        {
          "internalType": "uint256",
          "name": "returnSBT",
          "type": "uint256"
        }
      ],
      "stateMutability": "nonpayable",
      "type": "function"
    },
    {
      "inputs": [
        {
          "internalType": "uint256",
          "name": "sbtAmount",
          "type": "uint256"
        }
      ],
      "name": "calETH",
      "outputs": [
        {
          "internalType": "uint256",
          "name": "returnETH",
          "type": "uint256"
        }
      ],
      "stateMutability": "nonpayable",
      "type": "function"
    },
    {
      "inputs": [
        {
          "internalType": "uint256",
          "name": "sbtDeposit",
          "type": "uint256"
        }
      ],
      "name": "deposit",
      "outputs": [],
      "stateMutability": "payable",
      "type": "function",
      "payable": true
    }
  ],
  "bytecode": "0x60c060405260036080908152506103e860a090815250600060035560006004556000600560006101000a81548160ff02191690831515021790555060006009556001600a60006101000a81548160ff0219169083151502179055503480156200006757600080fd5b5060405162001bc338038062001bc383398181016040528101906200008d91906200021a565b816000806101000a81548173ffffffffffffffffffffffffffffffffffffffff021916908373ffffffffffffffffffffffffffffffffffffffff16021790555080600160006101000a81548173ffffffffffffffffffffffffffffffffffffffff021916908373ffffffffffffffffffffffffffffffffffffffff16021790555033600260006101000a81548173ffffffffffffffffffffffffffffffffffffffff021916908373ffffffffffffffffffffffffffffffffffffffff160217905550505062000261565b600080fd5b600073ffffffffffffffffffffffffffffffffffffffff82169050919050565b600062000189826200015c565b9050919050565b60006200019d826200017c565b9050919050565b620001af8162000190565b8114620001bb57600080fd5b50565b600081519050620001cf81620001a4565b92915050565b6000620001e2826200017c565b9050919050565b620001f481620001d5565b81146200020057600080fd5b50565b6000815190506200021481620001e9565b92915050565b6000806040838503121562000234576200023362000157565b5b60006200024485828601620001be565b9250506020620002578582860162000203565b9150509250929050565b60805160a0516119276200029c60003960008181611197015281816111f701526112390152600081816111b8015261121801526119276000f3fe60806040526004361061012e5760003560e01c8063a6c5c67c116100ab578063bc5894ba1161006f578063bc5894ba146103ea578063c946bb2a14610415578063d433695914610440578063d64157fb1461045c578063f183b1031461049a578063f98e12ff146104c557610135565b8063a6c5c67c14610310578063b1324f7b1461033b578063b29f5d3e14610366578063b6b55f25146103a3578063bb4632bc146103bf57610135565b8063776360bc116100f2578063776360bc1461022357806389177707146102605780638d776b1a1461029e5780638da5cb5b146102ba5780639caf34c4146102e557610135565b80630d51f34c146101375780632014e5d114610174578063313c06a01461019f57806338c33a3f146101ca578063590aa56c1461020757610135565b3661013557005b005b34801561014357600080fd5b5061015e600480360381019061015991906112b9565b6104ee565b60405161016b91906112f5565b60405180910390f35b34801561018057600080fd5b5061018961057a565b604051610196919061132b565b60405180910390f35b3480156101ab57600080fd5b506101b461058d565b6040516101c191906113c5565b60405180910390f35b3480156101d657600080fd5b506101f160048036038101906101ec91906112b9565b6105b3565b6040516101fe91906112f5565b60405180910390f35b610221600480360381019061021c91906113e0565b610621565b005b34801561022f57600080fd5b5061024a600480360381019061024591906112b9565b610764565b60405161025791906112f5565b60405180910390f35b34801561026c57600080fd5b50610287600480360381019061028291906112b9565b6107d2565b604051610295929190611420565b60405180910390f35b6102b860048036038101906102b391906112b9565b61085a565b005b3480156102c657600080fd5b506102cf610a53565b6040516102dc919061146a565b60405180910390f35b3480156102f157600080fd5b506102fa610a79565b60405161030791906112f5565b60405180910390f35b34801561031c57600080fd5b50610325610a98565b604051610332919061132b565b60405180910390f35b34801561034757600080fd5b50610350610aaf565b60405161035d91906114a6565b60405180910390f35b34801561037257600080fd5b5061038d600480360381019061038891906112b9565b610ad3565b60405161039a91906112f5565b60405180910390f35b6103bd60048036038101906103b891906112b9565b610b51565b005b3480156103cb57600080fd5b506103d4610c78565b6040516103e191906112f5565b60405180910390f35b3480156103f657600080fd5b506103ff610c7e565b60405161040c91906112f5565b60405180910390f35b34801561042157600080fd5b5061042a610c84565b60405161043791906112f5565b60405180910390f35b61045a600480360381019061045591906114c1565b610c8a565b005b34801561046857600080fd5b50610483600480360381019061047e91906112b9565b610ed1565b604051610491929190611420565b60405180910390f35b3480156104a657600080fd5b506104af610f5e565b6040516104bc91906112f5565b60405180910390f35b3480156104d157600080fd5b506104ec60048036038101906104e791906113e0565b610f64565b005b6000600560009054906101000a900460ff1661050957600080fd5b6000823073ffffffffffffffffffffffffffffffffffffffff163161052e9190611557565b9050610538611135565b60006003548260065461054b91906115ba565b6105559190611557565b9050600061056282611193565b8261056d91906115eb565b9050809350505050919050565b600560009054906101000a900460ff1681565b600160009054906101000a900473ffffffffffffffffffffffffffffffffffffffff1681565b6000600560009054906101000a900460ff166105ce57600080fd5b600354670de0b6b3a76400003073ffffffffffffffffffffffffffffffffffffffff16316105fc9190611641565b61060691906115ba565b600c81905550600c548261061a9190611641565b9050919050565b6000341161062e57600080fd5b3373ffffffffffffffffffffffffffffffffffffffff163134111561065257600080fd5b61065b82611193565b6004819055503073ffffffffffffffffffffffffffffffffffffffff166108fc349081150290604051600060405180830381858888f193505050501580156106a7573d6000803e3d6000fd5b5060008054906101000a900473ffffffffffffffffffffffffffffffffffffffff1673ffffffffffffffffffffffffffffffffffffffff1663a9059cbb33836040518363ffffffff1660e01b815260040161070392919061169b565b6020604051808303816000875af1158015610722573d6000803e3d6000fd5b505050506040513d601f19601f8201168201806040525081019061074691906116f0565b5081600360008282546107599190611557565b925050819055505050565b6000600560009054906101000a900460ff1661077f57600080fd5b3073ffffffffffffffffffffffffffffffffffffffff1631670de0b6b3a76400006003546107ad9190611641565b6107b791906115ba565b600b81905550600b54826107cb9190611641565b9050919050565b600080600560009054906101000a900460ff166107ee57600080fd5b6000836003546107fe9190611557565b9050610808611135565b60003073ffffffffffffffffffffffffffffffffffffffff16318260065461083091906115ba565b61083a9190611557565b9050610845856111f3565b60098190555080600954935093505050915091565b600260009054906101000a900473ffffffffffffffffffffffffffffffffffffffff1673ffffffffffffffffffffffffffffffffffffffff163373ffffffffffffffffffffffffffffffffffffffff16146108ea576040517f08c379a00000000000000000000000000000000000000000000000000000000081526004016108e1906117a0565b60405180910390fd5b60008054906101000a900473ffffffffffffffffffffffffffffffffffffffff1673ffffffffffffffffffffffffffffffffffffffff166323b872dd3330846040518463ffffffff1660e01b8152600401610947939291906117e1565b6020604051808303816000875af1158015610966573d6000803e3d6000fd5b505050506040513d601f19601f8201168201806040525081019061098a91906116f0565b50806003600082825461099d91906115eb565b925050819055506001600560006101000a81548160ff021916908315150217905550600160009054906101000a900473ffffffffffffffffffffffffffffffffffffffff1673ffffffffffffffffffffffffffffffffffffffff16635165da303334846040518463ffffffff1660e01b8152600401610a1e93929190611818565b600060405180830381600087803b158015610a3857600080fd5b505af1158015610a4c573d6000803e3d6000fd5b5050505050565b600260009054906101000a900473ffffffffffffffffffffffffffffffffffffffff1681565b60003073ffffffffffffffffffffffffffffffffffffffff1631905090565b6000600560009054906101000a900460ff16905090565b60008054906101000a900473ffffffffffffffffffffffffffffffffffffffff1681565b6000600560009054906101000a900460ff16610aee57600080fd5b6000610af9836111f3565b600354610b0691906115eb565b9050610b10611135565b80600654610b1e91906115ba565b3073ffffffffffffffffffffffffffffffffffffffff1631610b409190611557565b600881905550600854915050919050565b3073ffffffffffffffffffffffffffffffffffffffff166108fc349081150290604051600060405180830381858888f19350505050158015610b97573d6000803e3d6000fd5b5060008054906101000a900473ffffffffffffffffffffffffffffffffffffffff1673ffffffffffffffffffffffffffffffffffffffff166323b872dd3330846040518463ffffffff1660e01b8152600401610bf59392919061184f565b6020604051808303816000875af1158015610c14573d6000803e3d6000fd5b505050506040513d601f19601f82011682018060405250810190610c3891906116f0565b508060036000828254610c4b91906115eb565b925050819055506001600a60006101000a81548160ff021916908315150217905550610c75611135565b50565b60035481565b600c5481565b600b5481565b6000670de0b6b3a764000080600a84610ca39190611641565b600a8888610cb19190611641565b610cbb91906115ba565b610cc591906115eb565b610ccf9190611641565b610cd991906115ba565b905060008054906101000a900473ffffffffffffffffffffffffffffffffffffffff1673ffffffffffffffffffffffffffffffffffffffff1663a9059cbb33836040518363ffffffff1660e01b8152600401610d36929190611886565b6020604051808303816000875af1158015610d55573d6000803e3d6000fd5b505050506040513d601f19601f82011682018060405250810190610d7991906116f0565b508060036000828254610d8c9190611557565b925050819055506000670de0b6b3a7640000806103e88887610dae9190611641565b610db891906115ba565b610dc29190611641565b610dcc91906115ba565b90503373ffffffffffffffffffffffffffffffffffffffff166108fc829081150290604051600060405180830381858888f19350505050158015610e14573d6000803e3d6000fd5b506001600a60006101000a81548160ff021916908315150217905550610e38611135565b600160009054906101000a900473ffffffffffffffffffffffffffffffffffffffff1673ffffffffffffffffffffffffffffffffffffffff166347ec5eb23383856040518463ffffffff1660e01b8152600401610e9793929190611818565b600060405180830381600087803b158015610eb157600080fd5b505af1158015610ec5573d6000803e3d6000fd5b50505050505050505050565b600080600560009054906101000a900460ff16610eed57600080fd5b6000833073ffffffffffffffffffffffffffffffffffffffff1631610f1291906115eb565b9050610f1c611135565b80600654610f2a91906115ba565b600354610f379190611557565b600781905550610f486007546111f3565b6009819055506007546009549250925050915091565b60095481565b8160008111610f7257600080fd5b60008054906101000a900473ffffffffffffffffffffffffffffffffffffffff1673ffffffffffffffffffffffffffffffffffffffff166370a08231336040518263ffffffff1660e01b8152600401610fcb919061146a565b602060405180830381865afa158015610fe8573d6000803e3d6000fd5b505050506040513d601f19601f8201168201806040525081019061100c91906118c4565b81111561101857600080fd5b61102183611193565b60048190555060008054906101000a900473ffffffffffffffffffffffffffffffffffffffff1673ffffffffffffffffffffffffffffffffffffffff166323b872dd3330866040518463ffffffff1660e01b81526004016110849392919061184f565b6020604051808303816000875af11580156110a3573d6000803e3d6000fd5b505050506040513d601f19601f820116820180604052508101906110c791906116f0565b503373ffffffffffffffffffffffffffffffffffffffff166108fc839081150290604051600060405180830381858888f1935050505015801561110e573d6000803e3d6000fd5b50611118836111f3565b6003600082825461112991906115eb565b92505081905550505050565b600a60009054906101000a900460ff1615611191576003543073ffffffffffffffffffffffffffffffffffffffff163161116f9190611641565b6006819055506000600a60006101000a81548160ff0219169083151502179055505b565b60007f00000000000000000000000000000000000000000000000000000000000000007f0000000000000000000000000000000000000000000000000000000000000000836111e29190611641565b6111ec91906115ba565b9050919050565b60007f00000000000000000000000000000000000000000000000000000000000000007f00000000000000000000000000000000000000000000000000000000000000007f00000000000000000000000000000000000000000000000000000000000000006112629190611557565b8361126d9190611641565b61127791906115ba565b9050919050565b600080fd5b6000819050919050565b61129681611283565b81146112a157600080fd5b50565b6000813590506112b38161128d565b92915050565b6000602082840312156112cf576112ce61127e565b5b60006112dd848285016112a4565b91505092915050565b6112ef81611283565b82525050565b600060208201905061130a60008301846112e6565b92915050565b60008115159050919050565b61132581611310565b82525050565b6000602082019050611340600083018461131c565b92915050565b600073ffffffffffffffffffffffffffffffffffffffff82169050919050565b6000819050919050565b600061138b61138661138184611346565b611366565b611346565b9050919050565b600061139d82611370565b9050919050565b60006113af82611392565b9050919050565b6113bf816113a4565b82525050565b60006020820190506113da60008301846113b6565b92915050565b600080604083850312156113f7576113f661127e565b5b6000611405858286016112a4565b9250506020611416858286016112a4565b9150509250929050565b600060408201905061143560008301856112e6565b61144260208301846112e6565b9392505050565b600061145482611346565b9050919050565b61146481611449565b82525050565b600060208201905061147f600083018461145b565b92915050565b600061149082611392565b9050919050565b6114a081611485565b82525050565b60006020820190506114bb6000830184611497565b92915050565b600080600080608085870312156114db576114da61127e565b5b60006114e9878288016112a4565b94505060206114fa878288016112a4565b935050604061150b878288016112a4565b925050606061151c878288016112a4565b91505092959194509250565b7f4e487b7100000000000000000000000000000000000000000000000000000000600052601160045260246000fd5b600061156282611283565b915061156d83611283565b9250828210156115805761157f611528565b5b828203905092915050565b7f4e487b7100000000000000000000000000000000000000000000000000000000600052601260045260246000fd5b60006115c582611283565b91506115d083611283565b9250826115e0576115df61158b565b5b828204905092915050565b60006115f682611283565b915061160183611283565b9250827fffffffffffffffffffffffffffffffffffffffffffffffffffffffffffffffff0382111561163657611635611528565b5b828201905092915050565b600061164c82611283565b915061165783611283565b9250817fffffffffffffffffffffffffffffffffffffffffffffffffffffffffffffffff04831182151516156116905761168f611528565b5b828202905092915050565b60006040820190506116b0600083018561145b565b6116bd60208301846112e6565b9392505050565b6116cd81611310565b81146116d857600080fd5b50565b6000815190506116ea816116c4565b92915050565b6000602082840312156117065761170561127e565b5b6000611714848285016116db565b91505092915050565b600082825260208201905092915050565b7f4f6e6c79206f776e657220697320616c6c6f77656420666f722074686973206160008201527f6374696f6e2e0000000000000000000000000000000000000000000000000000602082015250565b600061178a60268361171d565b91506117958261172e565b604082019050919050565b600060208201905081810360008301526117b98161177d565b9050919050565b60006117cb82611392565b9050919050565b6117db816117c0565b82525050565b60006060820190506117f6600083018661145b565b61180360208301856117d2565b61181060408301846112e6565b949350505050565b600060608201905061182d600083018661145b565b61183a60208301856112e6565b61184760408301846112e6565b949350505050565b6000606082019050611864600083018661145b565b611871602083018561145b565b61187e60408301846112e6565b949350505050565b600060408201905061189b60008301856117d2565b6118a860208301846112e6565b9392505050565b6000815190506118be8161128d565b92915050565b6000602082840312156118da576118d961127e565b5b60006118e8848285016118af565b9150509291505056fea26469706673582212205e8657265c4eed5ccf5a6a48f4d2e954aad4f12d17a9a30a641774c4ba15b89964736f6c634300080d0033",
  "immutableReferences": {
    "958": [
      {
        "length": 32,
        "start": 4536
      },
      {
        "length": 32,
        "start": 4632
      }
    ],
    "961": [
      {
        "length": 32,
        "start": 4503
      },
      {
        "length": 32,
        "start": 4599
      },
      {
        "length": 32,
        "start": 4665
      }
    ]
  },
  "source": "// SPDX-License-Identifier: MIT\r\npragma solidity >=0.5.0 <0.9.0;\r\n\r\nimport \"./SbToken.sol\";\r\nimport \"./LpToken.sol\";\r\n\r\ncontract pool {\r\n    SbToken public sbt;\r\n    LpToken public lp;\r\n    uint256 private immutable feesRate = 3;\r\n    uint256 private immutable feesDecimal = 1000;\r\n    //uint public ethBalance;\r\n    address public owner;\r\n    uint256 public sbtBalance = 0; //sbt available to use & calculate\r\n    uint256 private sbtReserved = 0; //sbt reserved for liquidity provider reward\r\n    bool public isRunning = false;\r\n\r\n    uint256 k;\r\n    uint256 estimateTokenSb;\r\n    uint256 estimateTokenEth;\r\n    uint256 public sbtGet = 0;\r\n    bool oneTime = true;\r\n\r\n    //addDeposit variable\r\n    uint256 public sbtRatio;\r\n    uint256 public ethRatio;\r\n\r\n    event PoolInitialised(\r\n        address account,\r\n        address token,\r\n        uint256 amountSbt,\r\n        uint256 amountEth\r\n    );\r\n\r\n    // Function to receive Ether. msg.data must be empty\r\n    receive() external payable {}\r\n\r\n    // Fallback function is called when msg.data is not empty\r\n    fallback() external payable {}\r\n\r\n    modifier onlyOwner() {\r\n        require(msg.sender == owner, \"Only owner is allowed for this action.\");\r\n        _;\r\n    }\r\n\r\n    modifier checkPool() {\r\n        require(isRunning);\r\n        _;\r\n    }\r\n\r\n    modifier checkBalance() {\r\n        require(msg.value > 0);\r\n        require(msg.value <= msg.sender.balance);\r\n        _;\r\n    }\r\n\r\n    modifier checkBalance2(uint256 amountSbt) {\r\n        require(amountSbt > 0);\r\n        require(amountSbt <= sbt.balanceOf(msg.sender));\r\n        _;\r\n    }\r\n\r\n    constructor(SbToken _sbToken, LpToken _lpToken) {\r\n        sbt = _sbToken;\r\n        lp = _lpToken;\r\n        owner = msg.sender;\r\n    }\r\n\r\n    function settingUp(uint256 sbtSupply) public payable onlyOwner {\r\n        sbt.transferFrom(msg.sender, payable(this), sbtSupply);\r\n        //payable(address(this)).transfer(msg.value);\r\n\r\n        //require(msg.sender == owner, \"Only owner can deploy the pool.\");\r\n        sbtBalance += sbtSupply;\r\n        isRunning = true;\r\n\r\n        //emit PoolInitialised(msg.sender, address(sbt), sbtSupply, msg.value);\r\n\r\n        lp.create(msg.sender, msg.value, sbtSupply);\r\n    }\r\n\r\n    //get the 99.7% of sbt (used for swap)\r\n    function getActualSbt(uint256 fullSbt) internal pure returns (uint256) {\r\n        return (fullSbt * (feesDecimal - feesRate)) / feesDecimal;\r\n    }\r\n\r\n    //get the 0.3% fees of sbt (swap)(if giving eth, convert reserved eth to sbt)\r\n    function getReservedSbt(uint256 fullSbt) internal pure returns (uint256) {\r\n        return (fullSbt * feesRate) / feesDecimal;\r\n    }\r\n\r\n    function getBalanceEth() public view returns (uint256) {\r\n        return address(this).balance;\r\n    }\r\n\r\n    function withdrawLiquity(\r\n        uint256 percent,\r\n        uint256 providedSBT,\r\n        uint256 providedETH,\r\n        uint256 reward\r\n    ) external payable {\r\n        // require(msg.sender == owner, \"Only owner can withdraw funds\");\r\n        // require(amount <= balance[destAddr], \"Insufficient funds\");\r\n\r\n        uint256 sbtWithdraw = ((((providedSBT * percent) / 10) +\r\n            (reward * 10)) * 10**18) / 10**18;\r\n        //SBT\r\n        sbt.transfer(payable(msg.sender), sbtWithdraw);\r\n        sbtBalance -= sbtWithdraw;\r\n        //ETH\r\n        uint256 withdrawETH = (((providedETH * percent) / 1000) * 10**18) /\r\n            10**18;\r\n        payable(msg.sender).transfer(withdrawETH);\r\n\r\n        oneTime = true;\r\n        calculateConstant();\r\n        lp.minus(msg.sender, withdrawETH, sbtWithdraw);\r\n    }\r\n\r\n    function isPoolRunning() public view returns (bool) {\r\n        return isRunning;\r\n    }\r\n\r\n    //swap\r\n    function calculateConstant() internal {\r\n        if (oneTime) {\r\n            k = address(this).balance * sbtBalance;\r\n            oneTime = false;\r\n        }\r\n    }\r\n\r\n    function getSwapTokenSbEstimate(uint256 _amountTokenEth)\r\n        public\r\n        checkPool\r\n        returns (uint256, uint256)\r\n    {\r\n        uint256 tokenEthAfter = address(this).balance + _amountTokenEth;\r\n        calculateConstant();\r\n        estimateTokenSb = sbtBalance - (k / tokenEthAfter);\r\n        sbtGet = getActualSbt(estimateTokenSb);\r\n        return (estimateTokenSb, sbtGet);\r\n    }\r\n\r\n    function getSwapTokenEthEstimate(uint256 _amountTokenSb)\r\n        public\r\n        checkPool\r\n        returns (uint256)\r\n    {\r\n        uint256 tokenSbAfter = sbtBalance + getActualSbt(_amountTokenSb);\r\n        calculateConstant();\r\n        estimateTokenEth = address(this).balance - (k / tokenSbAfter);\r\n        return (estimateTokenEth);\r\n    }\r\n\r\n    function getEthNeed(uint256 _amountSbt)\r\n        public\r\n        checkPool\r\n        returns (uint256, uint256)\r\n    {\r\n        uint256 tokenSbtAfter = sbtBalance - _amountSbt;\r\n        calculateConstant();\r\n        uint256 ethNeed = (k / tokenSbtAfter) - address(this).balance;\r\n        sbtGet = getActualSbt(_amountSbt);\r\n        return (ethNeed, sbtGet);\r\n    }\r\n\r\n    function getSbtNeed(uint256 _amountEth) public checkPool returns (uint256) {\r\n        uint256 tokenEthAfter = address(this).balance - _amountEth;\r\n        calculateConstant();\r\n        uint256 sbtNeed = (k / tokenEthAfter) - sbtBalance;\r\n        uint256 actual = sbtNeed + getReservedSbt(sbtNeed);\r\n        return (actual);\r\n    }\r\n\r\n    function tokenEthSwapTokenSb(uint256 amountSbt, uint256 getAmount)\r\n        external\r\n        payable\r\n        checkBalance\r\n    {\r\n        sbtReserved = getReservedSbt(amountSbt);\r\n        payable(address(this)).transfer(msg.value);\r\n        sbt.transfer(msg.sender, getAmount);\r\n        sbtBalance -= amountSbt;\r\n    }\r\n\r\n    function tokenSbSwapTokenEth(uint256 amountSbt, uint256 amountEth)\r\n        public\r\n        checkBalance2(amountSbt)\r\n    {\r\n        sbtReserved = getReservedSbt(amountSbt);\r\n        sbt.transferFrom(msg.sender, address(this), amountSbt);\r\n        payable(msg.sender).transfer(amountEth);\r\n        sbtBalance += getActualSbt(amountSbt);\r\n    }\r\n\r\n    //addDeposit\r\n    function calSBT(uint ethAmount) public checkPool returns(uint returnSBT){\r\n        sbtRatio = ((sbtBalance) * 10**18 /(address(this).balance));\r\n        return ethAmount * sbtRatio;\r\n    }\r\n\r\n    function calETH(uint sbtAmount) public checkPool returns(uint returnETH){\r\n        ethRatio = ((address(this).balance) *10**18) /sbtBalance;\r\n        return sbtAmount * ethRatio;\r\n    }\r\n\r\n    function deposit(uint256 sbtDeposit) external payable {\r\n        payable(address(this)).transfer(msg.value);\r\n        sbt.transferFrom(msg.sender, address(this), sbtDeposit);\r\n        sbtBalance += sbtDeposit;\r\n        oneTime = true;\r\n        calculateConstant();\r\n    }\r\n}\r\n",
  "sourcePath": "C:\\Users\\User\\Documents\\GitHub\\blockchain\\contracts\\pool.sol",
  "compiler": {
    "name": "solc",
    "version": "0.8.13+commit.abaa5c0e.Emscripten.clang"
  },
  "schemaVersion": "3.4.6",
  "updatedAt": "2022-04-10T14:05:33.029Z",
  "networkType": "ethereum",
  "devdoc": {
    "kind": "dev",
    "methods": {},
    "version": 1
  },
  "userdoc": {
    "kind": "user",
    "methods": {},
    "version": 1
  }
}