{
  "contractName": "pool",
  "abi": [
    {
      "inputs": [
        {
          "internalType": "contract SbToken",
          "name": "_sbToken",
          "type": "address"
        }
      ],
      "stateMutability": "nonpayable",
      "type": "constructor"
    },
    {
      "anonymous": false,
      "inputs": [
        {
          "indexed": false,
          "internalType": "address",
          "name": "account",
          "type": "address"
        },
        {
          "indexed": false,
          "internalType": "address",
          "name": "token",
          "type": "address"
        },
        {
          "indexed": false,
          "internalType": "uint256",
          "name": "amountSbt",
          "type": "uint256"
        },
        {
          "indexed": false,
          "internalType": "uint256",
          "name": "amountEth",
          "type": "uint256"
        }
      ],
      "name": "PoolInitialised",
      "type": "event"
    },
    {
      "anonymous": false,
      "inputs": [
        {
          "indexed": false,
          "internalType": "address",
          "name": "user",
          "type": "address"
        },
        {
          "indexed": false,
          "internalType": "uint256",
          "name": "amountEth",
          "type": "uint256"
        },
        {
          "indexed": false,
          "internalType": "uint256",
          "name": "amountSbt",
          "type": "uint256"
        },
        {
          "indexed": false,
          "internalType": "uint256",
          "name": "sbtGet",
          "type": "uint256"
        },
        {
          "indexed": false,
          "internalType": "uint256",
          "name": "sbtReserved",
          "type": "uint256"
        }
      ],
      "name": "ethToSbt",
      "type": "event"
    },
    {
      "anonymous": false,
      "inputs": [
        {
          "indexed": false,
          "internalType": "address",
          "name": "user",
          "type": "address"
        },
        {
          "indexed": false,
          "internalType": "uint256",
          "name": "amountSbt",
          "type": "uint256"
        },
        {
          "indexed": false,
          "internalType": "uint256",
          "name": "amountEth",
          "type": "uint256"
        },
        {
          "indexed": false,
          "internalType": "uint256",
          "name": "ethGet",
          "type": "uint256"
        },
        {
          "indexed": false,
          "internalType": "uint256",
          "name": "ethReserved",
          "type": "uint256"
        }
      ],
      "name": "sbtToEth",
      "type": "event"
    },
    {
      "stateMutability": "payable",
      "type": "fallback",
      "payable": true
    },
    {
      "inputs": [],
      "name": "ethGet",
      "outputs": [
        {
          "internalType": "uint256",
          "name": "",
          "type": "uint256"
        }
      ],
      "stateMutability": "view",
      "type": "function",
      "constant": true
    },
    {
      "inputs": [],
      "name": "isRunning",
      "outputs": [
        {
          "internalType": "bool",
          "name": "",
          "type": "bool"
        }
      ],
      "stateMutability": "view",
      "type": "function",
      "constant": true
    },
    {
      "inputs": [],
      "name": "owner",
      "outputs": [
        {
          "internalType": "address",
          "name": "",
          "type": "address"
        }
      ],
      "stateMutability": "view",
      "type": "function",
      "constant": true
    },
    {
      "inputs": [],
      "name": "sbt",
      "outputs": [
        {
          "internalType": "contract SbToken",
          "name": "",
          "type": "address"
        }
      ],
      "stateMutability": "view",
      "type": "function",
      "constant": true
    },
    {
      "inputs": [],
      "name": "sbtBalance",
      "outputs": [
        {
          "internalType": "uint256",
          "name": "",
          "type": "uint256"
        }
      ],
      "stateMutability": "view",
      "type": "function",
      "constant": true
    },
    {
      "inputs": [],
      "name": "sbtGet",
      "outputs": [
        {
          "internalType": "uint256",
          "name": "",
          "type": "uint256"
        }
      ],
      "stateMutability": "view",
      "type": "function",
      "constant": true
    },
    {
      "stateMutability": "payable",
      "type": "receive",
      "payable": true
    },
    {
      "inputs": [
        {
          "internalType": "uint256",
          "name": "sbtSupply",
          "type": "uint256"
        }
      ],
      "name": "settingUp",
      "outputs": [],
      "stateMutability": "payable",
      "type": "function",
      "payable": true
    },
    {
      "inputs": [],
      "name": "getBalanceSbt",
      "outputs": [
        {
          "internalType": "uint256",
          "name": "",
          "type": "uint256"
        }
      ],
      "stateMutability": "view",
      "type": "function",
      "constant": true
    },
    {
      "inputs": [],
      "name": "getBalanceEth",
      "outputs": [
        {
          "internalType": "uint256",
          "name": "",
          "type": "uint256"
        }
      ],
      "stateMutability": "view",
      "type": "function",
      "constant": true
    },
    {
      "inputs": [],
      "name": "isPoolRunning",
      "outputs": [
        {
          "internalType": "bool",
          "name": "",
          "type": "bool"
        }
      ],
      "stateMutability": "view",
      "type": "function",
      "constant": true
    },
    {
      "inputs": [
        {
          "internalType": "uint256",
          "name": "_amountTokenEth",
          "type": "uint256"
        }
      ],
      "name": "getSwapTokenSbEstimate",
      "outputs": [
        {
          "internalType": "uint256",
          "name": "",
          "type": "uint256"
        },
        {
          "internalType": "uint256",
          "name": "",
          "type": "uint256"
        }
      ],
      "stateMutability": "nonpayable",
      "type": "function"
    },
    {
      "inputs": [
        {
          "internalType": "uint256",
          "name": "_amountTokenSb",
          "type": "uint256"
        }
      ],
      "name": "getSwapTokenEthEstimate",
      "outputs": [
        {
          "internalType": "uint256",
          "name": "",
          "type": "uint256"
        }
      ],
      "stateMutability": "nonpayable",
      "type": "function"
    },
    {
      "inputs": [
        {
          "internalType": "uint256",
          "name": "_amountSbt",
          "type": "uint256"
        }
      ],
      "name": "getEthNeed",
      "outputs": [
        {
          "internalType": "uint256",
          "name": "",
          "type": "uint256"
        },
        {
          "internalType": "uint256",
          "name": "",
          "type": "uint256"
        }
      ],
      "stateMutability": "nonpayable",
      "type": "function"
    },
    {
      "inputs": [
        {
          "internalType": "uint256",
          "name": "_amountEth",
          "type": "uint256"
        }
      ],
      "name": "getSbtNeed",
      "outputs": [
        {
          "internalType": "uint256",
          "name": "",
          "type": "uint256"
        }
      ],
      "stateMutability": "nonpayable",
      "type": "function"
    },
    {
      "inputs": [
        {
          "internalType": "uint256",
          "name": "amountSbt",
          "type": "uint256"
        },
        {
          "internalType": "uint256",
          "name": "getAmount",
          "type": "uint256"
        }
      ],
      "name": "tokenEthSwapTokenSb",
      "outputs": [],
      "stateMutability": "payable",
      "type": "function",
      "payable": true
    },
    {
      "inputs": [
        {
          "internalType": "uint256",
          "name": "amountSbt",
          "type": "uint256"
        },
        {
          "internalType": "uint256",
          "name": "amountEth",
          "type": "uint256"
        }
      ],
      "name": "tokenSbSwapTokenEth",
      "outputs": [],
      "stateMutability": "nonpayable",
      "type": "function"
    }
  ],
  "bytecode": "0x60c060405260036080908152506103e860a090815250600060025560006003556000600460006101000a81548160ff0219169083151502179055506000600a556000600b556001600c60006101000a81548160ff0219169083151502179055503480156200006c57600080fd5b506040516200141038038062001410833981810160405281019062000092919062000198565b806000806101000a81548173ffffffffffffffffffffffffffffffffffffffff021916908373ffffffffffffffffffffffffffffffffffffffff16021790555033600160006101000a81548173ffffffffffffffffffffffffffffffffffffffff021916908373ffffffffffffffffffffffffffffffffffffffff16021790555050620001ca565b600080fd5b600073ffffffffffffffffffffffffffffffffffffffff82169050919050565b60006200014c826200011f565b9050919050565b600062000160826200013f565b9050919050565b620001728162000153565b81146200017e57600080fd5b50565b600081519050620001928162000167565b92915050565b600060208284031215620001b157620001b06200011a565b5b6000620001c18482850162000181565b91505092915050565b60805160a05161120b6200020560003960008181610b7e01528181610bde0152610c20015260008181610b9f0152610bff015261120b6000f3fe6080604052600436106100f75760003560e01c80639caf34c41161008a578063bb4632bc11610059578063bb4632bc1461031d578063d64157fb14610348578063f183b10314610386578063f98e12ff146103b1576100fe565b80639caf34c41461025f578063a6c5c67c1461028a578063b1324f7b146102b5578063b29f5d3e146102e0576100fe565b8063590aa56c116100c6578063590aa56c146101be57806389177707146101da5780638d776b1a146102185780638da5cb5b14610234576100fe565b80630caa99ec146101005780630d51f34c1461012b5780632014e5d114610168578063309eaa9814610193576100fe565b366100fe57005b005b34801561010c57600080fd5b506101156103da565b6040516101229190610c7e565b60405180910390f35b34801561013757600080fd5b50610152600480360381019061014d9190610cca565b6103e0565b60405161015f9190610c7e565b60405180910390f35b34801561017457600080fd5b5061017d61046c565b60405161018a9190610d12565b60405180910390f35b34801561019f57600080fd5b506101a861047f565b6040516101b59190610c7e565b60405180910390f35b6101d860048036038101906101d39190610d2d565b610489565b005b3480156101e657600080fd5b5061020160048036038101906101fc9190610cca565b6105cc565b60405161020f929190610d6d565b60405180910390f35b610232600480360381019061022d9190610cca565b610654565b005b34801561024057600080fd5b506102496107bc565b6040516102569190610dd7565b60405180910390f35b34801561026b57600080fd5b506102746107e2565b6040516102819190610c7e565b60405180910390f35b34801561029657600080fd5b5061029f610801565b6040516102ac9190610d12565b60405180910390f35b3480156102c157600080fd5b506102ca610818565b6040516102d79190610e51565b60405180910390f35b3480156102ec57600080fd5b5061030760048036038101906103029190610cca565b61083c565b6040516103149190610c7e565b60405180910390f35b34801561032957600080fd5b506103326108ba565b60405161033f9190610c7e565b60405180910390f35b34801561035457600080fd5b5061036f600480360381019061036a9190610cca565b6108c0565b60405161037d929190610d6d565b60405180910390f35b34801561039257600080fd5b5061039b61094d565b6040516103a89190610c7e565b60405180910390f35b3480156103bd57600080fd5b506103d860048036038101906103d39190610d2d565b610953565b005b600b5481565b6000600460009054906101000a900460ff166103fb57600080fd5b6000823073ffffffffffffffffffffffffffffffffffffffff16316104209190610e9b565b905061042a610b1c565b60006002548260055461043d9190610efe565b6104479190610e9b565b9050600061045482610b7a565b8261045f9190610f2f565b9050809350505050919050565b600460009054906101000a900460ff1681565b6000600254905090565b6000341161049657600080fd5b3373ffffffffffffffffffffffffffffffffffffffff16313411156104ba57600080fd5b6104c382610b7a565b6009819055503073ffffffffffffffffffffffffffffffffffffffff166108fc349081150290604051600060405180830381858888f1935050505015801561050f573d6000803e3d6000fd5b5060008054906101000a900473ffffffffffffffffffffffffffffffffffffffff1673ffffffffffffffffffffffffffffffffffffffff1663a9059cbb33836040518363ffffffff1660e01b815260040161056b929190610f85565b6020604051808303816000875af115801561058a573d6000803e3d6000fd5b505050506040513d601f19601f820116820180604052508101906105ae9190610fda565b5080600260008282546105c19190610e9b565b925050819055505050565b600080600460009054906101000a900460ff166105e857600080fd5b6000836002546105f89190610e9b565b9050610602610b1c565b60003073ffffffffffffffffffffffffffffffffffffffff16318260055461062a9190610efe565b6106349190610e9b565b905061063f85610bda565b600a8190555080600a54935093505050915091565b600160009054906101000a900473ffffffffffffffffffffffffffffffffffffffff1673ffffffffffffffffffffffffffffffffffffffff163373ffffffffffffffffffffffffffffffffffffffff16146106e4576040517f08c379a00000000000000000000000000000000000000000000000000000000081526004016106db9061108a565b60405180910390fd5b60008054906101000a900473ffffffffffffffffffffffffffffffffffffffff1673ffffffffffffffffffffffffffffffffffffffff166323b872dd3330846040518463ffffffff1660e01b8152600401610741939291906110cb565b6020604051808303816000875af1158015610760573d6000803e3d6000fd5b505050506040513d601f19601f820116820180604052508101906107849190610fda565b5080600260008282546107979190610f2f565b925050819055506001600460006101000a81548160ff02191690831515021790555050565b600160009054906101000a900473ffffffffffffffffffffffffffffffffffffffff1681565b60003073ffffffffffffffffffffffffffffffffffffffff1631905090565b6000600460009054906101000a900460ff16905090565b60008054906101000a900473ffffffffffffffffffffffffffffffffffffffff1681565b6000600460009054906101000a900460ff1661085757600080fd5b600061086283610bda565b60025461086f9190610f2f565b9050610879610b1c565b806005546108879190610efe565b3073ffffffffffffffffffffffffffffffffffffffff16316108a99190610e9b565b600781905550600754915050919050565b60025481565b600080600460009054906101000a900460ff166108dc57600080fd5b6000833073ffffffffffffffffffffffffffffffffffffffff16316109019190610f2f565b905061090b610b1c565b806005546109199190610efe565b6002546109269190610e9b565b600681905550610937600654610bda565b600a81905550600654600a549250925050915091565b600a5481565b816000811161096157600080fd5b60008054906101000a900473ffffffffffffffffffffffffffffffffffffffff1673ffffffffffffffffffffffffffffffffffffffff166370a08231336040518263ffffffff1660e01b81526004016109ba9190610dd7565b602060405180830381865afa1580156109d7573d6000803e3d6000fd5b505050506040513d601f19601f820116820180604052508101906109fb9190611117565b811115610a0757600080fd5b610a1083610b7a565b60088190555060008054906101000a900473ffffffffffffffffffffffffffffffffffffffff1673ffffffffffffffffffffffffffffffffffffffff166323b872dd3330866040518463ffffffff1660e01b8152600401610a7393929190611144565b6020604051808303816000875af1158015610a92573d6000803e3d6000fd5b505050506040513d601f19601f82011682018060405250810190610ab69190610fda565b503373ffffffffffffffffffffffffffffffffffffffff166108fc839081150290604051600060405180830381858888f19350505050158015610afd573d6000803e3d6000fd5b508260026000828254610b109190610f2f565b92505081905550505050565b600c60009054906101000a900460ff1615610b78576002543073ffffffffffffffffffffffffffffffffffffffff1631610b56919061117b565b6005819055506000600c60006101000a81548160ff0219169083151502179055505b565b60007f00000000000000000000000000000000000000000000000000000000000000007f000000000000000000000000000000000000000000000000000000000000000083610bc9919061117b565b610bd39190610efe565b9050919050565b60007f00000000000000000000000000000000000000000000000000000000000000007f00000000000000000000000000000000000000000000000000000000000000007f0000000000000000000000000000000000000000000000000000000000000000610c499190610e9b565b83610c54919061117b565b610c5e9190610efe565b9050919050565b6000819050919050565b610c7881610c65565b82525050565b6000602082019050610c936000830184610c6f565b92915050565b600080fd5b610ca781610c65565b8114610cb257600080fd5b50565b600081359050610cc481610c9e565b92915050565b600060208284031215610ce057610cdf610c99565b5b6000610cee84828501610cb5565b91505092915050565b60008115159050919050565b610d0c81610cf7565b82525050565b6000602082019050610d276000830184610d03565b92915050565b60008060408385031215610d4457610d43610c99565b5b6000610d5285828601610cb5565b9250506020610d6385828601610cb5565b9150509250929050565b6000604082019050610d826000830185610c6f565b610d8f6020830184610c6f565b9392505050565b600073ffffffffffffffffffffffffffffffffffffffff82169050919050565b6000610dc182610d96565b9050919050565b610dd181610db6565b82525050565b6000602082019050610dec6000830184610dc8565b92915050565b6000819050919050565b6000610e17610e12610e0d84610d96565b610df2565b610d96565b9050919050565b6000610e2982610dfc565b9050919050565b6000610e3b82610e1e565b9050919050565b610e4b81610e30565b82525050565b6000602082019050610e666000830184610e42565b92915050565b7f4e487b7100000000000000000000000000000000000000000000000000000000600052601160045260246000fd5b6000610ea682610c65565b9150610eb183610c65565b925082821015610ec457610ec3610e6c565b5b828203905092915050565b7f4e487b7100000000000000000000000000000000000000000000000000000000600052601260045260246000fd5b6000610f0982610c65565b9150610f1483610c65565b925082610f2457610f23610ecf565b5b828204905092915050565b6000610f3a82610c65565b9150610f4583610c65565b9250827fffffffffffffffffffffffffffffffffffffffffffffffffffffffffffffffff03821115610f7a57610f79610e6c565b5b828201905092915050565b6000604082019050610f9a6000830185610dc8565b610fa76020830184610c6f565b9392505050565b610fb781610cf7565b8114610fc257600080fd5b50565b600081519050610fd481610fae565b92915050565b600060208284031215610ff057610fef610c99565b5b6000610ffe84828501610fc5565b91505092915050565b600082825260208201905092915050565b7f4f6e6c79206f776e657220697320616c6c6f77656420666f722074686973206160008201527f6374696f6e2e0000000000000000000000000000000000000000000000000000602082015250565b6000611074602683611007565b915061107f82611018565b604082019050919050565b600060208201905081810360008301526110a381611067565b9050919050565b60006110b582610e1e565b9050919050565b6110c5816110aa565b82525050565b60006060820190506110e06000830186610dc8565b6110ed60208301856110bc565b6110fa6040830184610c6f565b949350505050565b60008151905061111181610c9e565b92915050565b60006020828403121561112d5761112c610c99565b5b600061113b84828501611102565b91505092915050565b60006060820190506111596000830186610dc8565b6111666020830185610dc8565b6111736040830184610c6f565b949350505050565b600061118682610c65565b915061119183610c65565b9250817fffffffffffffffffffffffffffffffffffffffffffffffffffffffffffffffff04831182151516156111ca576111c9610e6c565b5b82820290509291505056fea264697066735822122086ae9a4b014a3fcdbe8a2a3fa9e855f7294cb79398204aea46928f63804ad56864736f6c634300080d0033",
  "immutableReferences": {
    "830": [
      {
        "length": 32,
        "start": 2975
      },
      {
        "length": 32,
        "start": 3071
      }
    ],
    "833": [
      {
        "length": 32,
        "start": 2942
      },
      {
        "length": 32,
        "start": 3038
      },
      {
        "length": 32,
        "start": 3104
      }
    ]
  },
  "source": "// SPDX-License-Identifier: MIT\r\npragma solidity >=0.5.0 <0.9.0;\r\n\r\nimport \"./SbToken.sol\";\r\nimport \"./LpToken.sol\";\r\n\r\ncontract pool {\r\n    SbToken public sbt;\r\n    uint private immutable feesRate = 3;\r\n    uint private immutable feesDecimal = 1000;\r\n    //uint public ethBalance;\r\n    address public owner;\r\n    uint public sbtBalance = 0;  //sbt available to use & calculate\r\n    uint private sbtReserved = 0; //sbt reserved for liquidity provider reward\r\n    bool public isRunning = false;\r\n\r\n    uint k;\r\n    uint estimateTokenSb;\r\n    uint estimateTokenEth;\r\n    uint reservedEth;\r\n    uint reservedSbt;\r\n    uint public sbtGet =0;\r\n    uint public ethGet =0;\r\n    bool oneTime = true;\r\n\r\n    event PoolInitialised(\r\n        address account,\r\n        address token,\r\n        uint amountSbt,\r\n        uint amountEth\r\n    );\r\n\r\n    event ethToSbt(\r\n        address user,\r\n        uint amountEth,\r\n        uint amountSbt,\r\n        uint sbtGet,\r\n        uint sbtReserved\r\n    );\r\n\r\n    event sbtToEth(\r\n        address user,\r\n        uint amountSbt,\r\n        uint amountEth,\r\n        uint ethGet,\r\n        uint ethReserved\r\n    );\r\n\r\n\r\n\r\n    // Function to receive Ether. msg.data must be empty\r\n    receive() external payable {}\r\n\r\n    // Fallback function is called when msg.data is not empty\r\n    fallback() external payable {}\r\n\r\n\r\n    modifier onlyOwner {\r\n      require(msg.sender == owner,\"Only owner is allowed for this action.\");\r\n      _;\r\n    }\r\n\r\n    modifier checkPool() {\r\n        require(isRunning);\r\n        _;\r\n    }\r\n\r\n    modifier checkBalance() {\r\n        require(msg.value > 0);\r\n        require(msg.value <= msg.sender.balance);\r\n        _;\r\n    }\r\n\r\n    modifier checkBalance2(uint amountSbt) {\r\n        require(amountSbt > 0);\r\n        require(amountSbt <= sbt.balanceOf(msg.sender));\r\n        _;\r\n    }\r\n\r\n    constructor(SbToken _sbToken) {\r\n        sbt = _sbToken;\r\n        \r\n        owner = msg.sender;\r\n    }\r\n\r\n    \r\n    function settingUp( uint sbtSupply) public payable onlyOwner{\r\n       \r\n        \r\n        sbt.transferFrom(msg.sender,payable (this), sbtSupply);\r\n        //payable(address(this)).transfer(msg.value);\r\n\r\n\r\n        //require(msg.sender == owner, \"Only owner can deploy the pool.\");\r\n        sbtBalance += sbtSupply;\r\n        isRunning = true;\r\n\r\n        //emit PoolInitialised(msg.sender, address(sbt), sbtSupply, msg.value);\r\n    }\r\n\r\n\r\n    //get the 99.7% of sbt (used for swap)\r\n    function getActualSbt (uint fullSbt) internal pure returns(uint){\r\n        return (fullSbt * (feesDecimal - feesRate)) / feesDecimal;\r\n        \r\n    }\r\n\r\n    //get the 0.3% fees of sbt (swap)(if giving eth, convert reserved eth to sbt)\r\n    function getReservedSbt (uint fullSbt) internal pure returns(uint){\r\n        return  (fullSbt * feesRate) / feesDecimal;\r\n    }\r\n\r\n    function getBalanceSbt () public view returns(uint){\r\n        return sbtBalance;\r\n    }\r\n\r\n    function getBalanceEth () public view returns(uint){\r\n        return address(this).balance;\r\n    }\r\n\r\n    function isPoolRunning () public view returns(bool){\r\n        return isRunning;\r\n    }\r\n\r\n    \r\n    //swap\r\n    function calculateConstant() internal{\r\n        if(oneTime){\r\n            k = address(this).balance * sbtBalance;\r\n            oneTime = false;\r\n        }\r\n       \r\n    }\r\n\r\n    function getSwapTokenSbEstimate(uint _amountTokenEth) public checkPool returns (uint, uint)\r\n    {\r\n        uint tokenEthAfter = address(this).balance + _amountTokenEth;\r\n        calculateConstant();\r\n        estimateTokenSb = sbtBalance - (k / tokenEthAfter);\r\n        sbtGet = getActualSbt(estimateTokenSb);\r\n        return (estimateTokenSb,sbtGet);\r\n    }\r\n\r\n    function getSwapTokenEthEstimate(uint _amountTokenSb)public checkPool returns (uint)\r\n    {\r\n        uint tokenSbAfter = sbtBalance + getActualSbt(_amountTokenSb);\r\n        calculateConstant();\r\n        estimateTokenEth = address(this).balance - (k / tokenSbAfter);\r\n        return (estimateTokenEth);\r\n    }\r\n\r\n    function getEthNeed(uint _amountSbt) public checkPool returns (uint, uint)\r\n    {\r\n        uint tokenSbtAfter = sbtBalance - _amountSbt;\r\n        calculateConstant();\r\n        uint ethNeed = (k / tokenSbtAfter) - address(this).balance;\r\n        sbtGet = getActualSbt(_amountSbt);\r\n        return (ethNeed,sbtGet);\r\n    }\r\n\r\n    function getSbtNeed(uint _amountEth) public checkPool returns (uint)\r\n    {\r\n        uint tokenEthAfter = address(this).balance - _amountEth;\r\n        calculateConstant();\r\n        uint sbtNeed = (k / tokenEthAfter) - sbtBalance;\r\n        uint actual = sbtNeed + getReservedSbt(sbtNeed);\r\n        return (actual);\r\n    }\r\n\r\n    function tokenEthSwapTokenSb(uint amountSbt, uint getAmount) external checkBalance payable{\r\n        reservedSbt = getReservedSbt(amountSbt);\r\n        payable(address(this)).transfer(msg.value);\r\n        sbt.transfer(msg.sender, getAmount);\r\n        sbtBalance -= getAmount;\r\n    }\r\n\r\n    function tokenSbSwapTokenEth(uint amountSbt, uint amountEth) checkBalance2(amountSbt) public{\r\n        reservedEth = getReservedSbt(amountSbt);\r\n        sbt.transferFrom(msg.sender, address(this), amountSbt);\r\n        payable(msg.sender).transfer(amountEth);\r\n        sbtBalance += amountSbt;\r\n    }\r\n\r\n    \r\n    \r\n}",
  "sourcePath": "C:\\Users\\User\\Documents\\GitHub\\blockchain\\contracts\\pool.sol",
  "compiler": {
    "name": "solc",
    "version": "0.8.13+commit.abaa5c0e.Emscripten.clang"
  },
  "schemaVersion": "3.4.6",
  "updatedAt": "2022-04-08T19:40:46.382Z",
  "networkType": "ethereum",
  "devdoc": {
    "kind": "dev",
    "methods": {},
    "version": 1
  },
  "userdoc": {
    "kind": "user",
    "methods": {},
    "version": 1
  }
}