{
  "contractName": "pool",
  "abi": [
    {
      "inputs": [
        {
          "internalType": "contract SbToken",
          "name": "_sbToken",
          "type": "address"
        },
        {
          "internalType": "contract LpToken",
          "name": "_lpToken",
          "type": "address"
        }
      ],
      "stateMutability": "nonpayable",
      "type": "constructor"
    },
    {
      "anonymous": false,
      "inputs": [
        {
          "indexed": false,
          "internalType": "address",
          "name": "account",
          "type": "address"
        },
        {
          "indexed": false,
          "internalType": "address",
          "name": "token",
          "type": "address"
        },
        {
          "indexed": false,
          "internalType": "uint256",
          "name": "amountSbt",
          "type": "uint256"
        },
        {
          "indexed": false,
          "internalType": "uint256",
          "name": "amountEth",
          "type": "uint256"
        }
      ],
      "name": "PoolInitialised",
      "type": "event"
    },
    {
      "stateMutability": "payable",
      "type": "fallback",
      "payable": true
    },
    {
      "inputs": [],
      "name": "ethRatio",
      "outputs": [
        {
          "internalType": "uint256",
          "name": "",
          "type": "uint256"
        }
      ],
      "stateMutability": "view",
      "type": "function",
      "constant": true
    },
    {
      "inputs": [],
      "name": "isRunning",
      "outputs": [
        {
          "internalType": "bool",
          "name": "",
          "type": "bool"
        }
      ],
      "stateMutability": "view",
      "type": "function",
      "constant": true
    },
    {
      "inputs": [],
      "name": "lp",
      "outputs": [
        {
          "internalType": "contract LpToken",
          "name": "",
          "type": "address"
        }
      ],
      "stateMutability": "view",
      "type": "function",
      "constant": true
    },
    {
      "inputs": [],
      "name": "owner",
      "outputs": [
        {
          "internalType": "address",
          "name": "",
          "type": "address"
        }
      ],
      "stateMutability": "view",
      "type": "function",
      "constant": true
    },
    {
      "inputs": [],
      "name": "sbt",
      "outputs": [
        {
          "internalType": "contract SbToken",
          "name": "",
          "type": "address"
        }
      ],
      "stateMutability": "view",
      "type": "function",
      "constant": true
    },
    {
      "inputs": [],
      "name": "sbtBalance",
      "outputs": [
        {
          "internalType": "uint256",
          "name": "",
          "type": "uint256"
        }
      ],
      "stateMutability": "view",
      "type": "function",
      "constant": true
    },
    {
      "inputs": [],
      "name": "sbtGet",
      "outputs": [
        {
          "internalType": "uint256",
          "name": "",
          "type": "uint256"
        }
      ],
      "stateMutability": "view",
      "type": "function",
      "constant": true
    },
    {
      "inputs": [],
      "name": "sbtRatio",
      "outputs": [
        {
          "internalType": "uint256",
          "name": "",
          "type": "uint256"
        }
      ],
      "stateMutability": "view",
      "type": "function",
      "constant": true
    },
    {
      "stateMutability": "payable",
      "type": "receive",
      "payable": true
    },
    {
      "inputs": [
        {
          "internalType": "uint256",
          "name": "sbtSupply",
          "type": "uint256"
        }
      ],
      "name": "settingUp",
      "outputs": [],
      "stateMutability": "payable",
      "type": "function",
      "payable": true
    },
    {
      "inputs": [],
      "name": "getBalanceEth",
      "outputs": [
        {
          "internalType": "uint256",
          "name": "",
          "type": "uint256"
        }
      ],
      "stateMutability": "view",
      "type": "function",
      "constant": true
    },
    {
      "inputs": [
        {
          "internalType": "uint256",
          "name": "percent",
          "type": "uint256"
        },
        {
          "internalType": "uint256",
          "name": "ownSBT",
          "type": "uint256"
        }
      ],
      "name": "withdrawLiquity",
      "outputs": [],
      "stateMutability": "payable",
      "type": "function",
      "payable": true
    },
    {
      "inputs": [],
      "name": "isPoolRunning",
      "outputs": [
        {
          "internalType": "bool",
          "name": "",
          "type": "bool"
        }
      ],
      "stateMutability": "view",
      "type": "function",
      "constant": true
    },
    {
      "inputs": [
        {
          "internalType": "uint256",
          "name": "_amountTokenEth",
          "type": "uint256"
        }
      ],
      "name": "getSwapTokenSbEstimate",
      "outputs": [
        {
          "internalType": "uint256",
          "name": "",
          "type": "uint256"
        },
        {
          "internalType": "uint256",
          "name": "",
          "type": "uint256"
        }
      ],
      "stateMutability": "nonpayable",
      "type": "function"
    },
    {
      "inputs": [
        {
          "internalType": "uint256",
          "name": "_amountTokenSb",
          "type": "uint256"
        }
      ],
      "name": "getSwapTokenEthEstimate",
      "outputs": [
        {
          "internalType": "uint256",
          "name": "",
          "type": "uint256"
        }
      ],
      "stateMutability": "nonpayable",
      "type": "function"
    },
    {
      "inputs": [
        {
          "internalType": "uint256",
          "name": "_amountSbt",
          "type": "uint256"
        }
      ],
      "name": "getEthNeed",
      "outputs": [
        {
          "internalType": "uint256",
          "name": "",
          "type": "uint256"
        },
        {
          "internalType": "uint256",
          "name": "",
          "type": "uint256"
        }
      ],
      "stateMutability": "nonpayable",
      "type": "function"
    },
    {
      "inputs": [
        {
          "internalType": "uint256",
          "name": "_amountEth",
          "type": "uint256"
        }
      ],
      "name": "getSbtNeed",
      "outputs": [
        {
          "internalType": "uint256",
          "name": "",
          "type": "uint256"
        }
      ],
      "stateMutability": "nonpayable",
      "type": "function"
    },
    {
      "inputs": [
        {
          "internalType": "uint256",
          "name": "amountSbt",
          "type": "uint256"
        },
        {
          "internalType": "uint256",
          "name": "getAmount",
          "type": "uint256"
        }
      ],
      "name": "tokenEthSwapTokenSb",
      "outputs": [],
      "stateMutability": "payable",
      "type": "function",
      "payable": true
    },
    {
      "inputs": [
        {
          "internalType": "uint256",
          "name": "amountSbt",
          "type": "uint256"
        },
        {
          "internalType": "uint256",
          "name": "amountEth",
          "type": "uint256"
        }
      ],
      "name": "tokenSbSwapTokenEth",
      "outputs": [],
      "stateMutability": "nonpayable",
      "type": "function"
    },
    {
      "inputs": [
        {
          "internalType": "uint256",
          "name": "ethAmount",
          "type": "uint256"
        }
      ],
      "name": "calSBT",
      "outputs": [
        {
          "internalType": "uint256",
          "name": "returnSBT",
          "type": "uint256"
        }
      ],
      "stateMutability": "nonpayable",
      "type": "function"
    },
    {
      "inputs": [
        {
          "internalType": "uint256",
          "name": "sbtAmount",
          "type": "uint256"
        }
      ],
      "name": "calETH",
      "outputs": [
        {
          "internalType": "uint256",
          "name": "returnETH",
          "type": "uint256"
        }
      ],
      "stateMutability": "nonpayable",
      "type": "function"
    },
    {
      "inputs": [
        {
          "internalType": "uint256",
          "name": "sbtDeposit",
          "type": "uint256"
        }
      ],
      "name": "deposit",
      "outputs": [],
      "stateMutability": "payable",
      "type": "function",
      "payable": true
    }
  ],
  "bytecode": "0x60c060405260036080908152506103e860a090815250600060035560006004556000600560006101000a81548160ff02191690831515021790555060006009556001600a60006101000a81548160ff0219169083151502179055503480156200006757600080fd5b5060405162001afa38038062001afa83398181016040528101906200008d91906200021a565b816000806101000a81548173ffffffffffffffffffffffffffffffffffffffff021916908373ffffffffffffffffffffffffffffffffffffffff16021790555080600160006101000a81548173ffffffffffffffffffffffffffffffffffffffff021916908373ffffffffffffffffffffffffffffffffffffffff16021790555033600260006101000a81548173ffffffffffffffffffffffffffffffffffffffff021916908373ffffffffffffffffffffffffffffffffffffffff160217905550505062000261565b600080fd5b600073ffffffffffffffffffffffffffffffffffffffff82169050919050565b600062000189826200015c565b9050919050565b60006200019d826200017c565b9050919050565b620001af8162000190565b8114620001bb57600080fd5b50565b600081519050620001cf81620001a4565b92915050565b6000620001e2826200017c565b9050919050565b620001f481620001d5565b81146200020057600080fd5b50565b6000815190506200021481620001e9565b92915050565b6000806040838503121562000234576200023362000157565b5b60006200024485828601620001be565b9250506020620002578582860162000203565b9150509250929050565b60805160a05161185e6200029c600039600081816111350152818161119501526111d701526000818161115601526111b6015261185e6000f3fe60806040526004361061012e5760003560e01c8063a1014b8f116100ab578063bb4632bc1161006f578063bb4632bc146103db578063bc5894ba14610406578063c946bb2a14610431578063d64157fb1461045c578063f183b1031461049a578063f98e12ff146104c557610135565b8063a1014b8f14610310578063a6c5c67c1461032c578063b1324f7b14610357578063b29f5d3e14610382578063b6b55f25146103bf57610135565b8063776360bc116100f2578063776360bc1461022357806389177707146102605780638d776b1a1461029e5780638da5cb5b146102ba5780639caf34c4146102e557610135565b80630d51f34c146101375780632014e5d114610174578063313c06a01461019f57806338c33a3f146101ca578063590aa56c1461020757610135565b3661013557005b005b34801561014357600080fd5b5061015e60048036038101906101599190611257565b6104ee565b60405161016b9190611293565b60405180910390f35b34801561018057600080fd5b5061018961057a565b60405161019691906112c9565b60405180910390f35b3480156101ab57600080fd5b506101b461058d565b6040516101c19190611363565b60405180910390f35b3480156101d657600080fd5b506101f160048036038101906101ec9190611257565b6105b3565b6040516101fe9190611293565b60405180910390f35b610221600480360381019061021c919061137e565b610621565b005b34801561022f57600080fd5b5061024a60048036038101906102459190611257565b610764565b6040516102579190611293565b60405180910390f35b34801561026c57600080fd5b5061028760048036038101906102829190611257565b6107d2565b6040516102959291906113be565b60405180910390f35b6102b860048036038101906102b39190611257565b61085a565b005b3480156102c657600080fd5b506102cf610a53565b6040516102dc9190611408565b60405180910390f35b3480156102f157600080fd5b506102fa610a79565b6040516103079190611293565b60405180910390f35b61032a6004803603810190610325919061137e565b610a98565b005b34801561033857600080fd5b50610341610c7d565b60405161034e91906112c9565b60405180910390f35b34801561036357600080fd5b5061036c610c94565b6040516103799190611444565b60405180910390f35b34801561038e57600080fd5b506103a960048036038101906103a49190611257565b610cb8565b6040516103b69190611293565b60405180910390f35b6103d960048036038101906103d49190611257565b610d36565b005b3480156103e757600080fd5b506103f0610e5d565b6040516103fd9190611293565b60405180910390f35b34801561041257600080fd5b5061041b610e63565b6040516104289190611293565b60405180910390f35b34801561043d57600080fd5b50610446610e69565b6040516104539190611293565b60405180910390f35b34801561046857600080fd5b50610483600480360381019061047e9190611257565b610e6f565b6040516104919291906113be565b60405180910390f35b3480156104a657600080fd5b506104af610efc565b6040516104bc9190611293565b60405180910390f35b3480156104d157600080fd5b506104ec60048036038101906104e7919061137e565b610f02565b005b6000600560009054906101000a900460ff1661050957600080fd5b6000823073ffffffffffffffffffffffffffffffffffffffff163161052e919061148e565b90506105386110d3565b60006003548260065461054b91906114f1565b610555919061148e565b9050600061056282611131565b8261056d9190611522565b9050809350505050919050565b600560009054906101000a900460ff1681565b600160009054906101000a900473ffffffffffffffffffffffffffffffffffffffff1681565b6000600560009054906101000a900460ff166105ce57600080fd5b600354670de0b6b3a76400003073ffffffffffffffffffffffffffffffffffffffff16316105fc9190611578565b61060691906114f1565b600c81905550600c548261061a9190611578565b9050919050565b6000341161062e57600080fd5b3373ffffffffffffffffffffffffffffffffffffffff163134111561065257600080fd5b61065b82611131565b6004819055503073ffffffffffffffffffffffffffffffffffffffff166108fc349081150290604051600060405180830381858888f193505050501580156106a7573d6000803e3d6000fd5b5060008054906101000a900473ffffffffffffffffffffffffffffffffffffffff1673ffffffffffffffffffffffffffffffffffffffff1663a9059cbb33836040518363ffffffff1660e01b81526004016107039291906115d2565b6020604051808303816000875af1158015610722573d6000803e3d6000fd5b505050506040513d601f19601f820116820180604052508101906107469190611627565b508060036000828254610759919061148e565b925050819055505050565b6000600560009054906101000a900460ff1661077f57600080fd5b3073ffffffffffffffffffffffffffffffffffffffff1631670de0b6b3a76400006003546107ad9190611578565b6107b791906114f1565b600b81905550600b54826107cb9190611578565b9050919050565b600080600560009054906101000a900460ff166107ee57600080fd5b6000836003546107fe919061148e565b90506108086110d3565b60003073ffffffffffffffffffffffffffffffffffffffff16318260065461083091906114f1565b61083a919061148e565b905061084585611191565b60098190555080600954935093505050915091565b600260009054906101000a900473ffffffffffffffffffffffffffffffffffffffff1673ffffffffffffffffffffffffffffffffffffffff163373ffffffffffffffffffffffffffffffffffffffff16146108ea576040517f08c379a00000000000000000000000000000000000000000000000000000000081526004016108e1906116d7565b60405180910390fd5b60008054906101000a900473ffffffffffffffffffffffffffffffffffffffff1673ffffffffffffffffffffffffffffffffffffffff166323b872dd3330846040518463ffffffff1660e01b815260040161094793929190611718565b6020604051808303816000875af1158015610966573d6000803e3d6000fd5b505050506040513d601f19601f8201168201806040525081019061098a9190611627565b50806003600082825461099d9190611522565b925050819055506001600560006101000a81548160ff021916908315150217905550600160009054906101000a900473ffffffffffffffffffffffffffffffffffffffff1673ffffffffffffffffffffffffffffffffffffffff16635165da303334846040518463ffffffff1660e01b8152600401610a1e9392919061174f565b600060405180830381600087803b158015610a3857600080fd5b505af1158015610a4c573d6000803e3d6000fd5b5050505050565b600260009054906101000a900473ffffffffffffffffffffffffffffffffffffffff1681565b60003073ffffffffffffffffffffffffffffffffffffffff1631905090565b600060648383610aa89190611578565b610ab291906114f1565b905060008054906101000a900473ffffffffffffffffffffffffffffffffffffffff1673ffffffffffffffffffffffffffffffffffffffff1663a9059cbb33836040518363ffffffff1660e01b8152600401610b0f929190611786565b6020604051808303816000875af1158015610b2e573d6000803e3d6000fd5b505050506040513d601f19601f82011682018060405250810190610b529190611627565b508060036000828254610b65919061148e565b9250508190555060006064843073ffffffffffffffffffffffffffffffffffffffff1631610b939190611578565b610b9d91906114f1565b90503373ffffffffffffffffffffffffffffffffffffffff166108fc829081150290604051600060405180830381858888f19350505050158015610be5573d6000803e3d6000fd5b50600160009054906101000a900473ffffffffffffffffffffffffffffffffffffffff1673ffffffffffffffffffffffffffffffffffffffff166347ec5eb23383856040518463ffffffff1660e01b8152600401610c459392919061174f565b600060405180830381600087803b158015610c5f57600080fd5b505af1158015610c73573d6000803e3d6000fd5b5050505050505050565b6000600560009054906101000a900460ff16905090565b60008054906101000a900473ffffffffffffffffffffffffffffffffffffffff1681565b6000600560009054906101000a900460ff16610cd357600080fd5b6000610cde83611191565b600354610ceb9190611522565b9050610cf56110d3565b80600654610d0391906114f1565b3073ffffffffffffffffffffffffffffffffffffffff1631610d25919061148e565b600881905550600854915050919050565b3073ffffffffffffffffffffffffffffffffffffffff166108fc349081150290604051600060405180830381858888f19350505050158015610d7c573d6000803e3d6000fd5b5060008054906101000a900473ffffffffffffffffffffffffffffffffffffffff1673ffffffffffffffffffffffffffffffffffffffff166323b872dd3330846040518463ffffffff1660e01b8152600401610dda939291906117af565b6020604051808303816000875af1158015610df9573d6000803e3d6000fd5b505050506040513d601f19601f82011682018060405250810190610e1d9190611627565b508060036000828254610e309190611522565b925050819055506001600a60006101000a81548160ff021916908315150217905550610e5a6110d3565b50565b60035481565b600c5481565b600b5481565b600080600560009054906101000a900460ff16610e8b57600080fd5b6000833073ffffffffffffffffffffffffffffffffffffffff1631610eb09190611522565b9050610eba6110d3565b80600654610ec891906114f1565b600354610ed5919061148e565b600781905550610ee6600754611191565b6009819055506007546009549250925050915091565b60095481565b8160008111610f1057600080fd5b60008054906101000a900473ffffffffffffffffffffffffffffffffffffffff1673ffffffffffffffffffffffffffffffffffffffff166370a08231336040518263ffffffff1660e01b8152600401610f699190611408565b602060405180830381865afa158015610f86573d6000803e3d6000fd5b505050506040513d601f19601f82011682018060405250810190610faa91906117fb565b811115610fb657600080fd5b610fbf83611131565b60048190555060008054906101000a900473ffffffffffffffffffffffffffffffffffffffff1673ffffffffffffffffffffffffffffffffffffffff166323b872dd3330866040518463ffffffff1660e01b8152600401611022939291906117af565b6020604051808303816000875af1158015611041573d6000803e3d6000fd5b505050506040513d601f19601f820116820180604052508101906110659190611627565b503373ffffffffffffffffffffffffffffffffffffffff166108fc839081150290604051600060405180830381858888f193505050501580156110ac573d6000803e3d6000fd5b506110b683611191565b600360008282546110c79190611522565b92505081905550505050565b600a60009054906101000a900460ff161561112f576003543073ffffffffffffffffffffffffffffffffffffffff163161110d9190611578565b6006819055506000600a60006101000a81548160ff0219169083151502179055505b565b60007f00000000000000000000000000000000000000000000000000000000000000007f0000000000000000000000000000000000000000000000000000000000000000836111809190611578565b61118a91906114f1565b9050919050565b60007f00000000000000000000000000000000000000000000000000000000000000007f00000000000000000000000000000000000000000000000000000000000000007f0000000000000000000000000000000000000000000000000000000000000000611200919061148e565b8361120b9190611578565b61121591906114f1565b9050919050565b600080fd5b6000819050919050565b61123481611221565b811461123f57600080fd5b50565b6000813590506112518161122b565b92915050565b60006020828403121561126d5761126c61121c565b5b600061127b84828501611242565b91505092915050565b61128d81611221565b82525050565b60006020820190506112a86000830184611284565b92915050565b60008115159050919050565b6112c3816112ae565b82525050565b60006020820190506112de60008301846112ba565b92915050565b600073ffffffffffffffffffffffffffffffffffffffff82169050919050565b6000819050919050565b600061132961132461131f846112e4565b611304565b6112e4565b9050919050565b600061133b8261130e565b9050919050565b600061134d82611330565b9050919050565b61135d81611342565b82525050565b60006020820190506113786000830184611354565b92915050565b600080604083850312156113955761139461121c565b5b60006113a385828601611242565b92505060206113b485828601611242565b9150509250929050565b60006040820190506113d36000830185611284565b6113e06020830184611284565b9392505050565b60006113f2826112e4565b9050919050565b611402816113e7565b82525050565b600060208201905061141d60008301846113f9565b92915050565b600061142e82611330565b9050919050565b61143e81611423565b82525050565b60006020820190506114596000830184611435565b92915050565b7f4e487b7100000000000000000000000000000000000000000000000000000000600052601160045260246000fd5b600061149982611221565b91506114a483611221565b9250828210156114b7576114b661145f565b5b828203905092915050565b7f4e487b7100000000000000000000000000000000000000000000000000000000600052601260045260246000fd5b60006114fc82611221565b915061150783611221565b925082611517576115166114c2565b5b828204905092915050565b600061152d82611221565b915061153883611221565b9250827fffffffffffffffffffffffffffffffffffffffffffffffffffffffffffffffff0382111561156d5761156c61145f565b5b828201905092915050565b600061158382611221565b915061158e83611221565b9250817fffffffffffffffffffffffffffffffffffffffffffffffffffffffffffffffff04831182151516156115c7576115c661145f565b5b828202905092915050565b60006040820190506115e760008301856113f9565b6115f46020830184611284565b9392505050565b611604816112ae565b811461160f57600080fd5b50565b600081519050611621816115fb565b92915050565b60006020828403121561163d5761163c61121c565b5b600061164b84828501611612565b91505092915050565b600082825260208201905092915050565b7f4f6e6c79206f776e657220697320616c6c6f77656420666f722074686973206160008201527f6374696f6e2e0000000000000000000000000000000000000000000000000000602082015250565b60006116c1602683611654565b91506116cc82611665565b604082019050919050565b600060208201905081810360008301526116f0816116b4565b9050919050565b600061170282611330565b9050919050565b611712816116f7565b82525050565b600060608201905061172d60008301866113f9565b61173a6020830185611709565b6117476040830184611284565b949350505050565b600060608201905061176460008301866113f9565b6117716020830185611284565b61177e6040830184611284565b949350505050565b600060408201905061179b6000830185611709565b6117a86020830184611284565b9392505050565b60006060820190506117c460008301866113f9565b6117d160208301856113f9565b6117de6040830184611284565b949350505050565b6000815190506117f58161122b565b92915050565b6000602082840312156118115761181061121c565b5b600061181f848285016117e6565b9150509291505056fea2646970667358221220e466000edda38f99d85d2b827a26582265367db5036bbc82b4456ef7cd82b45264736f6c634300080d0033",
  "immutableReferences": {
    "940": [
      {
        "length": 32,
        "start": 4438
      },
      {
        "length": 32,
        "start": 4534
      }
    ],
    "943": [
      {
        "length": 32,
        "start": 4405
      },
      {
        "length": 32,
        "start": 4501
      },
      {
        "length": 32,
        "start": 4567
      }
    ]
  },
  "source": "// SPDX-License-Identifier: MIT\r\npragma solidity >=0.5.0 <0.9.0;\r\n\r\nimport \"./SbToken.sol\";\r\nimport \"./LpToken.sol\";\r\n\r\ncontract pool {\r\n    SbToken public sbt;\r\n    LpToken public lp;\r\n    uint256 private immutable feesRate = 3;\r\n    uint256 private immutable feesDecimal = 1000;\r\n    //uint public ethBalance;\r\n    address public owner;\r\n    uint256 public sbtBalance = 0; //sbt available to use & calculate\r\n    uint256 private sbtReserved = 0; //sbt reserved for liquidity provider reward\r\n    bool public isRunning = false;\r\n\r\n    uint256 k;\r\n    uint256 estimateTokenSb;\r\n    uint256 estimateTokenEth;\r\n    uint256 public sbtGet = 0;\r\n    bool oneTime = true;\r\n\r\n    //addDeposit variable\r\n    uint public sbtRatio;\r\n    uint public ethRatio;\r\n\r\n    event PoolInitialised(\r\n        address account,\r\n        address token,\r\n        uint256 amountSbt,\r\n        uint256 amountEth\r\n    );\r\n\r\n    // Function to receive Ether. msg.data must be empty\r\n    receive() external payable {}\r\n\r\n    // Fallback function is called when msg.data is not empty\r\n    fallback() external payable {}\r\n\r\n    modifier onlyOwner() {\r\n        require(msg.sender == owner, \"Only owner is allowed for this action.\");\r\n        _;\r\n    }\r\n\r\n    modifier checkPool() {\r\n        require(isRunning);\r\n        _;\r\n    }\r\n\r\n    modifier checkBalance() {\r\n        require(msg.value > 0);\r\n        require(msg.value <= msg.sender.balance);\r\n        _;\r\n    }\r\n\r\n    modifier checkBalance2(uint256 amountSbt) {\r\n        require(amountSbt > 0);\r\n        require(amountSbt <= sbt.balanceOf(msg.sender));\r\n        _;\r\n    }\r\n\r\n    constructor(SbToken _sbToken, LpToken _lpToken) {\r\n        sbt = _sbToken;\r\n        lp = _lpToken;\r\n        owner = msg.sender;\r\n    }\r\n\r\n    function settingUp(uint256 sbtSupply) public payable onlyOwner {\r\n        sbt.transferFrom(msg.sender, payable(this), sbtSupply);\r\n        //payable(address(this)).transfer(msg.value);\r\n\r\n        //require(msg.sender == owner, \"Only owner can deploy the pool.\");\r\n        sbtBalance += sbtSupply;\r\n        isRunning = true;\r\n\r\n        //emit PoolInitialised(msg.sender, address(sbt), sbtSupply, msg.value);\r\n\r\n        lp.create(msg.sender, msg.value, sbtSupply);\r\n    }\r\n\r\n    //get the 99.7% of sbt (used for swap)\r\n    function getActualSbt(uint256 fullSbt) internal pure returns (uint256) {\r\n        return (fullSbt * (feesDecimal - feesRate)) / feesDecimal;\r\n    }\r\n\r\n    //get the 0.3% fees of sbt (swap)(if giving eth, convert reserved eth to sbt)\r\n    function getReservedSbt(uint256 fullSbt) internal pure returns (uint256) {\r\n        return (fullSbt * feesRate) / feesDecimal;\r\n    }\r\n\r\n    function getBalanceEth() public view returns (uint256) {\r\n        return address(this).balance;\r\n    }\r\n\r\n    //withdraw\r\n    function withdrawLiquity(uint256 percent, uint256 ownSBT) external payable {\r\n        // require(msg.sender == owner, \"Only owner can withdraw funds\");\r\n        // require(amount <= balance[destAddr], \"Insufficient funds\");\r\n\r\n        uint256 sbtWithdraw = (ownSBT * percent) / 100;\r\n        //SBT\r\n        sbt.transfer(payable(msg.sender), sbtWithdraw);\r\n        sbtBalance -= sbtWithdraw;\r\n        //ETH\r\n        uint256 withdrawETH = (address(this).balance * percent) / 100;\r\n        payable(msg.sender).transfer(withdrawETH);\r\n\r\n        lp.minus(msg.sender, withdrawETH, sbtWithdraw);\r\n    }\r\n\r\n    function isPoolRunning() public view returns (bool) {\r\n        return isRunning;\r\n    }\r\n\r\n    //swap\r\n    function calculateConstant() internal {\r\n        if (oneTime) {\r\n            k = address(this).balance * sbtBalance;\r\n            oneTime = false;\r\n        }\r\n    }\r\n\r\n    function getSwapTokenSbEstimate(uint256 _amountTokenEth)\r\n        public\r\n        checkPool\r\n        returns (uint256, uint256)\r\n    {\r\n        uint256 tokenEthAfter = address(this).balance + _amountTokenEth;\r\n        calculateConstant();\r\n        estimateTokenSb = sbtBalance - (k / tokenEthAfter);\r\n        sbtGet = getActualSbt(estimateTokenSb);\r\n        return (estimateTokenSb, sbtGet);\r\n    }\r\n\r\n    function getSwapTokenEthEstimate(uint256 _amountTokenSb)\r\n        public\r\n        checkPool\r\n        returns (uint256)\r\n    {\r\n        uint256 tokenSbAfter = sbtBalance + getActualSbt(_amountTokenSb);\r\n        calculateConstant();\r\n        estimateTokenEth = address(this).balance - (k / tokenSbAfter);\r\n        return (estimateTokenEth);\r\n    }\r\n\r\n    function getEthNeed(uint256 _amountSbt)\r\n        public\r\n        checkPool\r\n        returns (uint256, uint256)\r\n    {\r\n        uint256 tokenSbtAfter = sbtBalance - _amountSbt;\r\n        calculateConstant();\r\n        uint256 ethNeed = (k / tokenSbtAfter) - address(this).balance;\r\n        sbtGet = getActualSbt(_amountSbt);\r\n        return (ethNeed, sbtGet);\r\n    }\r\n\r\n    function getSbtNeed(uint256 _amountEth) public checkPool returns (uint256) {\r\n        uint256 tokenEthAfter = address(this).balance - _amountEth;\r\n        calculateConstant();\r\n        uint256 sbtNeed = (k / tokenEthAfter) - sbtBalance;\r\n        uint256 actual = sbtNeed + getReservedSbt(sbtNeed);\r\n        return (actual);\r\n    }\r\n\r\n    function tokenEthSwapTokenSb(uint256 amountSbt, uint256 getAmount)\r\n        external\r\n        payable\r\n        checkBalance\r\n    {\r\n        sbtReserved = getReservedSbt(amountSbt);\r\n        payable(address(this)).transfer(msg.value);\r\n        sbt.transfer(msg.sender, getAmount);\r\n        sbtBalance -= getAmount;\r\n    }\r\n\r\n    function tokenSbSwapTokenEth(uint256 amountSbt, uint256 amountEth)\r\n        public\r\n        checkBalance2(amountSbt)\r\n    {\r\n        sbtReserved = getReservedSbt(amountSbt);\r\n        sbt.transferFrom(msg.sender, address(this), amountSbt);\r\n        payable(msg.sender).transfer(amountEth);\r\n        sbtBalance += getActualSbt(amountSbt);\r\n    }\r\n\r\n    //addDeposit\r\n    function calSBT(uint ethAmount) public checkPool returns(uint returnSBT){\r\n        sbtRatio = ((sbtBalance)*10**18/(address(this).balance));\r\n        return ethAmount * sbtRatio;\r\n    }\r\n\r\n    function calETH(uint sbtAmount) public checkPool returns(uint returnETH){\r\n        ethRatio = ((address(this).balance) *10**18 /sbtBalance);\r\n        return sbtAmount * ethRatio;\r\n    }\r\n\r\n    function deposit(uint sbtDeposit) external payable{\r\n        payable(address(this)).transfer(msg.value);\r\n        sbt.transferFrom(msg.sender, address(this), sbtDeposit);\r\n        sbtBalance += sbtDeposit;\r\n        oneTime = true;\r\n        calculateConstant();\r\n    }\r\n  \r\n    \r\n}\r\n",
  "sourcePath": "C:\\Users\\HP\\OneDrive\\Desktop\\BlockChainAss\\blockchain\\contracts\\pool.sol",
  "compiler": {
    "name": "solc",
    "version": "0.8.13+commit.abaa5c0e.Emscripten.clang"
  },
  "schemaVersion": "3.4.5",
  "updatedAt": "2022-04-10T09:54:17.087Z",
  "networkType": "ethereum",
  "devdoc": {
    "kind": "dev",
    "methods": {},
    "version": 1
  },
  "userdoc": {
    "kind": "user",
    "methods": {},
    "version": 1
  }
}