{
  "contractName": "pool",
  "abi": [
    {
      "inputs": [
        {
          "internalType": "contract SbToken",
          "name": "_sbToken",
          "type": "address"
        }
      ],
      "stateMutability": "nonpayable",
      "type": "constructor"
    },
    {
      "anonymous": false,
      "inputs": [
        {
          "indexed": false,
          "internalType": "address",
          "name": "account",
          "type": "address"
        },
        {
          "indexed": false,
          "internalType": "address",
          "name": "token",
          "type": "address"
        },
        {
          "indexed": false,
          "internalType": "uint256",
          "name": "amountSbt",
          "type": "uint256"
        },
        {
          "indexed": false,
          "internalType": "uint256",
          "name": "amountEth",
          "type": "uint256"
        }
      ],
      "name": "PoolInitialised",
      "type": "event"
    },
    {
      "stateMutability": "payable",
      "type": "fallback",
      "payable": true
    },
    {
      "inputs": [],
      "name": "isRunning",
      "outputs": [
        {
          "internalType": "bool",
          "name": "",
          "type": "bool"
        }
      ],
      "stateMutability": "view",
      "type": "function",
      "constant": true
    },
    {
      "inputs": [],
      "name": "owner",
      "outputs": [
        {
          "internalType": "address",
          "name": "",
          "type": "address"
        }
      ],
      "stateMutability": "view",
      "type": "function",
      "constant": true
    },
    {
      "inputs": [],
      "name": "sbt",
      "outputs": [
        {
          "internalType": "contract SbToken",
          "name": "",
          "type": "address"
        }
      ],
      "stateMutability": "view",
      "type": "function",
      "constant": true
    },
    {
      "inputs": [],
      "name": "sbtBalance",
      "outputs": [
        {
          "internalType": "uint256",
          "name": "",
          "type": "uint256"
        }
      ],
      "stateMutability": "view",
      "type": "function",
      "constant": true
    },
    {
      "stateMutability": "payable",
      "type": "receive",
      "payable": true
    },
    {
      "inputs": [
        {
          "internalType": "uint256",
          "name": "sbtSupply",
          "type": "uint256"
        }
      ],
      "name": "settingUp",
      "outputs": [],
      "stateMutability": "payable",
      "type": "function",
      "payable": true
    },
    {
      "inputs": [],
      "name": "getBalanceEth",
      "outputs": [
        {
          "internalType": "uint256",
          "name": "",
          "type": "uint256"
        }
      ],
      "stateMutability": "view",
      "type": "function",
      "constant": true
    },
    {
      "inputs": [],
      "name": "withdrawLiquity",
      "outputs": [],
      "stateMutability": "payable",
      "type": "function",
      "payable": true
    }
  ],
  "bytecode": "0x60c060405260036080908152506103e860a090815250600060025560006003556000600460006101000a81548160ff02191690831515021790555034801561004657600080fd5b50604051610bd3380380610bd383398181016040528101906100689190610164565b806000806101000a81548173ffffffffffffffffffffffffffffffffffffffff021916908373ffffffffffffffffffffffffffffffffffffffff16021790555033600160006101000a81548173ffffffffffffffffffffffffffffffffffffffff021916908373ffffffffffffffffffffffffffffffffffffffff16021790555050610191565b600080fd5b600073ffffffffffffffffffffffffffffffffffffffff82169050919050565b600061011f826100f4565b9050919050565b600061013182610114565b9050919050565b61014181610126565b811461014c57600080fd5b50565b60008151905061015e81610138565b92915050565b60006020828403121561017a576101796100ef565b5b60006101888482850161014f565b91505092915050565b60805160a051610a236101b06000396000505060005050610a236000f3fe6080604052600436106100745760003560e01c806392aa06a71161004e57806392aa06a7146100ef5780639caf34c4146100f9578063b1324f7b14610124578063bb4632bc1461014f5761007b565b80632014e5d11461007d5780638d776b1a146100a85780638da5cb5b146100c45761007b565b3661007b57005b005b34801561008957600080fd5b5061009261017a565b60405161009f919061058d565b60405180910390f35b6100c260048036038101906100bd91906105e3565b61018d565b005b3480156100d057600080fd5b506100d96102f5565b6040516100e69190610651565b60405180910390f35b6100f761031b565b005b34801561010557600080fd5b5061010e610529565b60405161011b919061067b565b60405180910390f35b34801561013057600080fd5b50610139610548565b60405161014691906106f5565b60405180910390f35b34801561015b57600080fd5b5061016461056c565b604051610171919061067b565b60405180910390f35b600460009054906101000a900460ff1681565b600160009054906101000a900473ffffffffffffffffffffffffffffffffffffffff1673ffffffffffffffffffffffffffffffffffffffff163373ffffffffffffffffffffffffffffffffffffffff161461021d576040517f08c379a000000000000000000000000000000000000000000000000000000000815260040161021490610793565b60405180910390fd5b60008054906101000a900473ffffffffffffffffffffffffffffffffffffffff1673ffffffffffffffffffffffffffffffffffffffff166323b872dd3330846040518463ffffffff1660e01b815260040161027a939291906107d4565b6020604051808303816000875af1158015610299573d6000803e3d6000fd5b505050506040513d601f19601f820116820180604052508101906102bd9190610837565b5080600260008282546102d09190610893565b925050819055506001600460006101000a81548160ff02191690831515021790555050565b600160009054906101000a900473ffffffffffffffffffffffffffffffffffffffff1681565b6000341161032857600080fd5b3373ffffffffffffffffffffffffffffffffffffffff163134111561034c57600080fd5b600160009054906101000a900473ffffffffffffffffffffffffffffffffffffffff1673ffffffffffffffffffffffffffffffffffffffff163373ffffffffffffffffffffffffffffffffffffffff16146103dc576040517f08c379a00000000000000000000000000000000000000000000000000000000081526004016103d390610935565b60405180910390fd5b3073ffffffffffffffffffffffffffffffffffffffff166108fc349081150290604051600060405180830381858888f19350505050158015610422573d6000803e3d6000fd5b5060008054906101000a900473ffffffffffffffffffffffffffffffffffffffff1673ffffffffffffffffffffffffffffffffffffffff1663a9059cbb336103e86040518363ffffffff1660e01b8152600401610480929190610990565b6020604051808303816000875af115801561049f573d6000803e3d6000fd5b505050506040513d601f19601f820116820180604052508101906104c39190610837565b506103e8600260008282546104d891906109b9565b925050819055503373ffffffffffffffffffffffffffffffffffffffff166108fc60329081150290604051600060405180830381858888f19350505050158015610526573d6000803e3d6000fd5b50565b60003073ffffffffffffffffffffffffffffffffffffffff1631905090565b60008054906101000a900473ffffffffffffffffffffffffffffffffffffffff1681565b60025481565b60008115159050919050565b61058781610572565b82525050565b60006020820190506105a2600083018461057e565b92915050565b600080fd5b6000819050919050565b6105c0816105ad565b81146105cb57600080fd5b50565b6000813590506105dd816105b7565b92915050565b6000602082840312156105f9576105f86105a8565b5b6000610607848285016105ce565b91505092915050565b600073ffffffffffffffffffffffffffffffffffffffff82169050919050565b600061063b82610610565b9050919050565b61064b81610630565b82525050565b60006020820190506106666000830184610642565b92915050565b610675816105ad565b82525050565b6000602082019050610690600083018461066c565b92915050565b6000819050919050565b60006106bb6106b66106b184610610565b610696565b610610565b9050919050565b60006106cd826106a0565b9050919050565b60006106df826106c2565b9050919050565b6106ef816106d4565b82525050565b600060208201905061070a60008301846106e6565b92915050565b600082825260208201905092915050565b7f4f6e6c79206f776e657220697320616c6c6f77656420666f722074686973206160008201527f6374696f6e2e0000000000000000000000000000000000000000000000000000602082015250565b600061077d602683610710565b915061078882610721565b604082019050919050565b600060208201905081810360008301526107ac81610770565b9050919050565b60006107be826106c2565b9050919050565b6107ce816107b3565b82525050565b60006060820190506107e96000830186610642565b6107f660208301856107c5565b610803604083018461066c565b949350505050565b61081481610572565b811461081f57600080fd5b50565b6000815190506108318161080b565b92915050565b60006020828403121561084d5761084c6105a8565b5b600061085b84828501610822565b91505092915050565b7f4e487b7100000000000000000000000000000000000000000000000000000000600052601160045260246000fd5b600061089e826105ad565b91506108a9836105ad565b9250827fffffffffffffffffffffffffffffffffffffffffffffffffffffffffffffffff038211156108de576108dd610864565b5b828201905092915050565b7f4f6e6c79206f776e65722063616e2077697468647261772066756e6473000000600082015250565b600061091f601d83610710565b915061092a826108e9565b602082019050919050565b6000602082019050818103600083015261094e81610912565b9050919050565b6000819050919050565b600061097a61097561097084610955565b610696565b6105ad565b9050919050565b61098a8161095f565b82525050565b60006040820190506109a56000830185610642565b6109b26020830184610981565b9392505050565b60006109c4826105ad565b91506109cf836105ad565b9250828210156109e2576109e1610864565b5b82820390509291505056fea26469706673582212201c0377475158fb18dd9723620f64bd169fd3ad8b19c69315f8082de4b0e0681464736f6c634300080d0033",
  "immutableReferences": {},
  "source": "// SPDX-License-Identifier: MIT\r\npragma solidity >=0.5.0 <0.9.0;\r\n\r\nimport \"./SbToken.sol\";\r\nimport \"./LpToken.sol\";\r\n\r\ncontract pool {\r\n    SbToken public sbt;\r\n    uint256 private immutable feesRate = 3;\r\n    uint256 private immutable feesDecimal = 1000;\r\n    //uint public ethBalance;\r\n    address public owner;\r\n    uint256 public sbtBalance = 0; //sbt available to use & calculate\r\n    uint256 private sbtReserved = 0; //sbt reserved for liquidity provider reward\r\n    bool public isRunning = false;\r\n\r\n    event PoolInitialised(\r\n        address account,\r\n        address token,\r\n        uint256 amountSbt,\r\n        uint256 amountEth\r\n    );\r\n\r\n    // Function to receive Ether. msg.data must be empty\r\n    receive() external payable {}\r\n\r\n    // Fallback function is called when msg.data is not empty\r\n    fallback() external payable {}\r\n\r\n    modifier onlyOwner() {\r\n        require(msg.sender == owner, \"Only owner is allowed for this action.\");\r\n        _;\r\n    }\r\n\r\n    modifier checkBalance() {\r\n        require(msg.value > 0);\r\n        require(msg.value <= msg.sender.balance);\r\n        _;\r\n    }\r\n\r\n    constructor(SbToken _sbToken) {\r\n        sbt = _sbToken;\r\n        owner = msg.sender;\r\n    }\r\n\r\n    function settingUp(uint256 sbtSupply) public payable onlyOwner {\r\n        sbt.transferFrom(msg.sender, payable(this), sbtSupply);\r\n        //payable(address(this)).transfer(msg.value);\r\n\r\n        //require(msg.sender == owner, \"Only owner can deploy the pool.\");\r\n        sbtBalance += sbtSupply;\r\n        isRunning = true;\r\n\r\n        //emit PoolInitialised(msg.sender, address(sbt), sbtSupply, msg.value);\r\n    }\r\n\r\n    //get the 99.7% of sbt (used for swap)\r\n    function getActualSbt(uint256 fullSbt) internal pure returns (uint256) {\r\n        return (fullSbt * (feesDecimal - feesRate)) / feesDecimal;\r\n    }\r\n\r\n    //get the 0.3% fees of sbt (swap)(if giving eth, convert reserved eth to sbt)\r\n    function getReservedSbt(uint256 fullSbt) internal pure returns (uint256) {\r\n        return (fullSbt * feesRate) / feesDecimal;\r\n    }\r\n\r\n    function getBalanceEth() public view returns (uint256) {\r\n        return address(this).balance;\r\n    }\r\n\r\n    function withdrawLiquity() external payable checkBalance {\r\n        require(msg.sender == owner, \"Only owner can withdraw funds\");\r\n        // require(amount <= balance[destAddr], \"Insufficient funds\");\r\n\r\n        //SBT\r\n        payable(address(this)).transfer(msg.value);\r\n        sbt.transfer(msg.sender, 1000);\r\n        sbtBalance -= 1000;\r\n        //ETH\r\n        payable(msg.sender).transfer(50);\r\n    }\r\n}\r\n",
  "sourcePath": "C:\\Users\\mingh\\OneDrive\\Desktop\\SBT\\blockchain\\contracts\\pool.sol",
  "compiler": {
    "name": "solc",
    "version": "0.8.13+commit.abaa5c0e.Emscripten.clang"
  },
  "schemaVersion": "3.4.4",
  "updatedAt": "2022-04-09T04:13:18.598Z",
  "networkType": "ethereum",
  "devdoc": {
    "kind": "dev",
    "methods": {},
    "version": 1
  },
  "userdoc": {
    "kind": "user",
    "methods": {},
    "version": 1
  }
}