{
  "contractName": "pool",
  "abi": [
    {
      "inputs": [
        {
          "internalType": "contract SbToken",
          "name": "_sbToken",
          "type": "address"
        },
        {
          "internalType": "contract LpToken",
          "name": "_lpToken",
          "type": "address"
        }
      ],
      "stateMutability": "nonpayable",
      "type": "constructor"
    },
    {
      "anonymous": false,
      "inputs": [
        {
          "indexed": false,
          "internalType": "address",
          "name": "account",
          "type": "address"
        },
        {
          "indexed": false,
          "internalType": "address",
          "name": "token",
          "type": "address"
        },
        {
          "indexed": false,
          "internalType": "uint256",
          "name": "amountSbt",
          "type": "uint256"
        },
        {
          "indexed": false,
          "internalType": "uint256",
          "name": "amountEth",
          "type": "uint256"
        }
      ],
      "name": "PoolInitialised",
      "type": "event"
    },
    {
      "stateMutability": "payable",
      "type": "fallback",
      "payable": true
    },
    {
      "inputs": [],
      "name": "isRunning",
      "outputs": [
        {
          "internalType": "bool",
          "name": "",
          "type": "bool"
        }
      ],
      "stateMutability": "view",
      "type": "function",
      "constant": true
    },
    {
      "inputs": [],
      "name": "lp",
      "outputs": [
        {
          "internalType": "contract LpToken",
          "name": "",
          "type": "address"
        }
      ],
      "stateMutability": "view",
      "type": "function",
      "constant": true
    },
    {
      "inputs": [],
      "name": "owner",
      "outputs": [
        {
          "internalType": "address",
          "name": "",
          "type": "address"
        }
      ],
      "stateMutability": "view",
      "type": "function",
      "constant": true
    },
    {
      "inputs": [],
      "name": "sbt",
      "outputs": [
        {
          "internalType": "contract SbToken",
          "name": "",
          "type": "address"
        }
      ],
      "stateMutability": "view",
      "type": "function",
      "constant": true
    },
    {
      "inputs": [],
      "name": "sbtBalance",
      "outputs": [
        {
          "internalType": "uint256",
          "name": "",
          "type": "uint256"
        }
      ],
      "stateMutability": "view",
      "type": "function",
      "constant": true
    },
    {
      "inputs": [],
      "name": "sbtGet",
      "outputs": [
        {
          "internalType": "uint256",
          "name": "",
          "type": "uint256"
        }
      ],
      "stateMutability": "view",
      "type": "function",
      "constant": true
    },
    {
      "stateMutability": "payable",
      "type": "receive",
      "payable": true
    },
    {
      "inputs": [
        {
          "internalType": "uint256",
          "name": "sbtSupply",
          "type": "uint256"
        }
      ],
      "name": "settingUp",
      "outputs": [],
      "stateMutability": "payable",
      "type": "function",
      "payable": true
    },
    {
      "inputs": [],
      "name": "getBalanceEth",
      "outputs": [
        {
          "internalType": "uint256",
          "name": "",
          "type": "uint256"
        }
      ],
      "stateMutability": "view",
      "type": "function",
      "constant": true
    },
    {
      "inputs": [
        {
          "internalType": "uint256",
          "name": "percent",
          "type": "uint256"
        },
        {
          "internalType": "uint256",
          "name": "ownSBT",
          "type": "uint256"
        }
      ],
      "name": "withdrawLiquity",
      "outputs": [],
      "stateMutability": "payable",
      "type": "function",
      "payable": true
    },
    {
      "inputs": [],
      "name": "isPoolRunning",
      "outputs": [
        {
          "internalType": "bool",
          "name": "",
          "type": "bool"
        }
      ],
      "stateMutability": "view",
      "type": "function",
      "constant": true
    },
    {
      "inputs": [
        {
          "internalType": "uint256",
          "name": "_amountTokenEth",
          "type": "uint256"
        }
      ],
      "name": "getSwapTokenSbEstimate",
      "outputs": [
        {
          "internalType": "uint256",
          "name": "",
          "type": "uint256"
        },
        {
          "internalType": "uint256",
          "name": "",
          "type": "uint256"
        }
      ],
      "stateMutability": "nonpayable",
      "type": "function"
    },
    {
      "inputs": [
        {
          "internalType": "uint256",
          "name": "_amountTokenSb",
          "type": "uint256"
        }
      ],
      "name": "getSwapTokenEthEstimate",
      "outputs": [
        {
          "internalType": "uint256",
          "name": "",
          "type": "uint256"
        }
      ],
      "stateMutability": "nonpayable",
      "type": "function"
    },
    {
      "inputs": [
        {
          "internalType": "uint256",
          "name": "_amountSbt",
          "type": "uint256"
        }
      ],
      "name": "getEthNeed",
      "outputs": [
        {
          "internalType": "uint256",
          "name": "",
          "type": "uint256"
        },
        {
          "internalType": "uint256",
          "name": "",
          "type": "uint256"
        }
      ],
      "stateMutability": "nonpayable",
      "type": "function"
    },
    {
      "inputs": [
        {
          "internalType": "uint256",
          "name": "_amountEth",
          "type": "uint256"
        }
      ],
      "name": "getSbtNeed",
      "outputs": [
        {
          "internalType": "uint256",
          "name": "",
          "type": "uint256"
        }
      ],
      "stateMutability": "nonpayable",
      "type": "function"
    },
    {
      "inputs": [
        {
          "internalType": "uint256",
          "name": "amountSbt",
          "type": "uint256"
        },
        {
          "internalType": "uint256",
          "name": "getAmount",
          "type": "uint256"
        }
      ],
      "name": "tokenEthSwapTokenSb",
      "outputs": [],
      "stateMutability": "payable",
      "type": "function",
      "payable": true
    },
    {
      "inputs": [
        {
          "internalType": "uint256",
          "name": "amountSbt",
          "type": "uint256"
        },
        {
          "internalType": "uint256",
          "name": "amountEth",
          "type": "uint256"
        }
      ],
      "name": "tokenSbSwapTokenEth",
      "outputs": [],
      "stateMutability": "nonpayable",
      "type": "function"
    }
  ],
  "bytecode": "0x60c060405260036080908152506103e860a090815250600060035560006004556000600560006101000a81548160ff02191690831515021790555060006009556001600a60006101000a81548160ff0219169083151502179055503480156200006757600080fd5b50604051620017c8380380620017c883398181016040528101906200008d91906200021a565b816000806101000a81548173ffffffffffffffffffffffffffffffffffffffff021916908373ffffffffffffffffffffffffffffffffffffffff16021790555080600160006101000a81548173ffffffffffffffffffffffffffffffffffffffff021916908373ffffffffffffffffffffffffffffffffffffffff16021790555033600260006101000a81548173ffffffffffffffffffffffffffffffffffffffff021916908373ffffffffffffffffffffffffffffffffffffffff160217905550505062000261565b600080fd5b600073ffffffffffffffffffffffffffffffffffffffff82169050919050565b600062000189826200015c565b9050919050565b60006200019d826200017c565b9050919050565b620001af8162000190565b8114620001bb57600080fd5b50565b600081519050620001cf81620001a4565b92915050565b6000620001e2826200017c565b9050919050565b620001f481620001d5565b81146200020057600080fd5b50565b6000815190506200021481620001e9565b92915050565b6000806040838503121562000234576200023362000157565b5b60006200024485828601620001be565b9250506020620002578582860162000203565b9150509250929050565b60805160a05161152c6200029c60003960008181610e0301528181610e630152610ea5015260008181610e240152610e84015261152c6000f3fe6080604052600436106100f75760003560e01c8063a1014b8f1161008a578063bb4632bc11610059578063bb4632bc1461030e578063d64157fb14610339578063f183b10314610377578063f98e12ff146103a2576100fe565b8063a1014b8f1461025f578063a6c5c67c1461027b578063b1324f7b146102a6578063b29f5d3e146102d1576100fe565b806389177707116100c657806389177707146101af5780638d776b1a146101ed5780638da5cb5b146102095780639caf34c414610234576100fe565b80630d51f34c146101005780632014e5d11461013d578063313c06a014610168578063590aa56c14610193576100fe565b366100fe57005b005b34801561010c57600080fd5b5061012760048036038101906101229190610f25565b6103cb565b6040516101349190610f61565b60405180910390f35b34801561014957600080fd5b50610152610457565b60405161015f9190610f97565b60405180910390f35b34801561017457600080fd5b5061017d61046a565b60405161018a9190611031565b60405180910390f35b6101ad60048036038101906101a8919061104c565b610490565b005b3480156101bb57600080fd5b506101d660048036038101906101d19190610f25565b6105d3565b6040516101e492919061108c565b60405180910390f35b61020760048036038101906102029190610f25565b61065b565b005b34801561021557600080fd5b5061021e610854565b60405161022b91906110d6565b60405180910390f35b34801561024057600080fd5b5061024961087a565b6040516102569190610f61565b60405180910390f35b6102796004803603810190610274919061104c565b610899565b005b34801561028757600080fd5b50610290610a7e565b60405161029d9190610f97565b60405180910390f35b3480156102b257600080fd5b506102bb610a95565b6040516102c89190611112565b60405180910390f35b3480156102dd57600080fd5b506102f860048036038101906102f39190610f25565b610ab9565b6040516103059190610f61565b60405180910390f35b34801561031a57600080fd5b50610323610b37565b6040516103309190610f61565b60405180910390f35b34801561034557600080fd5b50610360600480360381019061035b9190610f25565b610b3d565b60405161036e92919061108c565b60405180910390f35b34801561038357600080fd5b5061038c610bca565b6040516103999190610f61565b60405180910390f35b3480156103ae57600080fd5b506103c960048036038101906103c4919061104c565b610bd0565b005b6000600560009054906101000a900460ff166103e657600080fd5b6000823073ffffffffffffffffffffffffffffffffffffffff163161040b919061115c565b9050610415610da1565b60006003548260065461042891906111bf565b610432919061115c565b9050600061043f82610dff565b8261044a91906111f0565b9050809350505050919050565b600560009054906101000a900460ff1681565b600160009054906101000a900473ffffffffffffffffffffffffffffffffffffffff1681565b6000341161049d57600080fd5b3373ffffffffffffffffffffffffffffffffffffffff16313411156104c157600080fd5b6104ca82610dff565b6004819055503073ffffffffffffffffffffffffffffffffffffffff166108fc349081150290604051600060405180830381858888f19350505050158015610516573d6000803e3d6000fd5b5060008054906101000a900473ffffffffffffffffffffffffffffffffffffffff1673ffffffffffffffffffffffffffffffffffffffff1663a9059cbb33836040518363ffffffff1660e01b8152600401610572929190611246565b6020604051808303816000875af1158015610591573d6000803e3d6000fd5b505050506040513d601f19601f820116820180604052508101906105b5919061129b565b5081600360008282546105c8919061115c565b925050819055505050565b600080600560009054906101000a900460ff166105ef57600080fd5b6000836003546105ff919061115c565b9050610609610da1565b60003073ffffffffffffffffffffffffffffffffffffffff16318260065461063191906111bf565b61063b919061115c565b905061064685610e5f565b60098190555080600954935093505050915091565b600260009054906101000a900473ffffffffffffffffffffffffffffffffffffffff1673ffffffffffffffffffffffffffffffffffffffff163373ffffffffffffffffffffffffffffffffffffffff16146106eb576040517f08c379a00000000000000000000000000000000000000000000000000000000081526004016106e29061134b565b60405180910390fd5b60008054906101000a900473ffffffffffffffffffffffffffffffffffffffff1673ffffffffffffffffffffffffffffffffffffffff166323b872dd3330846040518463ffffffff1660e01b81526004016107489392919061138c565b6020604051808303816000875af1158015610767573d6000803e3d6000fd5b505050506040513d601f19601f8201168201806040525081019061078b919061129b565b50806003600082825461079e91906111f0565b925050819055506001600560006101000a81548160ff021916908315150217905550600160009054906101000a900473ffffffffffffffffffffffffffffffffffffffff1673ffffffffffffffffffffffffffffffffffffffff16635165da303334846040518463ffffffff1660e01b815260040161081f939291906113c3565b600060405180830381600087803b15801561083957600080fd5b505af115801561084d573d6000803e3d6000fd5b5050505050565b600260009054906101000a900473ffffffffffffffffffffffffffffffffffffffff1681565b60003073ffffffffffffffffffffffffffffffffffffffff1631905090565b6000606483836108a991906113fa565b6108b391906111bf565b905060008054906101000a900473ffffffffffffffffffffffffffffffffffffffff1673ffffffffffffffffffffffffffffffffffffffff1663a9059cbb33836040518363ffffffff1660e01b8152600401610910929190611454565b6020604051808303816000875af115801561092f573d6000803e3d6000fd5b505050506040513d601f19601f82011682018060405250810190610953919061129b565b508060036000828254610966919061115c565b9250508190555060006064843073ffffffffffffffffffffffffffffffffffffffff163161099491906113fa565b61099e91906111bf565b90503373ffffffffffffffffffffffffffffffffffffffff166108fc829081150290604051600060405180830381858888f193505050501580156109e6573d6000803e3d6000fd5b50600160009054906101000a900473ffffffffffffffffffffffffffffffffffffffff1673ffffffffffffffffffffffffffffffffffffffff166347ec5eb23383856040518463ffffffff1660e01b8152600401610a46939291906113c3565b600060405180830381600087803b158015610a6057600080fd5b505af1158015610a74573d6000803e3d6000fd5b5050505050505050565b6000600560009054906101000a900460ff16905090565b60008054906101000a900473ffffffffffffffffffffffffffffffffffffffff1681565b6000600560009054906101000a900460ff16610ad457600080fd5b6000610adf83610e5f565b600354610aec91906111f0565b9050610af6610da1565b80600654610b0491906111bf565b3073ffffffffffffffffffffffffffffffffffffffff1631610b26919061115c565b600881905550600854915050919050565b60035481565b600080600560009054906101000a900460ff16610b5957600080fd5b6000833073ffffffffffffffffffffffffffffffffffffffff1631610b7e91906111f0565b9050610b88610da1565b80600654610b9691906111bf565b600354610ba3919061115c565b600781905550610bb4600754610e5f565b6009819055506007546009549250925050915091565b60095481565b8160008111610bde57600080fd5b60008054906101000a900473ffffffffffffffffffffffffffffffffffffffff1673ffffffffffffffffffffffffffffffffffffffff166370a08231336040518263ffffffff1660e01b8152600401610c3791906110d6565b602060405180830381865afa158015610c54573d6000803e3d6000fd5b505050506040513d601f19601f82011682018060405250810190610c789190611492565b811115610c8457600080fd5b610c8d83610dff565b60048190555060008054906101000a900473ffffffffffffffffffffffffffffffffffffffff1673ffffffffffffffffffffffffffffffffffffffff166323b872dd3330866040518463ffffffff1660e01b8152600401610cf0939291906114bf565b6020604051808303816000875af1158015610d0f573d6000803e3d6000fd5b505050506040513d601f19601f82011682018060405250810190610d33919061129b565b503373ffffffffffffffffffffffffffffffffffffffff166108fc839081150290604051600060405180830381858888f19350505050158015610d7a573d6000803e3d6000fd5b50610d8483610e5f565b60036000828254610d9591906111f0565b92505081905550505050565b600a60009054906101000a900460ff1615610dfd576003543073ffffffffffffffffffffffffffffffffffffffff1631610ddb91906113fa565b6006819055506000600a60006101000a81548160ff0219169083151502179055505b565b60007f00000000000000000000000000000000000000000000000000000000000000007f000000000000000000000000000000000000000000000000000000000000000083610e4e91906113fa565b610e5891906111bf565b9050919050565b60007f00000000000000000000000000000000000000000000000000000000000000007f00000000000000000000000000000000000000000000000000000000000000007f0000000000000000000000000000000000000000000000000000000000000000610ece919061115c565b83610ed991906113fa565b610ee391906111bf565b9050919050565b600080fd5b6000819050919050565b610f0281610eef565b8114610f0d57600080fd5b50565b600081359050610f1f81610ef9565b92915050565b600060208284031215610f3b57610f3a610eea565b5b6000610f4984828501610f10565b91505092915050565b610f5b81610eef565b82525050565b6000602082019050610f766000830184610f52565b92915050565b60008115159050919050565b610f9181610f7c565b82525050565b6000602082019050610fac6000830184610f88565b92915050565b600073ffffffffffffffffffffffffffffffffffffffff82169050919050565b6000819050919050565b6000610ff7610ff2610fed84610fb2565b610fd2565b610fb2565b9050919050565b600061100982610fdc565b9050919050565b600061101b82610ffe565b9050919050565b61102b81611010565b82525050565b60006020820190506110466000830184611022565b92915050565b6000806040838503121561106357611062610eea565b5b600061107185828601610f10565b925050602061108285828601610f10565b9150509250929050565b60006040820190506110a16000830185610f52565b6110ae6020830184610f52565b9392505050565b60006110c082610fb2565b9050919050565b6110d0816110b5565b82525050565b60006020820190506110eb60008301846110c7565b92915050565b60006110fc82610ffe565b9050919050565b61110c816110f1565b82525050565b60006020820190506111276000830184611103565b92915050565b7f4e487b7100000000000000000000000000000000000000000000000000000000600052601160045260246000fd5b600061116782610eef565b915061117283610eef565b9250828210156111855761118461112d565b5b828203905092915050565b7f4e487b7100000000000000000000000000000000000000000000000000000000600052601260045260246000fd5b60006111ca82610eef565b91506111d583610eef565b9250826111e5576111e4611190565b5b828204905092915050565b60006111fb82610eef565b915061120683610eef565b9250827fffffffffffffffffffffffffffffffffffffffffffffffffffffffffffffffff0382111561123b5761123a61112d565b5b828201905092915050565b600060408201905061125b60008301856110c7565b6112686020830184610f52565b9392505050565b61127881610f7c565b811461128357600080fd5b50565b6000815190506112958161126f565b92915050565b6000602082840312156112b1576112b0610eea565b5b60006112bf84828501611286565b91505092915050565b600082825260208201905092915050565b7f4f6e6c79206f776e657220697320616c6c6f77656420666f722074686973206160008201527f6374696f6e2e0000000000000000000000000000000000000000000000000000602082015250565b60006113356026836112c8565b9150611340826112d9565b604082019050919050565b6000602082019050818103600083015261136481611328565b9050919050565b600061137682610ffe565b9050919050565b6113868161136b565b82525050565b60006060820190506113a160008301866110c7565b6113ae602083018561137d565b6113bb6040830184610f52565b949350505050565b60006060820190506113d860008301866110c7565b6113e56020830185610f52565b6113f26040830184610f52565b949350505050565b600061140582610eef565b915061141083610eef565b9250817fffffffffffffffffffffffffffffffffffffffffffffffffffffffffffffffff04831182151516156114495761144861112d565b5b828202905092915050565b6000604082019050611469600083018561137d565b6114766020830184610f52565b9392505050565b60008151905061148c81610ef9565b92915050565b6000602082840312156114a8576114a7610eea565b5b60006114b68482850161147d565b91505092915050565b60006060820190506114d460008301866110c7565b6114e160208301856110c7565b6114ee6040830184610f52565b94935050505056fea2646970667358221220887b17a11334919cb3b90373399249fd8e386d0c304c968d76259646bbd7700764736f6c634300080d0033",
  "immutableReferences": {
    "940": [
      {
        "length": 32,
        "start": 3620
      },
      {
        "length": 32,
        "start": 3716
      }
    ],
    "943": [
      {
        "length": 32,
        "start": 3587
      },
      {
        "length": 32,
        "start": 3683
      },
      {
        "length": 32,
        "start": 3749
      }
    ]
  },
  "source": "// SPDX-License-Identifier: MIT\r\npragma solidity >=0.5.0 <0.9.0;\r\n\r\nimport \"./SbToken.sol\";\r\nimport \"./LpToken.sol\";\r\n\r\ncontract pool {\r\n    SbToken public sbt;\r\n    LpToken public lp;\r\n    uint256 private immutable feesRate = 3;\r\n    uint256 private immutable feesDecimal = 1000;\r\n    //uint public ethBalance;\r\n    address public owner;\r\n    uint256 public sbtBalance = 0; //sbt available to use & calculate\r\n    uint256 private sbtReserved = 0; //sbt reserved for liquidity provider reward\r\n    bool public isRunning = false;\r\n\r\n    uint256 k;\r\n    uint256 estimateTokenSb;\r\n    uint256 estimateTokenEth;\r\n    uint256 public sbtGet = 0;\r\n    bool oneTime = true;\r\n\r\n    event PoolInitialised(\r\n        address account,\r\n        address token,\r\n        uint256 amountSbt,\r\n        uint256 amountEth\r\n    );\r\n\r\n    // Function to receive Ether. msg.data must be empty\r\n    receive() external payable {}\r\n\r\n    // Fallback function is called when msg.data is not empty\r\n    fallback() external payable {}\r\n\r\n    modifier onlyOwner() {\r\n        require(msg.sender == owner, \"Only owner is allowed for this action.\");\r\n        _;\r\n    }\r\n\r\n    modifier checkPool() {\r\n        require(isRunning);\r\n        _;\r\n    }\r\n\r\n    modifier checkBalance() {\r\n        require(msg.value > 0);\r\n        require(msg.value <= msg.sender.balance);\r\n        _;\r\n    }\r\n\r\n    modifier checkBalance2(uint256 amountSbt) {\r\n        require(amountSbt > 0);\r\n        require(amountSbt <= sbt.balanceOf(msg.sender));\r\n        _;\r\n    }\r\n\r\n    constructor(SbToken _sbToken, LpToken _lpToken) {\r\n        sbt = _sbToken;\r\n        lp = _lpToken;\r\n        owner = msg.sender;\r\n    }\r\n\r\n    function settingUp(uint256 sbtSupply) public payable onlyOwner {\r\n        sbt.transferFrom(msg.sender, payable(this), sbtSupply);\r\n        //payable(address(this)).transfer(msg.value);\r\n\r\n        //require(msg.sender == owner, \"Only owner can deploy the pool.\");\r\n        sbtBalance += sbtSupply;\r\n        isRunning = true;\r\n\r\n        //emit PoolInitialised(msg.sender, address(sbt), sbtSupply, msg.value);\r\n\r\n        lp.create(msg.sender, msg.value, sbtSupply);\r\n    }\r\n\r\n    //get the 99.7% of sbt (used for swap)\r\n    function getActualSbt(uint256 fullSbt) internal pure returns (uint256) {\r\n        return (fullSbt * (feesDecimal - feesRate)) / feesDecimal;\r\n    }\r\n\r\n    //get the 0.3% fees of sbt (swap)(if giving eth, convert reserved eth to sbt)\r\n    function getReservedSbt(uint256 fullSbt) internal pure returns (uint256) {\r\n        return (fullSbt * feesRate) / feesDecimal;\r\n    }\r\n\r\n    function getBalanceEth() public view returns (uint256) {\r\n        return address(this).balance;\r\n    }\r\n\r\n    function withdrawLiquity(uint256 percent, uint256 ownSBT) external payable {\r\n        // require(msg.sender == owner, \"Only owner can withdraw funds\");\r\n        // require(amount <= balance[destAddr], \"Insufficient funds\");\r\n\r\n        uint256 sbtWithdraw = (ownSBT * percent) / 100;\r\n        //SBT\r\n        sbt.transfer(payable(msg.sender), sbtWithdraw);\r\n        sbtBalance -= sbtWithdraw;\r\n        //ETH\r\n        uint256 withdrawETH = (address(this).balance * percent) / 100;\r\n        payable(msg.sender).transfer(withdrawETH);\r\n\r\n        lp.minus(msg.sender, withdrawETH, sbtWithdraw);\r\n    }\r\n\r\n    function isPoolRunning() public view returns (bool) {\r\n        return isRunning;\r\n    }\r\n\r\n    //swap\r\n    function calculateConstant() internal {\r\n        if (oneTime) {\r\n            k = address(this).balance * sbtBalance;\r\n            oneTime = false;\r\n        }\r\n    }\r\n\r\n    function getSwapTokenSbEstimate(uint256 _amountTokenEth)\r\n        public\r\n        checkPool\r\n        returns (uint256, uint256)\r\n    {\r\n        uint256 tokenEthAfter = address(this).balance + _amountTokenEth;\r\n        calculateConstant();\r\n        estimateTokenSb = sbtBalance - (k / tokenEthAfter);\r\n        sbtGet = getActualSbt(estimateTokenSb);\r\n        return (estimateTokenSb, sbtGet);\r\n    }\r\n\r\n    function getSwapTokenEthEstimate(uint256 _amountTokenSb)\r\n        public\r\n        checkPool\r\n        returns (uint256)\r\n    {\r\n        uint256 tokenSbAfter = sbtBalance + getActualSbt(_amountTokenSb);\r\n        calculateConstant();\r\n        estimateTokenEth = address(this).balance - (k / tokenSbAfter);\r\n        return (estimateTokenEth);\r\n    }\r\n\r\n    function getEthNeed(uint256 _amountSbt)\r\n        public\r\n        checkPool\r\n        returns (uint256, uint256)\r\n    {\r\n        uint256 tokenSbtAfter = sbtBalance - _amountSbt;\r\n        calculateConstant();\r\n        uint256 ethNeed = (k / tokenSbtAfter) - address(this).balance;\r\n        sbtGet = getActualSbt(_amountSbt);\r\n        return (ethNeed, sbtGet);\r\n    }\r\n\r\n    function getSbtNeed(uint256 _amountEth) public checkPool returns (uint256) {\r\n        uint256 tokenEthAfter = address(this).balance - _amountEth;\r\n        calculateConstant();\r\n        uint256 sbtNeed = (k / tokenEthAfter) - sbtBalance;\r\n        uint256 actual = sbtNeed + getReservedSbt(sbtNeed);\r\n        return (actual);\r\n    }\r\n\r\n    function tokenEthSwapTokenSb(uint256 amountSbt, uint256 getAmount)\r\n        external\r\n        payable\r\n        checkBalance\r\n    {\r\n        sbtReserved = getReservedSbt(amountSbt);\r\n        payable(address(this)).transfer(msg.value);\r\n        sbt.transfer(msg.sender, getAmount);\r\n        sbtBalance -= amountSbt;\r\n    }\r\n\r\n    function tokenSbSwapTokenEth(uint256 amountSbt, uint256 amountEth)\r\n        public\r\n        checkBalance2(amountSbt)\r\n    {\r\n        sbtReserved = getReservedSbt(amountSbt);\r\n        sbt.transferFrom(msg.sender, address(this), amountSbt);\r\n        payable(msg.sender).transfer(amountEth);\r\n        sbtBalance += getActualSbt(amountSbt);\r\n    }\r\n}\r\n",
  "sourcePath": "C:\\Users\\mingh\\OneDrive\\Desktop\\SBT\\blockchain\\contracts\\pool.sol",
  "compiler": {
    "name": "solc",
    "version": "0.8.13+commit.abaa5c0e.Emscripten.clang"
  },
  "schemaVersion": "3.4.4",
  "updatedAt": "2022-04-09T16:36:52.546Z",
  "networkType": "ethereum",
  "devdoc": {
    "kind": "dev",
    "methods": {},
    "version": 1
  },
  "userdoc": {
    "kind": "user",
    "methods": {},
    "version": 1
  }
}