{
  "contractName": "pool",
  "abi": [
    {
      "inputs": [
        {
          "internalType": "contract SbToken",
          "name": "_sbToken",
          "type": "address"
        },
        {
          "internalType": "contract LpToken",
          "name": "_lpToken",
          "type": "address"
        }
      ],
      "stateMutability": "nonpayable",
      "type": "constructor"
    },
    {
      "anonymous": false,
      "inputs": [
        {
          "indexed": false,
          "internalType": "address",
          "name": "account",
          "type": "address"
        },
        {
          "indexed": false,
          "internalType": "address",
          "name": "token",
          "type": "address"
        },
        {
          "indexed": false,
          "internalType": "uint256",
          "name": "amountSbt",
          "type": "uint256"
        },
        {
          "indexed": false,
          "internalType": "uint256",
          "name": "amountEth",
          "type": "uint256"
        }
      ],
      "name": "PoolInitialised",
      "type": "event"
    },
    {
      "stateMutability": "payable",
      "type": "fallback"
    },
    {
      "inputs": [],
      "name": "ethRatio",
      "outputs": [
        {
          "internalType": "uint256",
          "name": "",
          "type": "uint256"
        }
      ],
      "stateMutability": "view",
      "type": "function"
    },
    {
      "inputs": [],
      "name": "isRunning",
      "outputs": [
        {
          "internalType": "bool",
          "name": "",
          "type": "bool"
        }
      ],
      "stateMutability": "view",
      "type": "function"
    },
    {
      "inputs": [],
      "name": "lp",
      "outputs": [
        {
          "internalType": "contract LpToken",
          "name": "",
          "type": "address"
        }
      ],
      "stateMutability": "view",
      "type": "function"
    },
    {
      "inputs": [],
      "name": "owner",
      "outputs": [
        {
          "internalType": "address",
          "name": "",
          "type": "address"
        }
      ],
      "stateMutability": "view",
      "type": "function"
    },
    {
      "inputs": [],
      "name": "sbt",
      "outputs": [
        {
          "internalType": "contract SbToken",
          "name": "",
          "type": "address"
        }
      ],
      "stateMutability": "view",
      "type": "function"
    },
    {
      "inputs": [],
      "name": "sbtBalance",
      "outputs": [
        {
          "internalType": "uint256",
          "name": "",
          "type": "uint256"
        }
      ],
      "stateMutability": "view",
      "type": "function"
    },
    {
      "inputs": [],
      "name": "sbtGet",
      "outputs": [
        {
          "internalType": "uint256",
          "name": "",
          "type": "uint256"
        }
      ],
      "stateMutability": "view",
      "type": "function"
    },
    {
      "inputs": [],
      "name": "sbtRatio",
      "outputs": [
        {
          "internalType": "uint256",
          "name": "",
          "type": "uint256"
        }
      ],
      "stateMutability": "view",
      "type": "function"
    },
    {
      "stateMutability": "payable",
      "type": "receive"
    },
    {
      "inputs": [
        {
          "internalType": "uint256",
          "name": "sbtSupply",
          "type": "uint256"
        }
      ],
      "name": "settingUp",
      "outputs": [],
      "stateMutability": "payable",
      "type": "function"
    },
    {
      "inputs": [],
      "name": "getBalanceEth",
      "outputs": [
        {
          "internalType": "uint256",
          "name": "",
          "type": "uint256"
        }
      ],
      "stateMutability": "view",
      "type": "function"
    },
    {
      "inputs": [],
      "name": "isPoolRunning",
      "outputs": [
        {
          "internalType": "bool",
          "name": "",
          "type": "bool"
        }
      ],
      "stateMutability": "view",
      "type": "function"
    },
    {
      "inputs": [
        {
          "internalType": "uint256",
          "name": "_amountTokenEth",
          "type": "uint256"
        }
      ],
      "name": "getSwapTokenSbEstimate",
      "outputs": [
        {
          "internalType": "uint256",
          "name": "",
          "type": "uint256"
        },
        {
          "internalType": "uint256",
          "name": "",
          "type": "uint256"
        }
      ],
      "stateMutability": "nonpayable",
      "type": "function"
    },
    {
      "inputs": [
        {
          "internalType": "uint256",
          "name": "_amountTokenSb",
          "type": "uint256"
        }
      ],
      "name": "getSwapTokenEthEstimate",
      "outputs": [
        {
          "internalType": "uint256",
          "name": "",
          "type": "uint256"
        }
      ],
      "stateMutability": "nonpayable",
      "type": "function"
    },
    {
      "inputs": [
        {
          "internalType": "uint256",
          "name": "_amountSbt",
          "type": "uint256"
        }
      ],
      "name": "getEthNeed",
      "outputs": [
        {
          "internalType": "uint256",
          "name": "",
          "type": "uint256"
        },
        {
          "internalType": "uint256",
          "name": "",
          "type": "uint256"
        }
      ],
      "stateMutability": "nonpayable",
      "type": "function"
    },
    {
      "inputs": [
        {
          "internalType": "uint256",
          "name": "_amountEth",
          "type": "uint256"
        }
      ],
      "name": "getSbtNeed",
      "outputs": [
        {
          "internalType": "uint256",
          "name": "",
          "type": "uint256"
        }
      ],
      "stateMutability": "nonpayable",
      "type": "function"
    },
    {
      "inputs": [
        {
          "internalType": "uint256",
          "name": "amountSbt",
          "type": "uint256"
        },
        {
          "internalType": "uint256",
          "name": "getAmount",
          "type": "uint256"
        }
      ],
      "name": "tokenEthSwapTokenSb",
      "outputs": [],
      "stateMutability": "payable",
      "type": "function"
    },
    {
      "inputs": [
        {
          "internalType": "uint256",
          "name": "amountSbt",
          "type": "uint256"
        },
        {
          "internalType": "uint256",
          "name": "amountEth",
          "type": "uint256"
        }
      ],
      "name": "tokenSbSwapTokenEth",
      "outputs": [],
      "stateMutability": "nonpayable",
      "type": "function"
    },
    {
      "inputs": [
        {
          "internalType": "uint256",
          "name": "ethAmount",
          "type": "uint256"
        }
      ],
      "name": "calSBT",
      "outputs": [
        {
          "internalType": "uint256",
          "name": "returnSBT",
          "type": "uint256"
        }
      ],
      "stateMutability": "nonpayable",
      "type": "function"
    },
    {
      "inputs": [
        {
          "internalType": "uint256",
          "name": "sbtAmount",
          "type": "uint256"
        }
      ],
      "name": "calETH",
      "outputs": [
        {
          "internalType": "uint256",
          "name": "returnETH",
          "type": "uint256"
        }
      ],
      "stateMutability": "nonpayable",
      "type": "function"
    },
    {
      "inputs": [
        {
          "internalType": "uint256",
          "name": "sbtDeposit",
          "type": "uint256"
        }
      ],
      "name": "deposit",
      "outputs": [],
      "stateMutability": "payable",
      "type": "function"
    }
  ],
  "bytecode": "0x60c060405260036080908152506103e860a090815250600060035560006004556000600560006101000a81548160ff02191690831515021790555060006009556001600a60006101000a81548160ff0219169083151502179055503480156200006757600080fd5b50604051620018313803806200183183398181016040528101906200008d91906200021a565b816000806101000a81548173ffffffffffffffffffffffffffffffffffffffff021916908373ffffffffffffffffffffffffffffffffffffffff16021790555080600160006101000a81548173ffffffffffffffffffffffffffffffffffffffff021916908373ffffffffffffffffffffffffffffffffffffffff16021790555033600260006101000a81548173ffffffffffffffffffffffffffffffffffffffff021916908373ffffffffffffffffffffffffffffffffffffffff160217905550505062000261565b600080fd5b600073ffffffffffffffffffffffffffffffffffffffff82169050919050565b600062000189826200015c565b9050919050565b60006200019d826200017c565b9050919050565b620001af8162000190565b8114620001bb57600080fd5b50565b600081519050620001cf81620001a4565b92915050565b6000620001e2826200017c565b9050919050565b620001f481620001d5565b81146200020057600080fd5b50565b6000815190506200021481620001e9565b92915050565b6000806040838503121562000234576200023362000157565b5b60006200024485828601620001be565b9250506020620002578582860162000203565b9150509250929050565b60805160a0516115956200029c60003960008181610e9501528181610ef50152610f37015260008181610eb60152610f1601526115956000f3fe6080604052600436106101235760003560e01c8063a6c5c67c116100a0578063bc5894ba11610064578063bc5894ba146103df578063c946bb2a1461040a578063d64157fb14610435578063f183b10314610473578063f98e12ff1461049e5761012a565b8063a6c5c67c14610305578063b1324f7b14610330578063b29f5d3e1461035b578063b6b55f2514610398578063bb4632bc146103b45761012a565b8063776360bc116100e7578063776360bc1461021857806389177707146102555780638d776b1a146102935780638da5cb5b146102af5780639caf34c4146102da5761012a565b80630d51f34c1461012c5780632014e5d114610169578063313c06a01461019457806338c33a3f146101bf578063590aa56c146101fc5761012a565b3661012a57005b005b34801561013857600080fd5b50610153600480360381019061014e9190610fb7565b6104c7565b6040516101609190610ff3565b60405180910390f35b34801561017557600080fd5b5061017e610553565b60405161018b9190611029565b60405180910390f35b3480156101a057600080fd5b506101a9610566565b6040516101b691906110c3565b60405180910390f35b3480156101cb57600080fd5b506101e660048036038101906101e19190610fb7565b61058c565b6040516101f39190610ff3565b60405180910390f35b610216600480360381019061021191906110de565b6105ce565b005b34801561022457600080fd5b5061023f600480360381019061023a9190610fb7565b610711565b60405161024c9190610ff3565b60405180910390f35b34801561026157600080fd5b5061027c60048036038101906102779190610fb7565b610753565b60405161028a92919061111e565b60405180910390f35b6102ad60048036038101906102a89190610fb7565b6107db565b005b3480156102bb57600080fd5b506102c46109d4565b6040516102d19190611168565b60405180910390f35b3480156102e657600080fd5b506102ef6109fa565b6040516102fc9190610ff3565b60405180910390f35b34801561031157600080fd5b5061031a610a19565b6040516103279190611029565b60405180910390f35b34801561033c57600080fd5b50610345610a30565b60405161035291906111a4565b60405180910390f35b34801561036757600080fd5b50610382600480360381019061037d9190610fb7565b610a54565b60405161038f9190610ff3565b60405180910390f35b6103b260048036038101906103ad9190610fb7565b610ad2565b005b3480156103c057600080fd5b506103c9610bbd565b6040516103d69190610ff3565b60405180910390f35b3480156103eb57600080fd5b506103f4610bc3565b6040516104019190610ff3565b60405180910390f35b34801561041657600080fd5b5061041f610bc9565b60405161042c9190610ff3565b60405180910390f35b34801561044157600080fd5b5061045c60048036038101906104579190610fb7565b610bcf565b60405161046a92919061111e565b60405180910390f35b34801561047f57600080fd5b50610488610c5c565b6040516104959190610ff3565b60405180910390f35b3480156104aa57600080fd5b506104c560048036038101906104c091906110de565b610c62565b005b6000600560009054906101000a900460ff166104e257600080fd5b6000823073ffffffffffffffffffffffffffffffffffffffff163161050791906111ee565b9050610511610e33565b6000600354826006546105249190611251565b61052e91906111ee565b9050600061053b82610e91565b826105469190611282565b9050809350505050919050565b600560009054906101000a900460ff1681565b600160009054906101000a900473ffffffffffffffffffffffffffffffffffffffff1681565b60006003543073ffffffffffffffffffffffffffffffffffffffff16316105b39190611251565b600c81905550600c54826105c791906112d8565b9050919050565b600034116105db57600080fd5b3373ffffffffffffffffffffffffffffffffffffffff16313411156105ff57600080fd5b61060882610e91565b6004819055503073ffffffffffffffffffffffffffffffffffffffff166108fc349081150290604051600060405180830381858888f19350505050158015610654573d6000803e3d6000fd5b5060008054906101000a900473ffffffffffffffffffffffffffffffffffffffff1673ffffffffffffffffffffffffffffffffffffffff1663a9059cbb33836040518363ffffffff1660e01b81526004016106b0929190611332565b6020604051808303816000875af11580156106cf573d6000803e3d6000fd5b505050506040513d601f19601f820116820180604052508101906106f39190611387565b50816003600082825461070691906111ee565b925050819055505050565b60003073ffffffffffffffffffffffffffffffffffffffff16316003546107389190611251565b600b81905550600b548261074c91906112d8565b9050919050565b600080600560009054906101000a900460ff1661076f57600080fd5b60008360035461077f91906111ee565b9050610789610e33565b60003073ffffffffffffffffffffffffffffffffffffffff1631826006546107b19190611251565b6107bb91906111ee565b90506107c685610ef1565b60098190555080600954935093505050915091565b600260009054906101000a900473ffffffffffffffffffffffffffffffffffffffff1673ffffffffffffffffffffffffffffffffffffffff163373ffffffffffffffffffffffffffffffffffffffff161461086b576040517f08c379a000000000000000000000000000000000000000000000000000000000815260040161086290611437565b60405180910390fd5b60008054906101000a900473ffffffffffffffffffffffffffffffffffffffff1673ffffffffffffffffffffffffffffffffffffffff166323b872dd3330846040518463ffffffff1660e01b81526004016108c893929190611478565b6020604051808303816000875af11580156108e7573d6000803e3d6000fd5b505050506040513d601f19601f8201168201806040525081019061090b9190611387565b50806003600082825461091e9190611282565b925050819055506001600560006101000a81548160ff021916908315150217905550600160009054906101000a900473ffffffffffffffffffffffffffffffffffffffff1673ffffffffffffffffffffffffffffffffffffffff16635165da303334846040518463ffffffff1660e01b815260040161099f939291906114af565b600060405180830381600087803b1580156109b957600080fd5b505af11580156109cd573d6000803e3d6000fd5b5050505050565b600260009054906101000a900473ffffffffffffffffffffffffffffffffffffffff1681565b60003073ffffffffffffffffffffffffffffffffffffffff1631905090565b6000600560009054906101000a900460ff16905090565b60008054906101000a900473ffffffffffffffffffffffffffffffffffffffff1681565b6000600560009054906101000a900460ff16610a6f57600080fd5b6000610a7a83610ef1565b600354610a879190611282565b9050610a91610e33565b80600654610a9f9190611251565b3073ffffffffffffffffffffffffffffffffffffffff1631610ac191906111ee565b600881905550600854915050919050565b3073ffffffffffffffffffffffffffffffffffffffff166108fc349081150290604051600060405180830381858888f19350505050158015610b18573d6000803e3d6000fd5b5060008054906101000a900473ffffffffffffffffffffffffffffffffffffffff1673ffffffffffffffffffffffffffffffffffffffff166323b872dd3330846040518463ffffffff1660e01b8152600401610b76939291906114e6565b6020604051808303816000875af1158015610b95573d6000803e3d6000fd5b505050506040513d601f19601f82011682018060405250810190610bb99190611387565b5050565b60035481565b600c5481565b600b5481565b600080600560009054906101000a900460ff16610beb57600080fd5b6000833073ffffffffffffffffffffffffffffffffffffffff1631610c109190611282565b9050610c1a610e33565b80600654610c289190611251565b600354610c3591906111ee565b600781905550610c46600754610ef1565b6009819055506007546009549250925050915091565b60095481565b8160008111610c7057600080fd5b60008054906101000a900473ffffffffffffffffffffffffffffffffffffffff1673ffffffffffffffffffffffffffffffffffffffff166370a08231336040518263ffffffff1660e01b8152600401610cc99190611168565b602060405180830381865afa158015610ce6573d6000803e3d6000fd5b505050506040513d601f19601f82011682018060405250810190610d0a9190611532565b811115610d1657600080fd5b610d1f83610e91565b60048190555060008054906101000a900473ffffffffffffffffffffffffffffffffffffffff1673ffffffffffffffffffffffffffffffffffffffff166323b872dd3330866040518463ffffffff1660e01b8152600401610d82939291906114e6565b6020604051808303816000875af1158015610da1573d6000803e3d6000fd5b505050506040513d601f19601f82011682018060405250810190610dc59190611387565b503373ffffffffffffffffffffffffffffffffffffffff166108fc839081150290604051600060405180830381858888f19350505050158015610e0c573d6000803e3d6000fd5b50610e1683610ef1565b60036000828254610e279190611282565b92505081905550505050565b600a60009054906101000a900460ff1615610e8f576003543073ffffffffffffffffffffffffffffffffffffffff1631610e6d91906112d8565b6006819055506000600a60006101000a81548160ff0219169083151502179055505b565b60007f00000000000000000000000000000000000000000000000000000000000000007f000000000000000000000000000000000000000000000000000000000000000083610ee091906112d8565b610eea9190611251565b9050919050565b60007f00000000000000000000000000000000000000000000000000000000000000007f00000000000000000000000000000000000000000000000000000000000000007f0000000000000000000000000000000000000000000000000000000000000000610f6091906111ee565b83610f6b91906112d8565b610f759190611251565b9050919050565b600080fd5b6000819050919050565b610f9481610f81565b8114610f9f57600080fd5b50565b600081359050610fb181610f8b565b92915050565b600060208284031215610fcd57610fcc610f7c565b5b6000610fdb84828501610fa2565b91505092915050565b610fed81610f81565b82525050565b60006020820190506110086000830184610fe4565b92915050565b60008115159050919050565b6110238161100e565b82525050565b600060208201905061103e600083018461101a565b92915050565b600073ffffffffffffffffffffffffffffffffffffffff82169050919050565b6000819050919050565b600061108961108461107f84611044565b611064565b611044565b9050919050565b600061109b8261106e565b9050919050565b60006110ad82611090565b9050919050565b6110bd816110a2565b82525050565b60006020820190506110d860008301846110b4565b92915050565b600080604083850312156110f5576110f4610f7c565b5b600061110385828601610fa2565b925050602061111485828601610fa2565b9150509250929050565b60006040820190506111336000830185610fe4565b6111406020830184610fe4565b9392505050565b600061115282611044565b9050919050565b61116281611147565b82525050565b600060208201905061117d6000830184611159565b92915050565b600061118e82611090565b9050919050565b61119e81611183565b82525050565b60006020820190506111b96000830184611195565b92915050565b7f4e487b7100000000000000000000000000000000000000000000000000000000600052601160045260246000fd5b60006111f982610f81565b915061120483610f81565b925082821015611217576112166111bf565b5b828203905092915050565b7f4e487b7100000000000000000000000000000000000000000000000000000000600052601260045260246000fd5b600061125c82610f81565b915061126783610f81565b92508261127757611276611222565b5b828204905092915050565b600061128d82610f81565b915061129883610f81565b9250827fffffffffffffffffffffffffffffffffffffffffffffffffffffffffffffffff038211156112cd576112cc6111bf565b5b828201905092915050565b60006112e382610f81565b91506112ee83610f81565b9250817fffffffffffffffffffffffffffffffffffffffffffffffffffffffffffffffff0483118215151615611327576113266111bf565b5b828202905092915050565b60006040820190506113476000830185611159565b6113546020830184610fe4565b9392505050565b6113648161100e565b811461136f57600080fd5b50565b6000815190506113818161135b565b92915050565b60006020828403121561139d5761139c610f7c565b5b60006113ab84828501611372565b91505092915050565b600082825260208201905092915050565b7f4f6e6c79206f776e657220697320616c6c6f77656420666f722074686973206160008201527f6374696f6e2e0000000000000000000000000000000000000000000000000000602082015250565b60006114216026836113b4565b915061142c826113c5565b604082019050919050565b6000602082019050818103600083015261145081611414565b9050919050565b600061146282611090565b9050919050565b61147281611457565b82525050565b600060608201905061148d6000830186611159565b61149a6020830185611469565b6114a76040830184610fe4565b949350505050565b60006060820190506114c46000830186611159565b6114d16020830185610fe4565b6114de6040830184610fe4565b949350505050565b60006060820190506114fb6000830186611159565b6115086020830185611159565b6115156040830184610fe4565b949350505050565b60008151905061152c81610f8b565b92915050565b60006020828403121561154857611547610f7c565b5b60006115568482850161151d565b9150509291505056fea264697066735822122048db9c3a1699f471859d7ed2d2396f8ef166d661474d68cc2dc017ea8ff62ce064736f6c634300080d0033",
  "immutableReferences": {
    "1232": [
      {
        "length": 32,
        "start": 3766
      },
      {
        "length": 32,
        "start": 3862
      }
    ],
    "1235": [
      {
        "length": 32,
        "start": 3733
      },
      {
        "length": 32,
        "start": 3829
      },
      {
        "length": 32,
        "start": 3895
      }
    ]
  },
  "source": "// SPDX-License-Identifier: MIT\r\npragma solidity >=0.5.0 <0.9.0;\r\n\r\nimport \"./SbToken.sol\";\r\nimport \"./LpToken.sol\";\r\n\r\ncontract pool {\r\n    SbToken public sbt;\r\n    LpToken public lp;\r\n    uint private immutable feesRate = 3;\r\n    uint private immutable feesDecimal = 1000;\r\n    //uint public ethBalance;\r\n    address public owner;\r\n    uint public sbtBalance = 0;  //sbt available to use & calculate\r\n    uint private sbtReserved = 0; //sbt reserved for liquidity provider reward\r\n    bool public isRunning = false;\r\n\r\n    uint k;\r\n    uint estimateTokenSb;\r\n    uint estimateTokenEth;\r\n    uint public sbtGet =0;\r\n    bool oneTime = true;\r\n\r\n    //addDeposit variable\r\n    uint public sbtRatio;\r\n    uint public ethRatio;\r\n\r\n    event PoolInitialised(\r\n        address account,\r\n        address token,\r\n        uint amountSbt,\r\n        uint amountEth\r\n    );\r\n\r\n\r\n    // Function to receive Ether. msg.data must be empty\r\n    receive() external payable {}\r\n\r\n    // Fallback function is called when msg.data is not empty\r\n    fallback() external payable {}\r\n\r\n\r\n    modifier onlyOwner {\r\n      require(msg.sender == owner,\"Only owner is allowed for this action.\");\r\n      _;\r\n    }\r\n\r\n    modifier checkPool() {\r\n        require(isRunning);\r\n        _;\r\n    }\r\n\r\n    modifier checkBalance() {\r\n        require(msg.value > 0);\r\n        require(msg.value <= msg.sender.balance);\r\n        _;\r\n    }\r\n\r\n    modifier checkBalance2(uint amountSbt) {\r\n        require(amountSbt > 0);\r\n        require(amountSbt <= sbt.balanceOf(msg.sender));\r\n        _;\r\n    }\r\n\r\n    constructor(SbToken _sbToken, LpToken _lpToken) {\r\n        sbt = _sbToken;\r\n        lp = _lpToken;\r\n        owner = msg.sender;\r\n    }\r\n\r\n    \r\n    function settingUp( uint sbtSupply) public payable onlyOwner{\r\n       \r\n        \r\n        sbt.transferFrom(msg.sender,payable (this), sbtSupply);\r\n        //payable(address(this)).transfer(msg.value);\r\n\r\n\r\n        //require(msg.sender == owner, \"Only owner can deploy the pool.\");\r\n        sbtBalance += sbtSupply;\r\n        isRunning = true;\r\n\r\n        //emit PoolInitialised(msg.sender, address(sbt), sbtSupply, msg.value);\r\n\r\n        lp.create(msg.sender, msg.value, sbtSupply);\r\n    }\r\n\r\n    \r\n\r\n\r\n    //get the 99.7% of sbt (used for swap)\r\n    function getActualSbt (uint fullSbt) internal pure returns(uint){\r\n        return (fullSbt * (feesDecimal - feesRate)) / feesDecimal;\r\n        \r\n    }\r\n\r\n    //get the 0.3% fees of sbt (swap)(if giving eth, convert reserved eth to sbt)\r\n    function getReservedSbt (uint fullSbt) internal pure returns(uint){\r\n        return  (fullSbt * feesRate) / feesDecimal;\r\n    }\r\n\r\n    function getBalanceEth () public view returns(uint){\r\n        return address(this).balance;\r\n    }\r\n\r\n    function isPoolRunning () public view returns(bool){\r\n        return isRunning;\r\n    }\r\n\r\n    \r\n    //swap\r\n    function calculateConstant() internal{\r\n        if(oneTime){\r\n            k = address(this).balance * sbtBalance;\r\n            oneTime = false;\r\n        }\r\n       \r\n    }\r\n\r\n    function getSwapTokenSbEstimate(uint _amountTokenEth) public checkPool returns (uint, uint)\r\n    {\r\n        uint tokenEthAfter = address(this).balance + _amountTokenEth;\r\n        calculateConstant();\r\n        estimateTokenSb = sbtBalance - (k / tokenEthAfter);\r\n        sbtGet = getActualSbt(estimateTokenSb);\r\n        return (estimateTokenSb,sbtGet);\r\n    }\r\n\r\n    function getSwapTokenEthEstimate(uint _amountTokenSb)public checkPool returns (uint)\r\n    {\r\n        uint tokenSbAfter = sbtBalance + getActualSbt(_amountTokenSb);\r\n        calculateConstant();\r\n        estimateTokenEth = address(this).balance - (k / tokenSbAfter);\r\n        return (estimateTokenEth);\r\n    }\r\n\r\n    function getEthNeed(uint _amountSbt) public checkPool returns (uint, uint)\r\n    {\r\n        uint tokenSbtAfter = sbtBalance - _amountSbt;\r\n        calculateConstant();\r\n        uint ethNeed = (k / tokenSbtAfter) - address(this).balance;\r\n        sbtGet = getActualSbt(_amountSbt);\r\n        return (ethNeed,sbtGet);\r\n    }\r\n\r\n    function getSbtNeed(uint _amountEth) public checkPool returns (uint)\r\n    {\r\n        uint tokenEthAfter = address(this).balance - _amountEth;\r\n        calculateConstant();\r\n        uint sbtNeed = (k / tokenEthAfter) - sbtBalance;\r\n        uint actual = sbtNeed + getReservedSbt(sbtNeed);\r\n        return (actual);\r\n    }\r\n\r\n    function tokenEthSwapTokenSb(uint amountSbt, uint getAmount) external checkBalance payable{\r\n        sbtReserved = getReservedSbt(amountSbt);\r\n        payable(address(this)).transfer(msg.value);\r\n        sbt.transfer(msg.sender, getAmount);\r\n        sbtBalance -= amountSbt;\r\n    }\r\n\r\n    function tokenSbSwapTokenEth(uint amountSbt, uint amountEth) checkBalance2(amountSbt) public{\r\n        sbtReserved = getReservedSbt(amountSbt);\r\n        sbt.transferFrom(msg.sender, address(this), amountSbt);\r\n        payable(msg.sender).transfer(amountEth);\r\n        sbtBalance += getActualSbt(amountSbt);\r\n    }\r\n\r\n    //addDeposit\r\n    function calSBT(uint ethAmount) public returns(uint returnSBT){\r\n        sbtRatio = sbtBalance/address(this).balance;\r\n        return ethAmount * sbtRatio;\r\n    }\r\n\r\n    function calETH(uint sbtAmount) public returns(uint returnETH){\r\n        ethRatio = address(this).balance/sbtBalance;\r\n        return sbtAmount * ethRatio;\r\n    }\r\n\r\n    function deposit(uint sbtDeposit) external payable{\r\n        payable(address(this)).transfer(msg.value);\r\n        sbt.transferFrom(msg.sender, address(this), sbtDeposit);\r\n        //calculate k, one time = false\r\n    }\r\n  \r\n    \r\n}",
  "sourcePath": "C:\\Users\\HP\\OneDrive\\Desktop\\BlockChainAss\\blockchain\\contracts\\pool.sol",
  "compiler": {
    "name": "solc",
    "version": "0.8.13+commit.abaa5c0e.Emscripten.clang"
  },
  "schemaVersion": "3.4.5",
  "updatedAt": "2022-04-09T09:12:20.774Z",
  "devdoc": {
    "kind": "dev",
    "methods": {},
    "version": 1
  },
  "userdoc": {
    "kind": "user",
    "methods": {},
    "version": 1
  }
}