{
  "contractName": "pool",
  "abi": [
    {
      "inputs": [
        {
          "internalType": "contract SbToken",
          "name": "_sbToken",
          "type": "address"
        },
        {
          "internalType": "contract LpToken",
          "name": "_lpToken",
          "type": "address"
        }
      ],
      "stateMutability": "nonpayable",
      "type": "constructor"
    },
    {
      "anonymous": false,
      "inputs": [
        {
          "indexed": false,
          "internalType": "address",
          "name": "account",
          "type": "address"
        },
        {
          "indexed": false,
          "internalType": "address",
          "name": "token",
          "type": "address"
        },
        {
          "indexed": false,
          "internalType": "uint256",
          "name": "amountSbt",
          "type": "uint256"
        },
        {
          "indexed": false,
          "internalType": "uint256",
          "name": "amountEth",
          "type": "uint256"
        }
      ],
      "name": "PoolInitialised",
      "type": "event"
    },
    {
      "stateMutability": "payable",
      "type": "fallback",
      "payable": true
    },
    {
      "inputs": [],
      "name": "isRunning",
      "outputs": [
        {
          "internalType": "bool",
          "name": "",
          "type": "bool"
        }
      ],
      "stateMutability": "view",
      "type": "function",
      "constant": true
    },
    {
      "inputs": [],
      "name": "lp",
      "outputs": [
        {
          "internalType": "contract LpToken",
          "name": "",
          "type": "address"
        }
      ],
      "stateMutability": "view",
      "type": "function",
      "constant": true
    },
    {
      "inputs": [],
      "name": "owner",
      "outputs": [
        {
          "internalType": "address",
          "name": "",
          "type": "address"
        }
      ],
      "stateMutability": "view",
      "type": "function",
      "constant": true
    },
    {
      "inputs": [],
      "name": "sbt",
      "outputs": [
        {
          "internalType": "contract SbToken",
          "name": "",
          "type": "address"
        }
      ],
      "stateMutability": "view",
      "type": "function",
      "constant": true
    },
    {
      "inputs": [],
      "name": "sbtBalance",
      "outputs": [
        {
          "internalType": "uint256",
          "name": "",
          "type": "uint256"
        }
      ],
      "stateMutability": "view",
      "type": "function",
      "constant": true
    },
    {
      "inputs": [],
      "name": "sbtGet",
      "outputs": [
        {
          "internalType": "uint256",
          "name": "",
          "type": "uint256"
        }
      ],
      "stateMutability": "view",
      "type": "function",
      "constant": true
    },
    {
      "stateMutability": "payable",
      "type": "receive",
      "payable": true
    },
    {
      "inputs": [
        {
          "internalType": "uint256",
          "name": "sbtSupply",
          "type": "uint256"
        }
      ],
      "name": "settingUp",
      "outputs": [],
      "stateMutability": "payable",
      "type": "function",
      "payable": true
    },
    {
      "inputs": [],
      "name": "getBalanceEth",
      "outputs": [
        {
          "internalType": "uint256",
          "name": "",
          "type": "uint256"
        }
      ],
      "stateMutability": "view",
      "type": "function",
      "constant": true
    },
    {
      "inputs": [],
      "name": "isPoolRunning",
      "outputs": [
        {
          "internalType": "bool",
          "name": "",
          "type": "bool"
        }
      ],
      "stateMutability": "view",
      "type": "function",
      "constant": true
    },
    {
      "inputs": [
        {
          "internalType": "uint256",
          "name": "_amountTokenEth",
          "type": "uint256"
        }
      ],
      "name": "getSwapTokenSbEstimate",
      "outputs": [
        {
          "internalType": "uint256",
          "name": "",
          "type": "uint256"
        },
        {
          "internalType": "uint256",
          "name": "",
          "type": "uint256"
        }
      ],
      "stateMutability": "nonpayable",
      "type": "function"
    },
    {
      "inputs": [
        {
          "internalType": "uint256",
          "name": "_amountTokenSb",
          "type": "uint256"
        }
      ],
      "name": "getSwapTokenEthEstimate",
      "outputs": [
        {
          "internalType": "uint256",
          "name": "",
          "type": "uint256"
        }
      ],
      "stateMutability": "nonpayable",
      "type": "function"
    },
    {
      "inputs": [
        {
          "internalType": "uint256",
          "name": "_amountSbt",
          "type": "uint256"
        }
      ],
      "name": "getEthNeed",
      "outputs": [
        {
          "internalType": "uint256",
          "name": "",
          "type": "uint256"
        },
        {
          "internalType": "uint256",
          "name": "",
          "type": "uint256"
        }
      ],
      "stateMutability": "nonpayable",
      "type": "function"
    },
    {
      "inputs": [
        {
          "internalType": "uint256",
          "name": "_amountEth",
          "type": "uint256"
        }
      ],
      "name": "getSbtNeed",
      "outputs": [
        {
          "internalType": "uint256",
          "name": "",
          "type": "uint256"
        }
      ],
      "stateMutability": "nonpayable",
      "type": "function"
    },
    {
      "inputs": [
        {
          "internalType": "uint256",
          "name": "amountSbt",
          "type": "uint256"
        },
        {
          "internalType": "uint256",
          "name": "getAmount",
          "type": "uint256"
        }
      ],
      "name": "tokenEthSwapTokenSb",
      "outputs": [],
      "stateMutability": "payable",
      "type": "function",
      "payable": true
    },
    {
      "inputs": [
        {
          "internalType": "uint256",
          "name": "amountSbt",
          "type": "uint256"
        },
        {
          "internalType": "uint256",
          "name": "amountEth",
          "type": "uint256"
        }
      ],
      "name": "tokenSbSwapTokenEth",
      "outputs": [],
      "stateMutability": "nonpayable",
      "type": "function"
    }
  ],
  "bytecode": "0x60c060405260036080908152506103e860a090815250600060035560006004556000600560006101000a81548160ff02191690831515021790555060006009556001600a60006101000a81548160ff0219169083151502179055503480156200006757600080fd5b50604051620015933803806200159383398181016040528101906200008d91906200021a565b816000806101000a81548173ffffffffffffffffffffffffffffffffffffffff021916908373ffffffffffffffffffffffffffffffffffffffff16021790555080600160006101000a81548173ffffffffffffffffffffffffffffffffffffffff021916908373ffffffffffffffffffffffffffffffffffffffff16021790555033600260006101000a81548173ffffffffffffffffffffffffffffffffffffffff021916908373ffffffffffffffffffffffffffffffffffffffff160217905550505062000261565b600080fd5b600073ffffffffffffffffffffffffffffffffffffffff82169050919050565b600062000189826200015c565b9050919050565b60006200019d826200017c565b9050919050565b620001af8162000190565b8114620001bb57600080fd5b50565b600081519050620001cf81620001a4565b92915050565b6000620001e2826200017c565b9050919050565b620001f481620001d5565b81146200020057600080fd5b50565b6000815190506200021481620001e9565b92915050565b6000806040838503121562000234576200023362000157565b5b60006200024485828601620001be565b9250506020620002578582860162000203565b9150509250929050565b60805160a0516112f76200029c60003960008181610bf701528181610c570152610c99015260008181610c180152610c7801526112f76000f3fe6080604052600436106100ec5760003560e01c80639caf34c41161008a578063bb4632bc11610059578063bb4632bc146102e7578063d64157fb14610312578063f183b10314610350578063f98e12ff1461037b576100f3565b80639caf34c414610229578063a6c5c67c14610254578063b1324f7b1461027f578063b29f5d3e146102aa576100f3565b8063590aa56c116100c6578063590aa56c1461018857806389177707146101a45780638d776b1a146101e25780638da5cb5b146101fe576100f3565b80630d51f34c146100f55780632014e5d114610132578063313c06a01461015d576100f3565b366100f357005b005b34801561010157600080fd5b5061011c60048036038101906101179190610d19565b6103a4565b6040516101299190610d55565b60405180910390f35b34801561013e57600080fd5b50610147610430565b6040516101549190610d8b565b60405180910390f35b34801561016957600080fd5b50610172610443565b60405161017f9190610e25565b60405180910390f35b6101a2600480360381019061019d9190610e40565b610469565b005b3480156101b057600080fd5b506101cb60048036038101906101c69190610d19565b6105ac565b6040516101d9929190610e80565b60405180910390f35b6101fc60048036038101906101f79190610d19565b610634565b005b34801561020a57600080fd5b5061021361082d565b6040516102209190610eca565b60405180910390f35b34801561023557600080fd5b5061023e610853565b60405161024b9190610d55565b60405180910390f35b34801561026057600080fd5b50610269610872565b6040516102769190610d8b565b60405180910390f35b34801561028b57600080fd5b50610294610889565b6040516102a19190610f06565b60405180910390f35b3480156102b657600080fd5b506102d160048036038101906102cc9190610d19565b6108ad565b6040516102de9190610d55565b60405180910390f35b3480156102f357600080fd5b506102fc61092b565b6040516103099190610d55565b60405180910390f35b34801561031e57600080fd5b5061033960048036038101906103349190610d19565b610931565b604051610347929190610e80565b60405180910390f35b34801561035c57600080fd5b506103656109be565b6040516103729190610d55565b60405180910390f35b34801561038757600080fd5b506103a2600480360381019061039d9190610e40565b6109c4565b005b6000600560009054906101000a900460ff166103bf57600080fd5b6000823073ffffffffffffffffffffffffffffffffffffffff16316103e49190610f50565b90506103ee610b95565b6000600354826006546104019190610fb3565b61040b9190610f50565b9050600061041882610bf3565b826104239190610fe4565b9050809350505050919050565b600560009054906101000a900460ff1681565b600160009054906101000a900473ffffffffffffffffffffffffffffffffffffffff1681565b6000341161047657600080fd5b3373ffffffffffffffffffffffffffffffffffffffff163134111561049a57600080fd5b6104a382610bf3565b6004819055503073ffffffffffffffffffffffffffffffffffffffff166108fc349081150290604051600060405180830381858888f193505050501580156104ef573d6000803e3d6000fd5b5060008054906101000a900473ffffffffffffffffffffffffffffffffffffffff1673ffffffffffffffffffffffffffffffffffffffff1663a9059cbb33836040518363ffffffff1660e01b815260040161054b92919061103a565b6020604051808303816000875af115801561056a573d6000803e3d6000fd5b505050506040513d601f19601f8201168201806040525081019061058e919061108f565b5081600360008282546105a19190610f50565b925050819055505050565b600080600560009054906101000a900460ff166105c857600080fd5b6000836003546105d89190610f50565b90506105e2610b95565b60003073ffffffffffffffffffffffffffffffffffffffff16318260065461060a9190610fb3565b6106149190610f50565b905061061f85610c53565b60098190555080600954935093505050915091565b600260009054906101000a900473ffffffffffffffffffffffffffffffffffffffff1673ffffffffffffffffffffffffffffffffffffffff163373ffffffffffffffffffffffffffffffffffffffff16146106c4576040517f08c379a00000000000000000000000000000000000000000000000000000000081526004016106bb9061113f565b60405180910390fd5b60008054906101000a900473ffffffffffffffffffffffffffffffffffffffff1673ffffffffffffffffffffffffffffffffffffffff166323b872dd3330846040518463ffffffff1660e01b815260040161072193929190611180565b6020604051808303816000875af1158015610740573d6000803e3d6000fd5b505050506040513d601f19601f82011682018060405250810190610764919061108f565b5080600360008282546107779190610fe4565b925050819055506001600560006101000a81548160ff021916908315150217905550600160009054906101000a900473ffffffffffffffffffffffffffffffffffffffff1673ffffffffffffffffffffffffffffffffffffffff16635165da303334846040518463ffffffff1660e01b81526004016107f8939291906111b7565b600060405180830381600087803b15801561081257600080fd5b505af1158015610826573d6000803e3d6000fd5b5050505050565b600260009054906101000a900473ffffffffffffffffffffffffffffffffffffffff1681565b60003073ffffffffffffffffffffffffffffffffffffffff1631905090565b6000600560009054906101000a900460ff16905090565b60008054906101000a900473ffffffffffffffffffffffffffffffffffffffff1681565b6000600560009054906101000a900460ff166108c857600080fd5b60006108d383610c53565b6003546108e09190610fe4565b90506108ea610b95565b806006546108f89190610fb3565b3073ffffffffffffffffffffffffffffffffffffffff163161091a9190610f50565b600881905550600854915050919050565b60035481565b600080600560009054906101000a900460ff1661094d57600080fd5b6000833073ffffffffffffffffffffffffffffffffffffffff16316109729190610fe4565b905061097c610b95565b8060065461098a9190610fb3565b6003546109979190610f50565b6007819055506109a8600754610c53565b6009819055506007546009549250925050915091565b60095481565b81600081116109d257600080fd5b60008054906101000a900473ffffffffffffffffffffffffffffffffffffffff1673ffffffffffffffffffffffffffffffffffffffff166370a08231336040518263ffffffff1660e01b8152600401610a2b9190610eca565b602060405180830381865afa158015610a48573d6000803e3d6000fd5b505050506040513d601f19601f82011682018060405250810190610a6c9190611203565b811115610a7857600080fd5b610a8183610bf3565b60048190555060008054906101000a900473ffffffffffffffffffffffffffffffffffffffff1673ffffffffffffffffffffffffffffffffffffffff166323b872dd3330866040518463ffffffff1660e01b8152600401610ae493929190611230565b6020604051808303816000875af1158015610b03573d6000803e3d6000fd5b505050506040513d601f19601f82011682018060405250810190610b27919061108f565b503373ffffffffffffffffffffffffffffffffffffffff166108fc839081150290604051600060405180830381858888f19350505050158015610b6e573d6000803e3d6000fd5b50610b7883610c53565b60036000828254610b899190610fe4565b92505081905550505050565b600a60009054906101000a900460ff1615610bf1576003543073ffffffffffffffffffffffffffffffffffffffff1631610bcf9190611267565b6006819055506000600a60006101000a81548160ff0219169083151502179055505b565b60007f00000000000000000000000000000000000000000000000000000000000000007f000000000000000000000000000000000000000000000000000000000000000083610c429190611267565b610c4c9190610fb3565b9050919050565b60007f00000000000000000000000000000000000000000000000000000000000000007f00000000000000000000000000000000000000000000000000000000000000007f0000000000000000000000000000000000000000000000000000000000000000610cc29190610f50565b83610ccd9190611267565b610cd79190610fb3565b9050919050565b600080fd5b6000819050919050565b610cf681610ce3565b8114610d0157600080fd5b50565b600081359050610d1381610ced565b92915050565b600060208284031215610d2f57610d2e610cde565b5b6000610d3d84828501610d04565b91505092915050565b610d4f81610ce3565b82525050565b6000602082019050610d6a6000830184610d46565b92915050565b60008115159050919050565b610d8581610d70565b82525050565b6000602082019050610da06000830184610d7c565b92915050565b600073ffffffffffffffffffffffffffffffffffffffff82169050919050565b6000819050919050565b6000610deb610de6610de184610da6565b610dc6565b610da6565b9050919050565b6000610dfd82610dd0565b9050919050565b6000610e0f82610df2565b9050919050565b610e1f81610e04565b82525050565b6000602082019050610e3a6000830184610e16565b92915050565b60008060408385031215610e5757610e56610cde565b5b6000610e6585828601610d04565b9250506020610e7685828601610d04565b9150509250929050565b6000604082019050610e956000830185610d46565b610ea26020830184610d46565b9392505050565b6000610eb482610da6565b9050919050565b610ec481610ea9565b82525050565b6000602082019050610edf6000830184610ebb565b92915050565b6000610ef082610df2565b9050919050565b610f0081610ee5565b82525050565b6000602082019050610f1b6000830184610ef7565b92915050565b7f4e487b7100000000000000000000000000000000000000000000000000000000600052601160045260246000fd5b6000610f5b82610ce3565b9150610f6683610ce3565b925082821015610f7957610f78610f21565b5b828203905092915050565b7f4e487b7100000000000000000000000000000000000000000000000000000000600052601260045260246000fd5b6000610fbe82610ce3565b9150610fc983610ce3565b925082610fd957610fd8610f84565b5b828204905092915050565b6000610fef82610ce3565b9150610ffa83610ce3565b9250827fffffffffffffffffffffffffffffffffffffffffffffffffffffffffffffffff0382111561102f5761102e610f21565b5b828201905092915050565b600060408201905061104f6000830185610ebb565b61105c6020830184610d46565b9392505050565b61106c81610d70565b811461107757600080fd5b50565b60008151905061108981611063565b92915050565b6000602082840312156110a5576110a4610cde565b5b60006110b38482850161107a565b91505092915050565b600082825260208201905092915050565b7f4f6e6c79206f776e657220697320616c6c6f77656420666f722074686973206160008201527f6374696f6e2e0000000000000000000000000000000000000000000000000000602082015250565b60006111296026836110bc565b9150611134826110cd565b604082019050919050565b600060208201905081810360008301526111588161111c565b9050919050565b600061116a82610df2565b9050919050565b61117a8161115f565b82525050565b60006060820190506111956000830186610ebb565b6111a26020830185611171565b6111af6040830184610d46565b949350505050565b60006060820190506111cc6000830186610ebb565b6111d96020830185610d46565b6111e66040830184610d46565b949350505050565b6000815190506111fd81610ced565b92915050565b60006020828403121561121957611218610cde565b5b6000611227848285016111ee565b91505092915050565b60006060820190506112456000830186610ebb565b6112526020830185610ebb565b61125f6040830184610d46565b949350505050565b600061127282610ce3565b915061127d83610ce3565b9250817fffffffffffffffffffffffffffffffffffffffffffffffffffffffffffffffff04831182151516156112b6576112b5610f21565b5b82820290509291505056fea264697066735822122029d9366f39c26c1e621a6062f83a662e92a39045511a9286d7296aac62333ce564736f6c634300080d0033",
  "immutableReferences": {
    "916": [
      {
        "length": 32,
        "start": 3096
      },
      {
        "length": 32,
        "start": 3192
      }
    ],
    "919": [
      {
        "length": 32,
        "start": 3063
      },
      {
        "length": 32,
        "start": 3159
      },
      {
        "length": 32,
        "start": 3225
      }
    ]
  },
  "source": "// SPDX-License-Identifier: MIT\r\npragma solidity >=0.5.0 <0.9.0;\r\n\r\nimport \"./SbToken.sol\";\r\nimport \"./LpToken.sol\";\r\n\r\ncontract pool {\r\n    SbToken public sbt;\r\n    LpToken public lp;\r\n    uint private immutable feesRate = 3;\r\n    uint private immutable feesDecimal = 1000;\r\n    //uint public ethBalance;\r\n    address public owner;\r\n    uint public sbtBalance = 0;  //sbt available to use & calculate\r\n    uint private sbtReserved = 0; //sbt reserved for liquidity provider reward\r\n    bool public isRunning = false;\r\n\r\n    uint k;\r\n    uint estimateTokenSb;\r\n    uint estimateTokenEth;\r\n    uint public sbtGet =0;\r\n    bool oneTime = true;\r\n\r\n    event PoolInitialised(\r\n        address account,\r\n        address token,\r\n        uint amountSbt,\r\n        uint amountEth\r\n    );\r\n\r\n\r\n    // Function to receive Ether. msg.data must be empty\r\n    receive() external payable {}\r\n\r\n    // Fallback function is called when msg.data is not empty\r\n    fallback() external payable {}\r\n\r\n\r\n    modifier onlyOwner {\r\n      require(msg.sender == owner,\"Only owner is allowed for this action.\");\r\n      _;\r\n    }\r\n\r\n    modifier checkPool() {\r\n        require(isRunning);\r\n        _;\r\n    }\r\n\r\n    modifier checkBalance() {\r\n        require(msg.value > 0);\r\n        require(msg.value <= msg.sender.balance);\r\n        _;\r\n    }\r\n\r\n    modifier checkBalance2(uint amountSbt) {\r\n        require(amountSbt > 0);\r\n        require(amountSbt <= sbt.balanceOf(msg.sender));\r\n        _;\r\n    }\r\n\r\n    constructor(SbToken _sbToken, LpToken _lpToken) {\r\n        sbt = _sbToken;\r\n        lp = _lpToken;\r\n        owner = msg.sender;\r\n    }\r\n\r\n    \r\n    function settingUp( uint sbtSupply) public payable onlyOwner{\r\n       \r\n        \r\n        sbt.transferFrom(msg.sender,payable (this), sbtSupply);\r\n        //payable(address(this)).transfer(msg.value);\r\n\r\n\r\n        //require(msg.sender == owner, \"Only owner can deploy the pool.\");\r\n        sbtBalance += sbtSupply;\r\n        isRunning = true;\r\n\r\n        //emit PoolInitialised(msg.sender, address(sbt), sbtSupply, msg.value);\r\n\r\n        lp.create(msg.sender, msg.value, sbtSupply);\r\n    }\r\n\r\n    \r\n\r\n\r\n    //get the 99.7% of sbt (used for swap)\r\n    function getActualSbt (uint fullSbt) internal pure returns(uint){\r\n        return (fullSbt * (feesDecimal - feesRate)) / feesDecimal;\r\n        \r\n    }\r\n\r\n    //get the 0.3% fees of sbt (swap)(if giving eth, convert reserved eth to sbt)\r\n    function getReservedSbt (uint fullSbt) internal pure returns(uint){\r\n        return  (fullSbt * feesRate) / feesDecimal;\r\n    }\r\n\r\n    function getBalanceEth () public view returns(uint){\r\n        return address(this).balance;\r\n    }\r\n\r\n    function isPoolRunning () public view returns(bool){\r\n        return isRunning;\r\n    }\r\n\r\n    \r\n    //swap\r\n    function calculateConstant() internal{\r\n        if(oneTime){\r\n            k = address(this).balance * sbtBalance;\r\n            oneTime = false;\r\n        }\r\n       \r\n    }\r\n\r\n    function getSwapTokenSbEstimate(uint _amountTokenEth) public checkPool returns (uint, uint)\r\n    {\r\n        uint tokenEthAfter = address(this).balance + _amountTokenEth;\r\n        calculateConstant();\r\n        estimateTokenSb = sbtBalance - (k / tokenEthAfter);\r\n        sbtGet = getActualSbt(estimateTokenSb);\r\n        return (estimateTokenSb,sbtGet);\r\n    }\r\n\r\n    function getSwapTokenEthEstimate(uint _amountTokenSb)public checkPool returns (uint)\r\n    {\r\n        uint tokenSbAfter = sbtBalance + getActualSbt(_amountTokenSb);\r\n        calculateConstant();\r\n        estimateTokenEth = address(this).balance - (k / tokenSbAfter);\r\n        return (estimateTokenEth);\r\n    }\r\n\r\n    function getEthNeed(uint _amountSbt) public checkPool returns (uint, uint)\r\n    {\r\n        uint tokenSbtAfter = sbtBalance - _amountSbt;\r\n        calculateConstant();\r\n        uint ethNeed = (k / tokenSbtAfter) - address(this).balance;\r\n        sbtGet = getActualSbt(_amountSbt);\r\n        return (ethNeed,sbtGet);\r\n    }\r\n\r\n    function getSbtNeed(uint _amountEth) public checkPool returns (uint)\r\n    {\r\n        uint tokenEthAfter = address(this).balance - _amountEth;\r\n        calculateConstant();\r\n        uint sbtNeed = (k / tokenEthAfter) - sbtBalance;\r\n        uint actual = sbtNeed + getReservedSbt(sbtNeed);\r\n        return (actual);\r\n    }\r\n\r\n    function tokenEthSwapTokenSb(uint amountSbt, uint getAmount) external checkBalance payable{\r\n        sbtReserved = getReservedSbt(amountSbt);\r\n        payable(address(this)).transfer(msg.value);\r\n        sbt.transfer(msg.sender, getAmount);\r\n        sbtBalance -= amountSbt;\r\n    }\r\n\r\n    function tokenSbSwapTokenEth(uint amountSbt, uint amountEth) checkBalance2(amountSbt) public{\r\n        sbtReserved = getReservedSbt(amountSbt);\r\n        sbt.transferFrom(msg.sender, address(this), amountSbt);\r\n        payable(msg.sender).transfer(amountEth);\r\n        sbtBalance += getActualSbt(amountSbt);\r\n    }\r\n\r\n    \r\n  \r\n    \r\n}",
  "sourcePath": "C:\\Users\\User\\Documents\\GitHub\\blockchain\\contracts\\pool.sol",
  "compiler": {
    "name": "solc",
    "version": "0.8.13+commit.abaa5c0e.Emscripten.clang"
  },
  "schemaVersion": "3.4.6",
  "updatedAt": "2022-04-09T04:16:53.205Z",
  "networkType": "ethereum",
  "devdoc": {
    "kind": "dev",
    "methods": {},
    "version": 1
  },
  "userdoc": {
    "kind": "user",
    "methods": {},
    "version": 1
  }
}