{
  "contractName": "pool",
  "abi": [
    {
      "inputs": [
        {
          "internalType": "contract SbToken",
          "name": "_sbToken",
          "type": "address"
        },
        {
          "internalType": "contract LpToken",
          "name": "_lpToken",
          "type": "address"
        }
      ],
      "stateMutability": "nonpayable",
      "type": "constructor"
    },
    {
      "anonymous": false,
      "inputs": [
        {
          "indexed": false,
          "internalType": "address",
          "name": "account",
          "type": "address"
        },
        {
          "indexed": false,
          "internalType": "address",
          "name": "token",
          "type": "address"
        },
        {
          "indexed": false,
          "internalType": "uint256",
          "name": "amountSbt",
          "type": "uint256"
        },
        {
          "indexed": false,
          "internalType": "uint256",
          "name": "amountEth",
          "type": "uint256"
        }
      ],
      "name": "PoolInitialised",
      "type": "event"
    },
    {
      "stateMutability": "payable",
      "type": "fallback",
      "payable": true
    },
    {
      "inputs": [],
      "name": "ethRatio",
      "outputs": [
        {
          "internalType": "uint256",
          "name": "",
          "type": "uint256"
        }
      ],
      "stateMutability": "view",
      "type": "function",
      "constant": true
    },
    {
      "inputs": [],
      "name": "isRunning",
      "outputs": [
        {
          "internalType": "bool",
          "name": "",
          "type": "bool"
        }
      ],
      "stateMutability": "view",
      "type": "function",
      "constant": true
    },
    {
      "inputs": [],
      "name": "k",
      "outputs": [
        {
          "internalType": "uint256",
          "name": "",
          "type": "uint256"
        }
      ],
      "stateMutability": "view",
      "type": "function",
      "constant": true
    },
    {
      "inputs": [],
      "name": "lp",
      "outputs": [
        {
          "internalType": "contract LpToken",
          "name": "",
          "type": "address"
        }
      ],
      "stateMutability": "view",
      "type": "function",
      "constant": true
    },
    {
      "inputs": [],
      "name": "owner",
      "outputs": [
        {
          "internalType": "address",
          "name": "",
          "type": "address"
        }
      ],
      "stateMutability": "view",
      "type": "function",
      "constant": true
    },
    {
      "inputs": [],
      "name": "sbt",
      "outputs": [
        {
          "internalType": "contract SbToken",
          "name": "",
          "type": "address"
        }
      ],
      "stateMutability": "view",
      "type": "function",
      "constant": true
    },
    {
      "inputs": [],
      "name": "sbtBalance",
      "outputs": [
        {
          "internalType": "uint256",
          "name": "",
          "type": "uint256"
        }
      ],
      "stateMutability": "view",
      "type": "function",
      "constant": true
    },
    {
      "inputs": [],
      "name": "sbtGet",
      "outputs": [
        {
          "internalType": "uint256",
          "name": "",
          "type": "uint256"
        }
      ],
      "stateMutability": "view",
      "type": "function",
      "constant": true
    },
    {
      "inputs": [],
      "name": "sbtRatio",
      "outputs": [
        {
          "internalType": "uint256",
          "name": "",
          "type": "uint256"
        }
      ],
      "stateMutability": "view",
      "type": "function",
      "constant": true
    },
    {
      "stateMutability": "payable",
      "type": "receive",
      "payable": true
    },
    {
      "inputs": [
        {
          "internalType": "uint256",
          "name": "sbtSupply",
          "type": "uint256"
        }
      ],
      "name": "settingUp",
      "outputs": [],
      "stateMutability": "payable",
      "type": "function",
      "payable": true
    },
    {
      "inputs": [],
      "name": "getBalanceEth",
      "outputs": [
        {
          "internalType": "uint256",
          "name": "",
          "type": "uint256"
        }
      ],
      "stateMutability": "view",
      "type": "function",
      "constant": true
    },
    {
      "inputs": [
        {
          "internalType": "uint256",
          "name": "_amountTokenEth",
          "type": "uint256"
        }
      ],
      "name": "getSwapTokenSbEstimate",
      "outputs": [
        {
          "internalType": "uint256",
          "name": "",
          "type": "uint256"
        },
        {
          "internalType": "uint256",
          "name": "",
          "type": "uint256"
        }
      ],
      "stateMutability": "nonpayable",
      "type": "function"
    },
    {
      "inputs": [
        {
          "internalType": "uint256",
          "name": "_amountTokenSb",
          "type": "uint256"
        }
      ],
      "name": "getSwapTokenEthEstimate",
      "outputs": [
        {
          "internalType": "uint256",
          "name": "",
          "type": "uint256"
        }
      ],
      "stateMutability": "nonpayable",
      "type": "function"
    },
    {
      "inputs": [
        {
          "internalType": "uint256",
          "name": "_amountSbt",
          "type": "uint256"
        }
      ],
      "name": "getEthNeed",
      "outputs": [
        {
          "internalType": "uint256",
          "name": "",
          "type": "uint256"
        },
        {
          "internalType": "uint256",
          "name": "",
          "type": "uint256"
        }
      ],
      "stateMutability": "nonpayable",
      "type": "function"
    },
    {
      "inputs": [
        {
          "internalType": "uint256",
          "name": "_amountEth",
          "type": "uint256"
        }
      ],
      "name": "getSbtNeed",
      "outputs": [
        {
          "internalType": "uint256",
          "name": "",
          "type": "uint256"
        }
      ],
      "stateMutability": "view",
      "type": "function",
      "constant": true
    },
    {
      "inputs": [
        {
          "internalType": "uint256",
          "name": "amountSbt",
          "type": "uint256"
        },
        {
          "internalType": "uint256",
          "name": "getAmount",
          "type": "uint256"
        }
      ],
      "name": "tokenEthSwapTokenSb",
      "outputs": [],
      "stateMutability": "payable",
      "type": "function",
      "payable": true
    },
    {
      "inputs": [
        {
          "internalType": "uint256",
          "name": "amountSbt",
          "type": "uint256"
        },
        {
          "internalType": "uint256",
          "name": "amountEth",
          "type": "uint256"
        }
      ],
      "name": "tokenSbSwapTokenEth",
      "outputs": [],
      "stateMutability": "nonpayable",
      "type": "function"
    },
    {
      "inputs": [
        {
          "internalType": "uint256",
          "name": "ethAmount",
          "type": "uint256"
        }
      ],
      "name": "calSBT",
      "outputs": [
        {
          "internalType": "uint256",
          "name": "returnSBT",
          "type": "uint256"
        }
      ],
      "stateMutability": "nonpayable",
      "type": "function"
    },
    {
      "inputs": [
        {
          "internalType": "uint256",
          "name": "sbtAmount",
          "type": "uint256"
        }
      ],
      "name": "calETH",
      "outputs": [
        {
          "internalType": "uint256",
          "name": "returnETH",
          "type": "uint256"
        }
      ],
      "stateMutability": "nonpayable",
      "type": "function"
    },
    {
      "inputs": [
        {
          "internalType": "uint256",
          "name": "sbtDeposit",
          "type": "uint256"
        }
      ],
      "name": "deposit",
      "outputs": [],
      "stateMutability": "payable",
      "type": "function",
      "payable": true
    },
    {
      "inputs": [
        {
          "internalType": "address",
          "name": "sender",
          "type": "address"
        }
      ],
      "name": "getAmountWithdraw",
      "outputs": [
        {
          "internalType": "uint256",
          "name": "lpToken",
          "type": "uint256"
        },
        {
          "internalType": "uint256",
          "name": "sbtWithdraw",
          "type": "uint256"
        },
        {
          "internalType": "uint256",
          "name": "ethWithdraw",
          "type": "uint256"
        },
        {
          "internalType": "uint256",
          "name": "sbtReward",
          "type": "uint256"
        }
      ],
      "stateMutability": "view",
      "type": "function",
      "constant": true
    },
    {
      "inputs": [
        {
          "internalType": "uint256",
          "name": "percent",
          "type": "uint256"
        }
      ],
      "name": "withdrawLiquity",
      "outputs": [],
      "stateMutability": "payable",
      "type": "function",
      "payable": true
    }
  ],
  "bytecode": "0x60c060405260036080908152506103e860a090815250600060035560006004556000600560006101000a81548160ff02191690831515021790555060006009553480156200004c57600080fd5b5060405162002070380380620020708339818101604052810190620000729190620001ff565b816000806101000a81548173ffffffffffffffffffffffffffffffffffffffff021916908373ffffffffffffffffffffffffffffffffffffffff16021790555080600160006101000a81548173ffffffffffffffffffffffffffffffffffffffff021916908373ffffffffffffffffffffffffffffffffffffffff16021790555033600260006101000a81548173ffffffffffffffffffffffffffffffffffffffff021916908373ffffffffffffffffffffffffffffffffffffffff160217905550505062000246565b600080fd5b600073ffffffffffffffffffffffffffffffffffffffff82169050919050565b60006200016e8262000141565b9050919050565b6000620001828262000161565b9050919050565b620001948162000175565b8114620001a057600080fd5b50565b600081519050620001b48162000189565b92915050565b6000620001c78262000161565b9050919050565b620001d981620001ba565b8114620001e557600080fd5b50565b600081519050620001f981620001ce565b92915050565b600080604083850312156200021957620002186200013c565b5b60006200022985828601620001a3565b92505060206200023c85828601620001e8565b9150509250929050565b60805160a051611def62000281600039600081816115fb0152818161168801526116ca01526000818161161c01526116a90152611def6000f3fe6080604052600436106101395760003560e01c8063b1324f7b116100ab578063bc5894ba1161006f578063bc5894ba14610411578063c946bb2a1461043c578063d64157fb14610467578063f183b103146104a5578063f4a365ed146104d0578063f98e12ff1461051057610140565b8063b1324f7b14610337578063b29f5d3e14610362578063b4f40c611461039f578063b6b55f25146103ca578063bb4632bc146103e657610140565b8063590aa56c116100fd578063590aa56c1461022e578063776360bc1461024a57806389177707146102875780638d776b1a146102c55780638da5cb5b146102e15780639caf34c41461030c57610140565b80630d51f34c146101425780632014e5d11461017f578063313c06a0146101aa57806338c33a3f146101d55780634babdf061461021257610140565b3661014057005b005b34801561014e57600080fd5b506101696004803603810190610164919061174a565b610539565b6040516101769190611786565b60405180910390f35b34801561018b57600080fd5b506101946105bd565b6040516101a191906117bc565b60405180910390f35b3480156101b657600080fd5b506101bf6105d0565b6040516101cc9190611856565b60405180910390f35b3480156101e157600080fd5b506101fc60048036038101906101f7919061174a565b6105f6565b6040516102099190611786565b60405180910390f35b61022c6004803603810190610227919061174a565b610664565b005b61024860048036038101906102439190611871565b610961565b005b34801561025657600080fd5b50610271600480360381019061026c919061174a565b610ab6565b60405161027e9190611786565b60405180910390f35b34801561029357600080fd5b506102ae60048036038101906102a9919061174a565b610b24565b6040516102bc9291906118b1565b60405180910390f35b6102df60048036038101906102da919061174a565b610ba4565b005b3480156102ed57600080fd5b506102f6610da3565b60405161030391906118fb565b60405180910390f35b34801561031857600080fd5b50610321610dc9565b60405161032e9190611786565b60405180910390f35b34801561034357600080fd5b5061034c610de8565b6040516103599190611937565b60405180910390f35b34801561036e57600080fd5b506103896004803603810190610384919061174a565b610e0c565b6040516103969190611786565b60405180910390f35b3480156103ab57600080fd5b506103b4610e82565b6040516103c19190611786565b60405180910390f35b6103e460048036038101906103df919061174a565b610e88565b005b3480156103f257600080fd5b506103fb6110b6565b6040516104089190611786565b60405180910390f35b34801561041d57600080fd5b506104266110bc565b6040516104339190611786565b60405180910390f35b34801561044857600080fd5b506104516110c2565b60405161045e9190611786565b60405180910390f35b34801561047357600080fd5b5061048e6004803603810190610489919061174a565b6110c8565b60405161049c9291906118b1565b60405180910390f35b3480156104b157600080fd5b506104ba61114d565b6040516104c79190611786565b60405180910390f35b3480156104dc57600080fd5b506104f760048036038101906104f2919061197e565b611153565b60405161050794939291906119ab565b60405180910390f35b34801561051c57600080fd5b5061053760048036038101906105329190611871565b611414565b005b6000600560009054906101000a900460ff1661055457600080fd5b6000823073ffffffffffffffffffffffffffffffffffffffff16316105799190611a1f565b905060006003548260065461058e9190611a82565b6105989190611a1f565b905060006105a5826115f7565b826105b09190611ab3565b9050809350505050919050565b600560009054906101000a900460ff1681565b600160009054906101000a900473ffffffffffffffffffffffffffffffffffffffff1681565b6000600560009054906101000a900460ff1661061157600080fd5b600354670de0b6b3a76400003073ffffffffffffffffffffffffffffffffffffffff163161063f9190611b09565b6106499190611a82565b600b81905550600b548261065d9190611b09565b9050919050565b60008060008061067333611153565b935093509350935060006064868361068b9190611b09565b6106959190611a82565b606487866106a39190611b09565b6106ad9190611a82565b6106b79190611ab3565b905060008054906101000a900473ffffffffffffffffffffffffffffffffffffffff1673ffffffffffffffffffffffffffffffffffffffff1663a9059cbb33836040518363ffffffff1660e01b8152600401610714929190611b84565b6020604051808303816000875af1158015610733573d6000803e3d6000fd5b505050506040513d601f19601f820116820180604052508101906107579190611bd9565b50606486856107669190611b09565b6107709190611a82565b600360008282546107819190611a1f565b92505081905550606486836107969190611b09565b6107a09190611a82565b600460008282546107b19190611a1f565b925050819055506000606487856107c89190611b09565b6107d29190611a82565b90503373ffffffffffffffffffffffffffffffffffffffff166108fc829081150290604051600060405180830381858888f1935050505015801561081a573d6000803e3d6000fd5b50610823611657565b600160009054906101000a900473ffffffffffffffffffffffffffffffffffffffff1673ffffffffffffffffffffffffffffffffffffffff166340753a766006546040518263ffffffff1660e01b81526004016108809190611786565b600060405180830381600087803b15801561089a57600080fd5b505af11580156108ae573d6000803e3d6000fd5b50505050600160009054906101000a900473ffffffffffffffffffffffffffffffffffffffff1673ffffffffffffffffffffffffffffffffffffffff16634acca7333360648a8a6108ff9190611b09565b6109099190611a82565b6040518363ffffffff1660e01b8152600401610926929190611c06565b600060405180830381600087803b15801561094057600080fd5b505af1158015610954573d6000803e3d6000fd5b5050505050505050505050565b6000341161096e57600080fd5b3373ffffffffffffffffffffffffffffffffffffffff163134111561099257600080fd5b61099b826115f7565b600460008282546109ac9190611ab3565b925050819055503073ffffffffffffffffffffffffffffffffffffffff166108fc349081150290604051600060405180830381858888f193505050501580156109f9573d6000803e3d6000fd5b5060008054906101000a900473ffffffffffffffffffffffffffffffffffffffff1673ffffffffffffffffffffffffffffffffffffffff1663a9059cbb33836040518363ffffffff1660e01b8152600401610a55929190611c06565b6020604051808303816000875af1158015610a74573d6000803e3d6000fd5b505050506040513d601f19601f82011682018060405250810190610a989190611bd9565b508160036000828254610aab9190611a1f565b925050819055505050565b6000600560009054906101000a900460ff16610ad157600080fd5b3073ffffffffffffffffffffffffffffffffffffffff1631670de0b6b3a7640000600354610aff9190611b09565b610b099190611a82565b600a81905550600a5482610b1d9190611b09565b9050919050565b600080600560009054906101000a900460ff16610b4057600080fd5b600083600354610b509190611a1f565b905060003073ffffffffffffffffffffffffffffffffffffffff163182600654610b7a9190611a82565b610b849190611a1f565b9050610b8f85611684565b60098190555080600954935093505050915091565b600260009054906101000a900473ffffffffffffffffffffffffffffffffffffffff1673ffffffffffffffffffffffffffffffffffffffff163373ffffffffffffffffffffffffffffffffffffffff1614610c34576040517f08c379a0000000000000000000000000000000000000000000000000000000008152600401610c2b90611cb2565b60405180910390fd5b60008054906101000a900473ffffffffffffffffffffffffffffffffffffffff1673ffffffffffffffffffffffffffffffffffffffff166323b872dd3330846040518463ffffffff1660e01b8152600401610c9193929190611cd2565b6020604051808303816000875af1158015610cb0573d6000803e3d6000fd5b505050506040513d601f19601f82011682018060405250810190610cd49190611bd9565b508060036000828254610ce79190611ab3565b92505081905550610cf6611657565b6001600560006101000a81548160ff021916908315150217905550600160009054906101000a900473ffffffffffffffffffffffffffffffffffffffff1673ffffffffffffffffffffffffffffffffffffffff166340753a766006546040518263ffffffff1660e01b8152600401610d6e9190611786565b600060405180830381600087803b158015610d8857600080fd5b505af1158015610d9c573d6000803e3d6000fd5b5050505050565b600260009054906101000a900473ffffffffffffffffffffffffffffffffffffffff1681565b60003073ffffffffffffffffffffffffffffffffffffffff1631905090565b60008054906101000a900473ffffffffffffffffffffffffffffffffffffffff1681565b6000600560009054906101000a900460ff16610e2757600080fd5b6000610e3283611684565b600354610e3f9190611ab3565b905080600654610e4f9190611a82565b3073ffffffffffffffffffffffffffffffffffffffff1631610e719190611a1f565b600881905550600854915050919050565b60065481565b3073ffffffffffffffffffffffffffffffffffffffff166108fc349081150290604051600060405180830381858888f19350505050158015610ece573d6000803e3d6000fd5b5060008054906101000a900473ffffffffffffffffffffffffffffffffffffffff1673ffffffffffffffffffffffffffffffffffffffff166323b872dd3330846040518463ffffffff1660e01b8152600401610f2c93929190611d09565b6020604051808303816000875af1158015610f4b573d6000803e3d6000fd5b505050506040513d601f19601f82011682018060405250810190610f6f9190611bd9565b508060036000828254610f829190611ab3565b92505081905550610f91611657565b600160009054906101000a900473ffffffffffffffffffffffffffffffffffffffff1673ffffffffffffffffffffffffffffffffffffffff166340753a766006546040518263ffffffff1660e01b8152600401610fee9190611786565b600060405180830381600087803b15801561100857600080fd5b505af115801561101c573d6000803e3d6000fd5b50505050600160009054906101000a900473ffffffffffffffffffffffffffffffffffffffff1673ffffffffffffffffffffffffffffffffffffffff1663d09b6d4333836003546040518463ffffffff1660e01b815260040161108193929190611d40565b600060405180830381600087803b15801561109b57600080fd5b505af11580156110af573d6000803e3d6000fd5b5050505050565b60035481565b600b5481565b600a5481565b600080600560009054906101000a900460ff166110e457600080fd5b6000833073ffffffffffffffffffffffffffffffffffffffff16316111099190611ab3565b9050806006546111199190611a82565b6003546111269190611a1f565b600781905550611137600754611684565b6009819055506007546009549250925050915091565b60095481565b600080600080600160009054906101000a900473ffffffffffffffffffffffffffffffffffffffff1673ffffffffffffffffffffffffffffffffffffffff1663c2bc2efc866040518263ffffffff1660e01b81526004016111b491906118fb565b602060405180830381865afa1580156111d1573d6000803e3d6000fd5b505050506040513d601f19601f820116820180604052508101906111f59190611d8c565b9350600160009054906101000a900473ffffffffffffffffffffffffffffffffffffffff1673ffffffffffffffffffffffffffffffffffffffff166318160ddd6040518163ffffffff1660e01b8152600401602060405180830381865afa158015611264573d6000803e3d6000fd5b505050506040513d601f19601f820116820180604052508101906112889190611d8c565b846003546112969190611b09565b6112a09190611a82565b9250600160009054906101000a900473ffffffffffffffffffffffffffffffffffffffff1673ffffffffffffffffffffffffffffffffffffffff166318160ddd6040518163ffffffff1660e01b8152600401602060405180830381865afa15801561130f573d6000803e3d6000fd5b505050506040513d601f19601f820116820180604052508101906113339190611d8c565b843073ffffffffffffffffffffffffffffffffffffffff16316113569190611b09565b6113609190611a82565b9150600160009054906101000a900473ffffffffffffffffffffffffffffffffffffffff1673ffffffffffffffffffffffffffffffffffffffff166318160ddd6040518163ffffffff1660e01b8152600401602060405180830381865afa1580156113cf573d6000803e3d6000fd5b505050506040513d601f19601f820116820180604052508101906113f39190611d8c565b846004546114019190611b09565b61140b9190611a82565b90509193509193565b816000811161142257600080fd5b60008054906101000a900473ffffffffffffffffffffffffffffffffffffffff1673ffffffffffffffffffffffffffffffffffffffff166370a08231336040518263ffffffff1660e01b815260040161147b91906118fb565b602060405180830381865afa158015611498573d6000803e3d6000fd5b505050506040513d601f19601f820116820180604052508101906114bc9190611d8c565b8111156114c857600080fd5b6114d1836115f7565b600460008282546114e29190611ab3565b9250508190555060008054906101000a900473ffffffffffffffffffffffffffffffffffffffff1673ffffffffffffffffffffffffffffffffffffffff166323b872dd3330866040518463ffffffff1660e01b815260040161154693929190611d09565b6020604051808303816000875af1158015611565573d6000803e3d6000fd5b505050506040513d601f19601f820116820180604052508101906115899190611bd9565b503373ffffffffffffffffffffffffffffffffffffffff166108fc839081150290604051600060405180830381858888f193505050501580156115d0573d6000803e3d6000fd5b506115da83611684565b600360008282546115eb9190611ab3565b92505081905550505050565b60007f00000000000000000000000000000000000000000000000000000000000000007f0000000000000000000000000000000000000000000000000000000000000000836116469190611b09565b6116509190611a82565b9050919050565b6003543073ffffffffffffffffffffffffffffffffffffffff163161167c9190611b09565b600681905550565b60007f00000000000000000000000000000000000000000000000000000000000000007f00000000000000000000000000000000000000000000000000000000000000007f00000000000000000000000000000000000000000000000000000000000000006116f39190611a1f565b836116fe9190611b09565b6117089190611a82565b9050919050565b600080fd5b6000819050919050565b61172781611714565b811461173257600080fd5b50565b6000813590506117448161171e565b92915050565b6000602082840312156117605761175f61170f565b5b600061176e84828501611735565b91505092915050565b61178081611714565b82525050565b600060208201905061179b6000830184611777565b92915050565b60008115159050919050565b6117b6816117a1565b82525050565b60006020820190506117d160008301846117ad565b92915050565b600073ffffffffffffffffffffffffffffffffffffffff82169050919050565b6000819050919050565b600061181c611817611812846117d7565b6117f7565b6117d7565b9050919050565b600061182e82611801565b9050919050565b600061184082611823565b9050919050565b61185081611835565b82525050565b600060208201905061186b6000830184611847565b92915050565b600080604083850312156118885761188761170f565b5b600061189685828601611735565b92505060206118a785828601611735565b9150509250929050565b60006040820190506118c66000830185611777565b6118d36020830184611777565b9392505050565b60006118e5826117d7565b9050919050565b6118f5816118da565b82525050565b600060208201905061191060008301846118ec565b92915050565b600061192182611823565b9050919050565b61193181611916565b82525050565b600060208201905061194c6000830184611928565b92915050565b61195b816118da565b811461196657600080fd5b50565b60008135905061197881611952565b92915050565b6000602082840312156119945761199361170f565b5b60006119a284828501611969565b91505092915050565b60006080820190506119c06000830187611777565b6119cd6020830186611777565b6119da6040830185611777565b6119e76060830184611777565b95945050505050565b7f4e487b7100000000000000000000000000000000000000000000000000000000600052601160045260246000fd5b6000611a2a82611714565b9150611a3583611714565b925082821015611a4857611a476119f0565b5b828203905092915050565b7f4e487b7100000000000000000000000000000000000000000000000000000000600052601260045260246000fd5b6000611a8d82611714565b9150611a9883611714565b925082611aa857611aa7611a53565b5b828204905092915050565b6000611abe82611714565b9150611ac983611714565b9250827fffffffffffffffffffffffffffffffffffffffffffffffffffffffffffffffff03821115611afe57611afd6119f0565b5b828201905092915050565b6000611b1482611714565b9150611b1f83611714565b9250817fffffffffffffffffffffffffffffffffffffffffffffffffffffffffffffffff0483118215151615611b5857611b576119f0565b5b828202905092915050565b6000611b6e82611823565b9050919050565b611b7e81611b63565b82525050565b6000604082019050611b996000830185611b75565b611ba66020830184611777565b9392505050565b611bb6816117a1565b8114611bc157600080fd5b50565b600081519050611bd381611bad565b92915050565b600060208284031215611bef57611bee61170f565b5b6000611bfd84828501611bc4565b91505092915050565b6000604082019050611c1b60008301856118ec565b611c286020830184611777565b9392505050565b600082825260208201905092915050565b7f4f6e6c79206f776e657220697320616c6c6f77656420666f722074686973206160008201527f6374696f6e2e0000000000000000000000000000000000000000000000000000602082015250565b6000611c9c602683611c2f565b9150611ca782611c40565b604082019050919050565b60006020820190508181036000830152611ccb81611c8f565b9050919050565b6000606082019050611ce760008301866118ec565b611cf46020830185611b75565b611d016040830184611777565b949350505050565b6000606082019050611d1e60008301866118ec565b611d2b60208301856118ec565b611d386040830184611777565b949350505050565b6000606082019050611d5560008301866118ec565b611d626020830185611777565b611d6f6040830184611777565b949350505050565b600081519050611d868161171e565b92915050565b600060208284031215611da257611da161170f565b5b6000611db084828501611d77565b9150509291505056fea264697066735822122093318887a0dcef2a0feee16f50babcc8d89efa79408d361920030c8791ea4d7c64736f6c634300080d0033",
  "immutableReferences": {
    "1000": [
      {
        "length": 32,
        "start": 5660
      },
      {
        "length": 32,
        "start": 5801
      }
    ],
    "1003": [
      {
        "length": 32,
        "start": 5627
      },
      {
        "length": 32,
        "start": 5768
      },
      {
        "length": 32,
        "start": 5834
      }
    ]
  },
  "source": "// SPDX-License-Identifier: MIT\r\npragma solidity >=0.5.0 <0.9.0;\r\n\r\nimport \"./SbToken.sol\";\r\nimport \"./LpToken.sol\";\r\n\r\ncontract pool {\r\n    SbToken public sbt;\r\n    LpToken public lp;\r\n    uint256 private immutable feesRate = 3;\r\n    uint256 private immutable feesDecimal = 1000;\r\n    //uint public ethBalance;\r\n    address public owner;\r\n    uint256 public sbtBalance = 0; //sbt available to use & calculate\r\n    uint256 private sbtReserved = 0; //sbt reserved for liquidity provider reward\r\n    bool public isRunning = false;\r\n\r\n    uint public k;\r\n    uint estimateTokenSb;\r\n    uint estimateTokenEth;\r\n    uint public sbtGet =0;\r\n\r\n\r\n    //addDeposit variable\r\n    uint256 public sbtRatio;\r\n    uint256 public ethRatio;\r\n\r\n    event PoolInitialised(\r\n        address account,\r\n        address token,\r\n        uint256 amountSbt,\r\n        uint256 amountEth\r\n    );\r\n\r\n    // Function to receive Ether. msg.data must be empty\r\n    receive() external payable {}\r\n\r\n    // Fallback function is called when msg.data is not empty\r\n    fallback() external payable {}\r\n\r\n    modifier onlyOwner() {\r\n        require(msg.sender == owner, \"Only owner is allowed for this action.\");\r\n        _;\r\n    }\r\n\r\n    modifier checkPool() {\r\n        require(isRunning);\r\n        _;\r\n    }\r\n\r\n    modifier checkBalance() {\r\n        require(msg.value > 0);\r\n        require(msg.value <= msg.sender.balance);\r\n        _;\r\n    }\r\n\r\n    modifier checkBalance2(uint256 amountSbt) {\r\n        require(amountSbt > 0);\r\n        require(amountSbt <= sbt.balanceOf(msg.sender));\r\n        _;\r\n    }\r\n\r\n    constructor(SbToken _sbToken, LpToken _lpToken) {\r\n        sbt = _sbToken;\r\n        lp = _lpToken;\r\n        owner = msg.sender;\r\n    }\r\n\r\n    function settingUp(uint256 sbtSupply) public payable onlyOwner {\r\n        sbt.transferFrom(msg.sender, payable(this), sbtSupply);\r\n        //payable(address(this)).transfer(msg.value);\r\n\r\n        //require(msg.sender == owner, \"Only owner can deploy the pool.\");\r\n        sbtBalance += sbtSupply;\r\n        calculateConstant();\r\n        isRunning = true;\r\n        lp.addSupply(k);\r\n\r\n        //emit PoolInitialised(msg.sender, address(sbt), sbtSupply, msg.value);\r\n\r\n    }\r\n\r\n    //get the 99.7% of sbt (used for swap)\r\n    function getActualSbt(uint256 fullSbt) internal pure returns (uint256) {\r\n        return (fullSbt * (feesDecimal - feesRate)) / feesDecimal;\r\n    }\r\n\r\n    //get the 0.3% fees of sbt (swap)(if giving eth, convert reserved eth to sbt)\r\n    function getReservedSbt(uint256 fullSbt) internal pure returns (uint256) {\r\n        return (fullSbt * feesRate) / feesDecimal;\r\n    }\r\n\r\n    function getBalanceEth() public view returns (uint256) {\r\n        return address(this).balance;\r\n    }\r\n\r\n    \r\n\r\n\r\n\r\n    //swap\r\n    function calculateConstant() internal{\r\n        k = address(this).balance * sbtBalance;\r\n    }\r\n\r\n    function getSwapTokenSbEstimate(uint256 _amountTokenEth)\r\n        public\r\n        checkPool\r\n        returns (uint256, uint256)\r\n    {\r\n        uint tokenEthAfter = address(this).balance + _amountTokenEth;\r\n        \r\n        estimateTokenSb = sbtBalance - (k / tokenEthAfter);\r\n        sbtGet = getActualSbt(estimateTokenSb);\r\n        return (estimateTokenSb, sbtGet);\r\n    }\r\n\r\n    function getSwapTokenEthEstimate(uint256 _amountTokenSb)\r\n        public\r\n        checkPool\r\n        returns (uint256)\r\n    {\r\n        uint256 tokenSbAfter = sbtBalance + getActualSbt(_amountTokenSb);\r\n        \r\n        estimateTokenEth = address(this).balance - (k / tokenSbAfter);\r\n        return (estimateTokenEth);\r\n    }\r\n\r\n    function getEthNeed(uint256 _amountSbt)\r\n        public\r\n        checkPool\r\n        returns (uint256, uint256)\r\n    {\r\n        uint256 tokenSbtAfter = sbtBalance - _amountSbt;\r\n        \r\n        uint256 ethNeed = (k / tokenSbtAfter) - address(this).balance;\r\n        sbtGet = getActualSbt(_amountSbt);\r\n        return (ethNeed, sbtGet);\r\n    }\r\n\r\n    function getSbtNeed(uint256 _amountEth) public view checkPool returns (uint256) {\r\n        uint256 tokenEthAfter = address(this).balance - _amountEth;\r\n        \r\n        uint256 sbtNeed = (k / tokenEthAfter) - sbtBalance;\r\n        uint256 actual = sbtNeed + getReservedSbt(sbtNeed);\r\n        return (actual);\r\n    }\r\n\r\n    function tokenEthSwapTokenSb(uint256 amountSbt, uint256 getAmount)\r\n        external\r\n        payable\r\n        checkBalance\r\n    {\r\n        sbtReserved += getReservedSbt(amountSbt);\r\n        //calcReward(getReservedSbt(amountSbt));\r\n        payable(address(this)).transfer(msg.value);\r\n        sbt.transfer(msg.sender, getAmount);\r\n        sbtBalance -= amountSbt;\r\n    }\r\n\r\n    function tokenSbSwapTokenEth(uint256 amountSbt, uint256 amountEth)\r\n        public\r\n        checkBalance2(amountSbt)\r\n    {\r\n        sbtReserved += getReservedSbt(amountSbt);\r\n        //calcReward(getReservedSbt(amountSbt));\r\n        sbt.transferFrom(msg.sender, address(this), amountSbt);\r\n        payable(msg.sender).transfer(amountEth);\r\n        sbtBalance += getActualSbt(amountSbt);\r\n    }\r\n\r\n    //addDeposit\r\n    function calSBT(uint ethAmount) public checkPool returns(uint returnSBT){\r\n        sbtRatio = ((sbtBalance) * 10**18 /(address(this).balance));\r\n        return ethAmount * sbtRatio;\r\n    }\r\n\r\n    function calETH(uint sbtAmount) public checkPool returns(uint returnETH){\r\n        ethRatio = ((address(this).balance) *10**18) /sbtBalance;\r\n        return sbtAmount * ethRatio;\r\n    }\r\n\r\n    function deposit(uint256 sbtDeposit) external payable {\r\n        payable(address(this)).transfer(msg.value);\r\n        sbt.transferFrom(msg.sender, address(this), sbtDeposit);\r\n        sbtBalance += sbtDeposit;\r\n        calculateConstant();\r\n        lp.addSupply(k);\r\n        lp.update(msg.sender, sbtDeposit, sbtBalance);\r\n        \r\n    }\r\n\r\n    //withdraw\r\n    function getAmountWithdraw(address sender)public view returns(uint lpToken, uint sbtWithdraw, uint ethWithdraw, uint sbtReward){\r\n        lpToken = lp.get(sender);\r\n\r\n        sbtWithdraw = (sbtBalance*lpToken)/lp.totalSupply();\r\n        ethWithdraw = (address(this).balance*lpToken)/lp.totalSupply();\r\n        sbtReward = (sbtReserved*lpToken)/lp.totalSupply();\r\n\r\n    }\r\n\r\n    function withdrawLiquity(\r\n        uint256 percent\r\n\r\n    ) external payable {\r\n        // require(msg.sender == owner, \"Only owner can withdraw funds\");\r\n        // require(amount <= balance[destAddr], \"Insufficient funds\");\r\n\r\n        (uint lpToken, uint sbtAvailable, uint ethAvailable, uint rewardAvailable) = getAmountWithdraw(msg.sender);\r\n\r\n        uint256 sbtWithdraw = ((sbtAvailable * percent)/100) +\r\n            ((rewardAvailable * percent)/100);\r\n        //SBT\r\n        sbt.transfer(payable(msg.sender), sbtWithdraw);\r\n        sbtBalance -= ((sbtAvailable * percent)/100);\r\n        sbtReserved -= ((rewardAvailable * percent)/100);\r\n        //ETH\r\n        uint256 withdrawETH = ((ethAvailable * percent) / 100);\r\n        payable(msg.sender).transfer(withdrawETH);\r\n\r\n        calculateConstant();\r\n        lp.addSupply(k);\r\n        lp.minus(msg.sender, ((lpToken*percent)/100) );\r\n    }\r\n\r\n\r\n    \r\n}\r\n",
  "sourcePath": "C:\\Users\\mingh\\OneDrive\\Documents\\GitHub\\blockchain\\contracts\\pool.sol",
  "compiler": {
    "name": "solc",
    "version": "0.8.13+commit.abaa5c0e.Emscripten.clang"
  },
  "schemaVersion": "3.4.4",
  "updatedAt": "2022-04-10T17:27:18.311Z",
  "networkType": "ethereum",
  "devdoc": {
    "kind": "dev",
    "methods": {},
    "version": 1
  },
  "userdoc": {
    "kind": "user",
    "methods": {},
    "version": 1
  }
}