{
  "contractName": "pool",
  "abi": [
    {
      "inputs": [
        {
          "internalType": "contract SbToken",
          "name": "_sbToken",
          "type": "address"
        }
      ],
      "stateMutability": "nonpayable",
      "type": "constructor"
    },
    {
      "anonymous": false,
      "inputs": [
        {
          "indexed": false,
          "internalType": "address",
          "name": "account",
          "type": "address"
        },
        {
          "indexed": false,
          "internalType": "address",
          "name": "token",
          "type": "address"
        },
        {
          "indexed": false,
          "internalType": "uint256",
          "name": "amountSbt",
          "type": "uint256"
        },
        {
          "indexed": false,
          "internalType": "uint256",
          "name": "amountEth",
          "type": "uint256"
        }
      ],
      "name": "PoolInitialised",
      "type": "event"
    },
    {
      "stateMutability": "payable",
      "type": "fallback",
      "payable": true
    },
    {
      "inputs": [],
      "name": "isRunning",
      "outputs": [
        {
          "internalType": "bool",
          "name": "",
          "type": "bool"
        }
      ],
      "stateMutability": "view",
      "type": "function",
      "constant": true
    },
    {
      "inputs": [],
      "name": "owner",
      "outputs": [
        {
          "internalType": "address",
          "name": "",
          "type": "address"
        }
      ],
      "stateMutability": "view",
      "type": "function",
      "constant": true
    },
    {
      "inputs": [],
      "name": "sbt",
      "outputs": [
        {
          "internalType": "contract SbToken",
          "name": "",
          "type": "address"
        }
      ],
      "stateMutability": "view",
      "type": "function",
      "constant": true
    },
    {
      "inputs": [],
      "name": "sbtBalance",
      "outputs": [
        {
          "internalType": "uint256",
          "name": "",
          "type": "uint256"
        }
      ],
      "stateMutability": "view",
      "type": "function",
      "constant": true
    },
    {
      "stateMutability": "payable",
      "type": "receive",
      "payable": true
    },
    {
      "inputs": [
        {
          "internalType": "uint256",
          "name": "sbtSupply",
          "type": "uint256"
        }
      ],
      "name": "settingUp",
      "outputs": [],
      "stateMutability": "payable",
      "type": "function",
      "payable": true
    },
    {
      "inputs": [],
      "name": "getBalanceSbt",
      "outputs": [
        {
          "internalType": "uint256",
          "name": "",
          "type": "uint256"
        }
      ],
      "stateMutability": "view",
      "type": "function",
      "constant": true
    },
    {
      "inputs": [],
      "name": "getBalanceEth",
      "outputs": [
        {
          "internalType": "uint256",
          "name": "",
          "type": "uint256"
        }
      ],
      "stateMutability": "view",
      "type": "function",
      "constant": true
    },
    {
      "inputs": [],
      "name": "isPoolRunning",
      "outputs": [
        {
          "internalType": "bool",
          "name": "",
          "type": "bool"
        }
      ],
      "stateMutability": "view",
      "type": "function",
      "constant": true
    }
  ],
  "bytecode": "0x60c060405260036080908152506103e860a090815250600060025560006003556000600460006101000a81548160ff02191690831515021790555034801561004657600080fd5b5060405161093938038061093983398181016040528101906100689190610164565b806000806101000a81548173ffffffffffffffffffffffffffffffffffffffff021916908373ffffffffffffffffffffffffffffffffffffffff16021790555033600160006101000a81548173ffffffffffffffffffffffffffffffffffffffff021916908373ffffffffffffffffffffffffffffffffffffffff16021790555050610191565b600080fd5b600073ffffffffffffffffffffffffffffffffffffffff82169050919050565b600061011f826100f4565b9050919050565b600061013182610114565b9050919050565b61014181610126565b811461014c57600080fd5b50565b60008151905061015e81610138565b92915050565b60006020828403121561017a576101796100ef565b5b60006101888482850161014f565b91505092915050565b60805160a0516107896101b060003960005050600050506107896000f3fe60806040526004361061007f5760003560e01c80639caf34c41161004e5780639caf34c414610125578063a6c5c67c14610150578063b1324f7b1461017b578063bb4632bc146101a657610086565b80632014e5d114610088578063309eaa98146100b35780638d776b1a146100de5780638da5cb5b146100fa57610086565b3661008657005b005b34801561009457600080fd5b5061009d6101d1565b6040516100aa91906103f7565b60405180910390f35b3480156100bf57600080fd5b506100c86101e4565b6040516100d5919061042b565b60405180910390f35b6100f860048036038101906100f39190610477565b6101ee565b005b34801561010657600080fd5b5061010f610356565b60405161011c91906104e5565b60405180910390f35b34801561013157600080fd5b5061013a61037c565b604051610147919061042b565b60405180910390f35b34801561015c57600080fd5b5061016561039b565b60405161017291906103f7565b60405180910390f35b34801561018757600080fd5b506101906103b2565b60405161019d919061055f565b60405180910390f35b3480156101b257600080fd5b506101bb6103d6565b6040516101c8919061042b565b60405180910390f35b600460009054906101000a900460ff1681565b6000600254905090565b600160009054906101000a900473ffffffffffffffffffffffffffffffffffffffff1673ffffffffffffffffffffffffffffffffffffffff163373ffffffffffffffffffffffffffffffffffffffff161461027e576040517f08c379a0000000000000000000000000000000000000000000000000000000008152600401610275906105fd565b60405180910390fd5b60008054906101000a900473ffffffffffffffffffffffffffffffffffffffff1673ffffffffffffffffffffffffffffffffffffffff166323b872dd3330846040518463ffffffff1660e01b81526004016102db9392919061063e565b6020604051808303816000875af11580156102fa573d6000803e3d6000fd5b505050506040513d601f19601f8201168201806040525081019061031e91906106a1565b50806002600082825461033191906106fd565b925050819055506001600460006101000a81548160ff02191690831515021790555050565b600160009054906101000a900473ffffffffffffffffffffffffffffffffffffffff1681565b60003073ffffffffffffffffffffffffffffffffffffffff1631905090565b6000600460009054906101000a900460ff16905090565b60008054906101000a900473ffffffffffffffffffffffffffffffffffffffff1681565b60025481565b60008115159050919050565b6103f1816103dc565b82525050565b600060208201905061040c60008301846103e8565b92915050565b6000819050919050565b61042581610412565b82525050565b6000602082019050610440600083018461041c565b92915050565b600080fd5b61045481610412565b811461045f57600080fd5b50565b6000813590506104718161044b565b92915050565b60006020828403121561048d5761048c610446565b5b600061049b84828501610462565b91505092915050565b600073ffffffffffffffffffffffffffffffffffffffff82169050919050565b60006104cf826104a4565b9050919050565b6104df816104c4565b82525050565b60006020820190506104fa60008301846104d6565b92915050565b6000819050919050565b600061052561052061051b846104a4565b610500565b6104a4565b9050919050565b60006105378261050a565b9050919050565b60006105498261052c565b9050919050565b6105598161053e565b82525050565b60006020820190506105746000830184610550565b92915050565b600082825260208201905092915050565b7f4f6e6c79206f776e657220697320616c6c6f77656420666f722074686973206160008201527f6374696f6e2e0000000000000000000000000000000000000000000000000000602082015250565b60006105e760268361057a565b91506105f28261058b565b604082019050919050565b60006020820190508181036000830152610616816105da565b9050919050565b60006106288261052c565b9050919050565b6106388161061d565b82525050565b600060608201905061065360008301866104d6565b610660602083018561062f565b61066d604083018461041c565b949350505050565b61067e816103dc565b811461068957600080fd5b50565b60008151905061069b81610675565b92915050565b6000602082840312156106b7576106b6610446565b5b60006106c58482850161068c565b91505092915050565b7f4e487b7100000000000000000000000000000000000000000000000000000000600052601160045260246000fd5b600061070882610412565b915061071383610412565b9250827fffffffffffffffffffffffffffffffffffffffffffffffffffffffffffffffff03821115610748576107476106ce565b5b82820190509291505056fea26469706673582212209bb4d9b1f1dd826338637366b1bd17e3b86b3aa74b49b98c6992a4349b067a1164736f6c634300080d0033",
  "immutableReferences": {},
  "source": "// SPDX-License-Identifier: MIT\r\npragma solidity >=0.5.0 <0.9.0;\r\n\r\nimport \"./SbToken.sol\";\r\nimport \"./LpToken.sol\";\r\n\r\ncontract pool {\r\n    SbToken public sbt;\r\n    uint private immutable feesRate = 3;\r\n    uint private immutable feesDecimal = 1000;\r\n    //uint public ethBalance;\r\n    address public owner;\r\n    uint public sbtBalance = 0;  //sbt available to use & calculate\r\n    uint private sbtReserved = 0; //sbt reserved for liquidity provider reward\r\n    bool public isRunning = false;\r\n\r\n\r\n    event PoolInitialised(\r\n        address account,\r\n        address token,\r\n        uint amountSbt,\r\n        uint amountEth\r\n    );\r\n\r\n    // Function to receive Ether. msg.data must be empty\r\n    receive() external payable {}\r\n\r\n    // Fallback function is called when msg.data is not empty\r\n    fallback() external payable {}\r\n\r\n\r\n    modifier onlyOwner {\r\n      require(msg.sender == owner,\"Only owner is allowed for this action.\");\r\n      _;\r\n    }\r\n\r\n    constructor(SbToken _sbToken) {\r\n        sbt = _sbToken;\r\n        owner = msg.sender;\r\n    }\r\n\r\n    \r\n\r\n    function settingUp( uint sbtSupply) public payable onlyOwner{\r\n       \r\n        \r\n        sbt.transferFrom(msg.sender,payable (this), sbtSupply);\r\n        //payable(address(this)).transfer(msg.value);\r\n\r\n\r\n        //require(msg.sender == owner, \"Only owner can deploy the pool.\");\r\n        sbtBalance += sbtSupply;\r\n        isRunning = true;\r\n\r\n        //emit PoolInitialised(msg.sender, address(sbt), sbtSupply, msg.value);\r\n    }\r\n\r\n\r\n    //get the 99.7% of sbt (used for swap)\r\n    function getActualSbt (uint fullSbt) internal pure returns(uint){\r\n        return (fullSbt * (feesDecimal - feesRate)) / feesDecimal;\r\n        \r\n    }\r\n\r\n    //get the 0.3% fees of sbt (swap)(if giving eth, convert reserved eth to sbt)\r\n    function getReservedSbt (uint fullSbt) internal pure returns(uint){\r\n        return  (fullSbt * feesRate) / feesDecimal;\r\n    }\r\n\r\n    function getBalanceSbt () public view returns(uint){\r\n        return sbtBalance;\r\n    }\r\n\r\n    function getBalanceEth () public view returns(uint){\r\n        return address(this).balance;\r\n    }\r\n\r\n    function isPoolRunning () public view returns(bool){\r\n        return isRunning;\r\n    }\r\n    \r\n    \r\n}",
  "sourcePath": "C:\\Users\\bakur\\Desktop\\blockchain\\contracts\\pool.sol",
  "compiler": {
    "name": "solc",
    "version": "0.8.13+commit.abaa5c0e.Emscripten.clang"
  },
  "schemaVersion": "3.4.4",
  "updatedAt": "2022-04-06T19:18:58.350Z",
  "networkType": "ethereum",
  "devdoc": {
    "kind": "dev",
    "methods": {},
    "version": 1
  },
  "userdoc": {
    "kind": "user",
    "methods": {},
    "version": 1
  }
}