{
  "contractName": "pool",
  "abi": [
    {
      "inputs": [
        {
          "internalType": "contract SbToken",
          "name": "_sbToken",
          "type": "address"
        },
        {
          "internalType": "contract LpToken",
          "name": "_lpToken",
          "type": "address"
        }
      ],
      "stateMutability": "nonpayable",
      "type": "constructor"
    },
    {
      "anonymous": false,
      "inputs": [
        {
          "indexed": false,
          "internalType": "address",
          "name": "account",
          "type": "address"
        },
        {
          "indexed": false,
          "internalType": "address",
          "name": "token",
          "type": "address"
        },
        {
          "indexed": false,
          "internalType": "uint256",
          "name": "amountSbt",
          "type": "uint256"
        },
        {
          "indexed": false,
          "internalType": "uint256",
          "name": "amountEth",
          "type": "uint256"
        }
      ],
      "name": "PoolInitialised",
      "type": "event"
    },
    {
      "stateMutability": "payable",
      "type": "fallback",
      "payable": true
    },
    {
      "inputs": [],
      "name": "ethRatio",
      "outputs": [
        {
          "internalType": "uint256",
          "name": "",
          "type": "uint256"
        }
      ],
      "stateMutability": "view",
      "type": "function",
      "constant": true
    },
    {
      "inputs": [],
      "name": "isRunning",
      "outputs": [
        {
          "internalType": "bool",
          "name": "",
          "type": "bool"
        }
      ],
      "stateMutability": "view",
      "type": "function",
      "constant": true
    },
    {
      "inputs": [],
      "name": "lp",
      "outputs": [
        {
          "internalType": "contract LpToken",
          "name": "",
          "type": "address"
        }
      ],
      "stateMutability": "view",
      "type": "function",
      "constant": true
    },
    {
      "inputs": [],
      "name": "owner",
      "outputs": [
        {
          "internalType": "address",
          "name": "",
          "type": "address"
        }
      ],
      "stateMutability": "view",
      "type": "function",
      "constant": true
    },
    {
      "inputs": [],
      "name": "sbt",
      "outputs": [
        {
          "internalType": "contract SbToken",
          "name": "",
          "type": "address"
        }
      ],
      "stateMutability": "view",
      "type": "function",
      "constant": true
    },
    {
      "inputs": [],
      "name": "sbtBalance",
      "outputs": [
        {
          "internalType": "uint256",
          "name": "",
          "type": "uint256"
        }
      ],
      "stateMutability": "view",
      "type": "function",
      "constant": true
    },
    {
      "inputs": [],
      "name": "sbtGet",
      "outputs": [
        {
          "internalType": "uint256",
          "name": "",
          "type": "uint256"
        }
      ],
      "stateMutability": "view",
      "type": "function",
      "constant": true
    },
    {
      "inputs": [],
      "name": "sbtRatio",
      "outputs": [
        {
          "internalType": "uint256",
          "name": "",
          "type": "uint256"
        }
      ],
      "stateMutability": "view",
      "type": "function",
      "constant": true
    },
    {
      "stateMutability": "payable",
      "type": "receive",
      "payable": true
    },
    {
      "inputs": [
        {
          "internalType": "uint256",
          "name": "sbtSupply",
          "type": "uint256"
        }
      ],
      "name": "settingUp",
      "outputs": [],
      "stateMutability": "payable",
      "type": "function",
      "payable": true
    },
    {
      "inputs": [],
      "name": "getBalanceEth",
      "outputs": [
        {
          "internalType": "uint256",
          "name": "",
          "type": "uint256"
        }
      ],
      "stateMutability": "view",
      "type": "function",
      "constant": true
    },
    {
      "inputs": [
        {
          "internalType": "uint256",
          "name": "percent",
          "type": "uint256"
        },
        {
          "internalType": "uint256",
          "name": "providedSBT",
          "type": "uint256"
        },
        {
          "internalType": "uint256",
          "name": "providedETH",
          "type": "uint256"
        },
        {
          "internalType": "uint256",
          "name": "reward",
          "type": "uint256"
        }
      ],
      "name": "withdrawLiquity",
      "outputs": [],
      "stateMutability": "payable",
      "type": "function",
      "payable": true
    },
    {
      "inputs": [],
      "name": "isPoolRunning",
      "outputs": [
        {
          "internalType": "bool",
          "name": "",
          "type": "bool"
        }
      ],
      "stateMutability": "view",
      "type": "function",
      "constant": true
    },
    {
      "inputs": [
        {
          "internalType": "uint256",
          "name": "_amountTokenEth",
          "type": "uint256"
        }
      ],
      "name": "getSwapTokenSbEstimate",
      "outputs": [
        {
          "internalType": "uint256",
          "name": "",
          "type": "uint256"
        },
        {
          "internalType": "uint256",
          "name": "",
          "type": "uint256"
        }
      ],
      "stateMutability": "nonpayable",
      "type": "function"
    },
    {
      "inputs": [
        {
          "internalType": "uint256",
          "name": "_amountTokenSb",
          "type": "uint256"
        }
      ],
      "name": "getSwapTokenEthEstimate",
      "outputs": [
        {
          "internalType": "uint256",
          "name": "",
          "type": "uint256"
        }
      ],
      "stateMutability": "nonpayable",
      "type": "function"
    },
    {
      "inputs": [
        {
          "internalType": "uint256",
          "name": "_amountSbt",
          "type": "uint256"
        }
      ],
      "name": "getEthNeed",
      "outputs": [
        {
          "internalType": "uint256",
          "name": "",
          "type": "uint256"
        },
        {
          "internalType": "uint256",
          "name": "",
          "type": "uint256"
        }
      ],
      "stateMutability": "nonpayable",
      "type": "function"
    },
    {
      "inputs": [
        {
          "internalType": "uint256",
          "name": "_amountEth",
          "type": "uint256"
        }
      ],
      "name": "getSbtNeed",
      "outputs": [
        {
          "internalType": "uint256",
          "name": "",
          "type": "uint256"
        }
      ],
      "stateMutability": "nonpayable",
      "type": "function"
    },
    {
      "inputs": [
        {
          "internalType": "uint256",
          "name": "amountSbt",
          "type": "uint256"
        },
        {
          "internalType": "uint256",
          "name": "getAmount",
          "type": "uint256"
        }
      ],
      "name": "tokenEthSwapTokenSb",
      "outputs": [],
      "stateMutability": "payable",
      "type": "function",
      "payable": true
    },
    {
      "inputs": [
        {
          "internalType": "uint256",
          "name": "amountSbt",
          "type": "uint256"
        },
        {
          "internalType": "uint256",
          "name": "amountEth",
          "type": "uint256"
        }
      ],
      "name": "tokenSbSwapTokenEth",
      "outputs": [],
      "stateMutability": "nonpayable",
      "type": "function"
    },
    {
      "inputs": [
        {
          "internalType": "uint256",
          "name": "ethAmount",
          "type": "uint256"
        }
      ],
      "name": "calSBT",
      "outputs": [
        {
          "internalType": "uint256",
          "name": "returnSBT",
          "type": "uint256"
        }
      ],
      "stateMutability": "nonpayable",
      "type": "function"
    },
    {
      "inputs": [
        {
          "internalType": "uint256",
          "name": "sbtAmount",
          "type": "uint256"
        }
      ],
      "name": "calETH",
      "outputs": [
        {
          "internalType": "uint256",
          "name": "returnETH",
          "type": "uint256"
        }
      ],
      "stateMutability": "nonpayable",
      "type": "function"
    },
    {
      "inputs": [
        {
          "internalType": "uint256",
          "name": "sbtDeposit",
          "type": "uint256"
        }
      ],
      "name": "deposit",
      "outputs": [],
      "stateMutability": "payable",
      "type": "function",
      "payable": true
    }
  ],
  "bytecode": "0x60c060405260036080908152506103e860a090815250600060035560006004556000600560006101000a81548160ff02191690831515021790555060006009556001600a60006101000a81548160ff0219169083151502179055503480156200006757600080fd5b5060405162001b6138038062001b6183398181016040528101906200008d91906200021a565b816000806101000a81548173ffffffffffffffffffffffffffffffffffffffff021916908373ffffffffffffffffffffffffffffffffffffffff16021790555080600160006101000a81548173ffffffffffffffffffffffffffffffffffffffff021916908373ffffffffffffffffffffffffffffffffffffffff16021790555033600260006101000a81548173ffffffffffffffffffffffffffffffffffffffff021916908373ffffffffffffffffffffffffffffffffffffffff160217905550505062000261565b600080fd5b600073ffffffffffffffffffffffffffffffffffffffff82169050919050565b600062000189826200015c565b9050919050565b60006200019d826200017c565b9050919050565b620001af8162000190565b8114620001bb57600080fd5b50565b600081519050620001cf81620001a4565b92915050565b6000620001e2826200017c565b9050919050565b620001f481620001d5565b81146200020057600080fd5b50565b6000815190506200021481620001e9565b92915050565b6000806040838503121562000234576200023362000157565b5b60006200024485828601620001be565b9250506020620002578582860162000203565b9150509250929050565b60805160a0516118c56200029c600039600081816111350152818161119501526111d701526000818161115601526111b601526118c56000f3fe60806040526004361061012e5760003560e01c8063a6c5c67c116100ab578063bc5894ba1161006f578063bc5894ba146103ea578063c946bb2a14610415578063d433695914610440578063d64157fb1461045c578063f183b1031461049a578063f98e12ff146104c557610135565b8063a6c5c67c14610310578063b1324f7b1461033b578063b29f5d3e14610366578063b6b55f25146103a3578063bb4632bc146103bf57610135565b8063776360bc116100f2578063776360bc1461022357806389177707146102605780638d776b1a1461029e5780638da5cb5b146102ba5780639caf34c4146102e557610135565b80630d51f34c146101375780632014e5d114610174578063313c06a01461019f57806338c33a3f146101ca578063590aa56c1461020757610135565b3661013557005b005b34801561014357600080fd5b5061015e60048036038101906101599190611257565b6104ee565b60405161016b9190611293565b60405180910390f35b34801561018057600080fd5b5061018961057a565b60405161019691906112c9565b60405180910390f35b3480156101ab57600080fd5b506101b461058d565b6040516101c19190611363565b60405180910390f35b3480156101d657600080fd5b506101f160048036038101906101ec9190611257565b6105b3565b6040516101fe9190611293565b60405180910390f35b610221600480360381019061021c919061137e565b61060e565b005b34801561022f57600080fd5b5061024a60048036038101906102459190611257565b610751565b6040516102579190611293565b60405180910390f35b34801561026c57600080fd5b5061028760048036038101906102829190611257565b6107ac565b6040516102959291906113be565b60405180910390f35b6102b860048036038101906102b39190611257565b610834565b005b3480156102c657600080fd5b506102cf610a2d565b6040516102dc9190611408565b60405180910390f35b3480156102f157600080fd5b506102fa610a53565b6040516103079190611293565b60405180910390f35b34801561031c57600080fd5b50610325610a72565b60405161033291906112c9565b60405180910390f35b34801561034757600080fd5b50610350610a89565b60405161035d9190611444565b60405180910390f35b34801561037257600080fd5b5061038d60048036038101906103889190611257565b610aad565b60405161039a9190611293565b60405180910390f35b6103bd60048036038101906103b89190611257565b610b2b565b005b3480156103cb57600080fd5b506103d4610c52565b6040516103e19190611293565b60405180910390f35b3480156103f657600080fd5b506103ff610c58565b60405161040c9190611293565b60405180910390f35b34801561042157600080fd5b5061042a610c5e565b6040516104379190611293565b60405180910390f35b61045a6004803603810190610455919061145f565b610c64565b005b34801561046857600080fd5b50610483600480360381019061047e9190611257565b610e6f565b6040516104919291906113be565b60405180910390f35b3480156104a657600080fd5b506104af610efc565b6040516104bc9190611293565b60405180910390f35b3480156104d157600080fd5b506104ec60048036038101906104e7919061137e565b610f02565b005b6000600560009054906101000a900460ff1661050957600080fd5b6000823073ffffffffffffffffffffffffffffffffffffffff163161052e91906114f5565b90506105386110d3565b60006003548260065461054b9190611558565b61055591906114f5565b9050600061056282611131565b8261056d9190611589565b9050809350505050919050565b600560009054906101000a900460ff1681565b600160009054906101000a900473ffffffffffffffffffffffffffffffffffffffff1681565b6000600560009054906101000a900460ff166105ce57600080fd5b6003543073ffffffffffffffffffffffffffffffffffffffff16316105f39190611558565b600c81905550600c548261060791906115df565b9050919050565b6000341161061b57600080fd5b3373ffffffffffffffffffffffffffffffffffffffff163134111561063f57600080fd5b61064882611131565b6004819055503073ffffffffffffffffffffffffffffffffffffffff166108fc349081150290604051600060405180830381858888f19350505050158015610694573d6000803e3d6000fd5b5060008054906101000a900473ffffffffffffffffffffffffffffffffffffffff1673ffffffffffffffffffffffffffffffffffffffff1663a9059cbb33836040518363ffffffff1660e01b81526004016106f0929190611639565b6020604051808303816000875af115801561070f573d6000803e3d6000fd5b505050506040513d601f19601f82011682018060405250810190610733919061168e565b50806003600082825461074691906114f5565b925050819055505050565b6000600560009054906101000a900460ff1661076c57600080fd5b3073ffffffffffffffffffffffffffffffffffffffff16316003546107919190611558565b600b81905550600b54826107a591906115df565b9050919050565b600080600560009054906101000a900460ff166107c857600080fd5b6000836003546107d891906114f5565b90506107e26110d3565b60003073ffffffffffffffffffffffffffffffffffffffff16318260065461080a9190611558565b61081491906114f5565b905061081f85611191565b60098190555080600954935093505050915091565b600260009054906101000a900473ffffffffffffffffffffffffffffffffffffffff1673ffffffffffffffffffffffffffffffffffffffff163373ffffffffffffffffffffffffffffffffffffffff16146108c4576040517f08c379a00000000000000000000000000000000000000000000000000000000081526004016108bb9061173e565b60405180910390fd5b60008054906101000a900473ffffffffffffffffffffffffffffffffffffffff1673ffffffffffffffffffffffffffffffffffffffff166323b872dd3330846040518463ffffffff1660e01b81526004016109219392919061177f565b6020604051808303816000875af1158015610940573d6000803e3d6000fd5b505050506040513d601f19601f82011682018060405250810190610964919061168e565b5080600360008282546109779190611589565b925050819055506001600560006101000a81548160ff021916908315150217905550600160009054906101000a900473ffffffffffffffffffffffffffffffffffffffff1673ffffffffffffffffffffffffffffffffffffffff16635165da303334846040518463ffffffff1660e01b81526004016109f8939291906117b6565b600060405180830381600087803b158015610a1257600080fd5b505af1158015610a26573d6000803e3d6000fd5b5050505050565b600260009054906101000a900473ffffffffffffffffffffffffffffffffffffffff1681565b60003073ffffffffffffffffffffffffffffffffffffffff1631905090565b6000600560009054906101000a900460ff16905090565b60008054906101000a900473ffffffffffffffffffffffffffffffffffffffff1681565b6000600560009054906101000a900460ff16610ac857600080fd5b6000610ad383611191565b600354610ae09190611589565b9050610aea6110d3565b80600654610af89190611558565b3073ffffffffffffffffffffffffffffffffffffffff1631610b1a91906114f5565b600881905550600854915050919050565b3073ffffffffffffffffffffffffffffffffffffffff166108fc349081150290604051600060405180830381858888f19350505050158015610b71573d6000803e3d6000fd5b5060008054906101000a900473ffffffffffffffffffffffffffffffffffffffff1673ffffffffffffffffffffffffffffffffffffffff166323b872dd3330846040518463ffffffff1660e01b8152600401610bcf939291906117ed565b6020604051808303816000875af1158015610bee573d6000803e3d6000fd5b505050506040513d601f19601f82011682018060405250810190610c12919061168e565b508060036000828254610c259190611589565b925050819055506001600a60006101000a81548160ff021916908315150217905550610c4f6110d3565b50565b60035481565b600c5481565b600b5481565b6000600a82610c7391906115df565b600a8686610c8191906115df565b610c8b9190611558565b610c959190611589565b905060008054906101000a900473ffffffffffffffffffffffffffffffffffffffff1673ffffffffffffffffffffffffffffffffffffffff1663a9059cbb33836040518363ffffffff1660e01b8152600401610cf2929190611824565b6020604051808303816000875af1158015610d11573d6000803e3d6000fd5b505050506040513d601f19601f82011682018060405250810190610d35919061168e565b508060036000828254610d4891906114f5565b9250508190555060006103e88685610d6091906115df565b610d6a9190611558565b90503373ffffffffffffffffffffffffffffffffffffffff166108fc829081150290604051600060405180830381858888f19350505050158015610db2573d6000803e3d6000fd5b506001600a60006101000a81548160ff021916908315150217905550610dd66110d3565b600160009054906101000a900473ffffffffffffffffffffffffffffffffffffffff1673ffffffffffffffffffffffffffffffffffffffff166347ec5eb23383856040518463ffffffff1660e01b8152600401610e35939291906117b6565b600060405180830381600087803b158015610e4f57600080fd5b505af1158015610e63573d6000803e3d6000fd5b50505050505050505050565b600080600560009054906101000a900460ff16610e8b57600080fd5b6000833073ffffffffffffffffffffffffffffffffffffffff1631610eb09190611589565b9050610eba6110d3565b80600654610ec89190611558565b600354610ed591906114f5565b600781905550610ee6600754611191565b6009819055506007546009549250925050915091565b60095481565b8160008111610f1057600080fd5b60008054906101000a900473ffffffffffffffffffffffffffffffffffffffff1673ffffffffffffffffffffffffffffffffffffffff166370a08231336040518263ffffffff1660e01b8152600401610f699190611408565b602060405180830381865afa158015610f86573d6000803e3d6000fd5b505050506040513d601f19601f82011682018060405250810190610faa9190611862565b811115610fb657600080fd5b610fbf83611131565b60048190555060008054906101000a900473ffffffffffffffffffffffffffffffffffffffff1673ffffffffffffffffffffffffffffffffffffffff166323b872dd3330866040518463ffffffff1660e01b8152600401611022939291906117ed565b6020604051808303816000875af1158015611041573d6000803e3d6000fd5b505050506040513d601f19601f82011682018060405250810190611065919061168e565b503373ffffffffffffffffffffffffffffffffffffffff166108fc839081150290604051600060405180830381858888f193505050501580156110ac573d6000803e3d6000fd5b506110b683611191565b600360008282546110c79190611589565b92505081905550505050565b600a60009054906101000a900460ff161561112f576003543073ffffffffffffffffffffffffffffffffffffffff163161110d91906115df565b6006819055506000600a60006101000a81548160ff0219169083151502179055505b565b60007f00000000000000000000000000000000000000000000000000000000000000007f00000000000000000000000000000000000000000000000000000000000000008361118091906115df565b61118a9190611558565b9050919050565b60007f00000000000000000000000000000000000000000000000000000000000000007f00000000000000000000000000000000000000000000000000000000000000007f000000000000000000000000000000000000000000000000000000000000000061120091906114f5565b8361120b91906115df565b6112159190611558565b9050919050565b600080fd5b6000819050919050565b61123481611221565b811461123f57600080fd5b50565b6000813590506112518161122b565b92915050565b60006020828403121561126d5761126c61121c565b5b600061127b84828501611242565b91505092915050565b61128d81611221565b82525050565b60006020820190506112a86000830184611284565b92915050565b60008115159050919050565b6112c3816112ae565b82525050565b60006020820190506112de60008301846112ba565b92915050565b600073ffffffffffffffffffffffffffffffffffffffff82169050919050565b6000819050919050565b600061132961132461131f846112e4565b611304565b6112e4565b9050919050565b600061133b8261130e565b9050919050565b600061134d82611330565b9050919050565b61135d81611342565b82525050565b60006020820190506113786000830184611354565b92915050565b600080604083850312156113955761139461121c565b5b60006113a385828601611242565b92505060206113b485828601611242565b9150509250929050565b60006040820190506113d36000830185611284565b6113e06020830184611284565b9392505050565b60006113f2826112e4565b9050919050565b611402816113e7565b82525050565b600060208201905061141d60008301846113f9565b92915050565b600061142e82611330565b9050919050565b61143e81611423565b82525050565b60006020820190506114596000830184611435565b92915050565b600080600080608085870312156114795761147861121c565b5b600061148787828801611242565b945050602061149887828801611242565b93505060406114a987828801611242565b92505060606114ba87828801611242565b91505092959194509250565b7f4e487b7100000000000000000000000000000000000000000000000000000000600052601160045260246000fd5b600061150082611221565b915061150b83611221565b92508282101561151e5761151d6114c6565b5b828203905092915050565b7f4e487b7100000000000000000000000000000000000000000000000000000000600052601260045260246000fd5b600061156382611221565b915061156e83611221565b92508261157e5761157d611529565b5b828204905092915050565b600061159482611221565b915061159f83611221565b9250827fffffffffffffffffffffffffffffffffffffffffffffffffffffffffffffffff038211156115d4576115d36114c6565b5b828201905092915050565b60006115ea82611221565b91506115f583611221565b9250817fffffffffffffffffffffffffffffffffffffffffffffffffffffffffffffffff048311821515161561162e5761162d6114c6565b5b828202905092915050565b600060408201905061164e60008301856113f9565b61165b6020830184611284565b9392505050565b61166b816112ae565b811461167657600080fd5b50565b60008151905061168881611662565b92915050565b6000602082840312156116a4576116a361121c565b5b60006116b284828501611679565b91505092915050565b600082825260208201905092915050565b7f4f6e6c79206f776e657220697320616c6c6f77656420666f722074686973206160008201527f6374696f6e2e0000000000000000000000000000000000000000000000000000602082015250565b60006117286026836116bb565b9150611733826116cc565b604082019050919050565b600060208201905081810360008301526117578161171b565b9050919050565b600061176982611330565b9050919050565b6117798161175e565b82525050565b600060608201905061179460008301866113f9565b6117a16020830185611770565b6117ae6040830184611284565b949350505050565b60006060820190506117cb60008301866113f9565b6117d86020830185611284565b6117e56040830184611284565b949350505050565b600060608201905061180260008301866113f9565b61180f60208301856113f9565b61181c6040830184611284565b949350505050565b60006040820190506118396000830185611770565b6118466020830184611284565b9392505050565b60008151905061185c8161122b565b92915050565b6000602082840312156118785761187761121c565b5b60006118868482850161184d565b9150509291505056fea2646970667358221220bf937f4f3e9c0557da335bdfa354ad256486dd1e04f7754fc9967ade0a00f2f964736f6c634300080d0033",
  "immutableReferences": {
    "958": [
      {
        "length": 32,
        "start": 4438
      },
      {
        "length": 32,
        "start": 4534
      }
    ],
    "961": [
      {
        "length": 32,
        "start": 4405
      },
      {
        "length": 32,
        "start": 4501
      },
      {
        "length": 32,
        "start": 4567
      }
    ]
  },
  "source": "// SPDX-License-Identifier: MIT\r\npragma solidity >=0.5.0 <0.9.0;\r\n\r\nimport \"./SbToken.sol\";\r\nimport \"./LpToken.sol\";\r\n\r\ncontract pool {\r\n    SbToken public sbt;\r\n    LpToken public lp;\r\n    uint256 private immutable feesRate = 3;\r\n    uint256 private immutable feesDecimal = 1000;\r\n    //uint public ethBalance;\r\n    address public owner;\r\n    uint256 public sbtBalance = 0; //sbt available to use & calculate\r\n    uint256 private sbtReserved = 0; //sbt reserved for liquidity provider reward\r\n    bool public isRunning = false;\r\n\r\n    uint256 k;\r\n    uint256 estimateTokenSb;\r\n    uint256 estimateTokenEth;\r\n    uint256 public sbtGet = 0;\r\n    bool oneTime = true;\r\n\r\n    //addDeposit variable\r\n    uint256 public sbtRatio;\r\n    uint256 public ethRatio;\r\n\r\n    event PoolInitialised(\r\n        address account,\r\n        address token,\r\n        uint256 amountSbt,\r\n        uint256 amountEth\r\n    );\r\n\r\n    // Function to receive Ether. msg.data must be empty\r\n    receive() external payable {}\r\n\r\n    // Fallback function is called when msg.data is not empty\r\n    fallback() external payable {}\r\n\r\n    modifier onlyOwner() {\r\n        require(msg.sender == owner, \"Only owner is allowed for this action.\");\r\n        _;\r\n    }\r\n\r\n    modifier checkPool() {\r\n        require(isRunning);\r\n        _;\r\n    }\r\n\r\n    modifier checkBalance() {\r\n        require(msg.value > 0);\r\n        require(msg.value <= msg.sender.balance);\r\n        _;\r\n    }\r\n\r\n    modifier checkBalance2(uint256 amountSbt) {\r\n        require(amountSbt > 0);\r\n        require(amountSbt <= sbt.balanceOf(msg.sender));\r\n        _;\r\n    }\r\n\r\n    constructor(SbToken _sbToken, LpToken _lpToken) {\r\n        sbt = _sbToken;\r\n        lp = _lpToken;\r\n        owner = msg.sender;\r\n    }\r\n\r\n    function settingUp(uint256 sbtSupply) public payable onlyOwner {\r\n        sbt.transferFrom(msg.sender, payable(this), sbtSupply);\r\n        //payable(address(this)).transfer(msg.value);\r\n\r\n        //require(msg.sender == owner, \"Only owner can deploy the pool.\");\r\n        sbtBalance += sbtSupply;\r\n        isRunning = true;\r\n\r\n        //emit PoolInitialised(msg.sender, address(sbt), sbtSupply, msg.value);\r\n\r\n        lp.create(msg.sender, msg.value, sbtSupply);\r\n    }\r\n\r\n    //get the 99.7% of sbt (used for swap)\r\n    function getActualSbt(uint256 fullSbt) internal pure returns (uint256) {\r\n        return (fullSbt * (feesDecimal - feesRate)) / feesDecimal;\r\n    }\r\n\r\n    //get the 0.3% fees of sbt (swap)(if giving eth, convert reserved eth to sbt)\r\n    function getReservedSbt(uint256 fullSbt) internal pure returns (uint256) {\r\n        return (fullSbt * feesRate) / feesDecimal;\r\n    }\r\n\r\n    function getBalanceEth() public view returns (uint256) {\r\n        return address(this).balance;\r\n    }\r\n\r\n    function withdrawLiquity(\r\n        uint256 percent,\r\n        uint256 providedSBT,\r\n        uint256 providedETH,\r\n        uint256 reward\r\n    ) external payable {\r\n        // require(msg.sender == owner, \"Only owner can withdraw funds\");\r\n        // require(amount <= balance[destAddr], \"Insufficient funds\");\r\n\r\n        uint256 sbtWithdraw = ((providedSBT * percent) / 10) + (reward * 10);\r\n        //SBT\r\n        sbt.transfer(payable(msg.sender), sbtWithdraw);\r\n        sbtBalance -= sbtWithdraw;\r\n        //ETH\r\n        uint256 withdrawETH = (providedETH * percent) / 1000;\r\n        payable(msg.sender).transfer(withdrawETH);\r\n\r\n        oneTime = true;\r\n        calculateConstant();\r\n        lp.minus(msg.sender, withdrawETH, sbtWithdraw);\r\n    }\r\n\r\n    function isPoolRunning() public view returns (bool) {\r\n        return isRunning;\r\n    }\r\n\r\n    //swap\r\n    function calculateConstant() internal {\r\n        if (oneTime) {\r\n            k = address(this).balance * sbtBalance;\r\n            oneTime = false;\r\n        }\r\n    }\r\n\r\n    function getSwapTokenSbEstimate(uint256 _amountTokenEth)\r\n        public\r\n        checkPool\r\n        returns (uint256, uint256)\r\n    {\r\n        uint256 tokenEthAfter = address(this).balance + _amountTokenEth;\r\n        calculateConstant();\r\n        estimateTokenSb = sbtBalance - (k / tokenEthAfter);\r\n        sbtGet = getActualSbt(estimateTokenSb);\r\n        return (estimateTokenSb, sbtGet);\r\n    }\r\n\r\n    function getSwapTokenEthEstimate(uint256 _amountTokenSb)\r\n        public\r\n        checkPool\r\n        returns (uint256)\r\n    {\r\n        uint256 tokenSbAfter = sbtBalance + getActualSbt(_amountTokenSb);\r\n        calculateConstant();\r\n        estimateTokenEth = address(this).balance - (k / tokenSbAfter);\r\n        return (estimateTokenEth);\r\n    }\r\n\r\n    function getEthNeed(uint256 _amountSbt)\r\n        public\r\n        checkPool\r\n        returns (uint256, uint256)\r\n    {\r\n        uint256 tokenSbtAfter = sbtBalance - _amountSbt;\r\n        calculateConstant();\r\n        uint256 ethNeed = (k / tokenSbtAfter) - address(this).balance;\r\n        sbtGet = getActualSbt(_amountSbt);\r\n        return (ethNeed, sbtGet);\r\n    }\r\n\r\n    function getSbtNeed(uint256 _amountEth) public checkPool returns (uint256) {\r\n        uint256 tokenEthAfter = address(this).balance - _amountEth;\r\n        calculateConstant();\r\n        uint256 sbtNeed = (k / tokenEthAfter) - sbtBalance;\r\n        uint256 actual = sbtNeed + getReservedSbt(sbtNeed);\r\n        return (actual);\r\n    }\r\n\r\n    function tokenEthSwapTokenSb(uint256 amountSbt, uint256 getAmount)\r\n        external\r\n        payable\r\n        checkBalance\r\n    {\r\n        sbtReserved = getReservedSbt(amountSbt);\r\n        payable(address(this)).transfer(msg.value);\r\n        sbt.transfer(msg.sender, getAmount);\r\n        sbtBalance -= getAmount;\r\n    }\r\n\r\n    function tokenSbSwapTokenEth(uint256 amountSbt, uint256 amountEth)\r\n        public\r\n        checkBalance2(amountSbt)\r\n    {\r\n        sbtReserved = getReservedSbt(amountSbt);\r\n        sbt.transferFrom(msg.sender, address(this), amountSbt);\r\n        payable(msg.sender).transfer(amountEth);\r\n        sbtBalance += getActualSbt(amountSbt);\r\n    }\r\n\r\n    //addDeposit\r\n    function calSBT(uint256 ethAmount)\r\n        public\r\n        checkPool\r\n        returns (uint256 returnSBT)\r\n    {\r\n        sbtRatio = sbtBalance / address(this).balance;\r\n        return ethAmount * sbtRatio;\r\n    }\r\n\r\n    //why 0\r\n    function calETH(uint256 sbtAmount)\r\n        public\r\n        checkPool\r\n        returns (uint256 returnETH)\r\n    {\r\n        ethRatio = address(this).balance / sbtBalance;\r\n        return sbtAmount * ethRatio;\r\n    }\r\n\r\n    //pool why sbt no change\r\n    function deposit(uint256 sbtDeposit) external payable {\r\n        payable(address(this)).transfer(msg.value);\r\n        sbt.transferFrom(msg.sender, address(this), sbtDeposit);\r\n        sbtBalance += sbtDeposit;\r\n        oneTime = true;\r\n        calculateConstant();\r\n    }\r\n}\r\n",
  "sourcePath": "C:\\Users\\mingh\\OneDrive\\Desktop\\SBT\\blockchain\\contracts\\pool.sol",
  "compiler": {
    "name": "solc",
    "version": "0.8.13+commit.abaa5c0e.Emscripten.clang"
  },
  "schemaVersion": "3.4.4",
  "updatedAt": "2022-04-10T07:36:30.980Z",
  "networkType": "ethereum",
  "devdoc": {
    "kind": "dev",
    "methods": {},
    "version": 1
  },
  "userdoc": {
    "kind": "user",
    "methods": {},
    "version": 1
  }
}