{
  "contractName": "swap",
  "abi": [
    {
      "inputs": [
        {
          "internalType": "contract SbToken",
          "name": "_sbToken",
          "type": "address"
        }
      ],
      "stateMutability": "nonpayable",
      "type": "constructor"
    },
    {
      "stateMutability": "payable",
      "type": "fallback",
      "payable": true
    },
    {
      "inputs": [],
      "name": "functionCalled",
      "outputs": [
        {
          "internalType": "string",
          "name": "",
          "type": "string"
        }
      ],
      "stateMutability": "view",
      "type": "function",
      "constant": true
    },
    {
      "inputs": [],
      "name": "pl",
      "outputs": [
        {
          "internalType": "contract pool",
          "name": "",
          "type": "address"
        }
      ],
      "stateMutability": "view",
      "type": "function",
      "constant": true
    },
    {
      "inputs": [],
      "name": "sbt",
      "outputs": [
        {
          "internalType": "contract SbToken",
          "name": "",
          "type": "address"
        }
      ],
      "stateMutability": "view",
      "type": "function",
      "constant": true
    },
    {
      "inputs": [],
      "name": "totalTokenEth",
      "outputs": [
        {
          "internalType": "uint256",
          "name": "",
          "type": "uint256"
        }
      ],
      "stateMutability": "view",
      "type": "function",
      "constant": true
    },
    {
      "inputs": [],
      "name": "totalTokenSb",
      "outputs": [
        {
          "internalType": "uint256",
          "name": "",
          "type": "uint256"
        }
      ],
      "stateMutability": "view",
      "type": "function",
      "constant": true
    },
    {
      "stateMutability": "payable",
      "type": "receive",
      "payable": true
    },
    {
      "inputs": [
        {
          "internalType": "uint256",
          "name": "_amountTokenEth",
          "type": "uint256"
        }
      ],
      "name": "getSwapTokenSbEstimate",
      "outputs": [
        {
          "internalType": "uint256",
          "name": "estimateTokenSb",
          "type": "uint256"
        }
      ],
      "stateMutability": "view",
      "type": "function",
      "constant": true
    },
    {
      "inputs": [
        {
          "internalType": "uint256",
          "name": "_amountTokenSb",
          "type": "uint256"
        }
      ],
      "name": "getSwapTokenEthEstimate",
      "outputs": [
        {
          "internalType": "uint256",
          "name": "estimateTokenEth",
          "type": "uint256"
        }
      ],
      "stateMutability": "view",
      "type": "function",
      "constant": true
    },
    {
      "inputs": [],
      "name": "tokenEthSwapTokenSb",
      "outputs": [],
      "stateMutability": "payable",
      "type": "function",
      "payable": true
    },
    {
      "inputs": [
        {
          "internalType": "uint256",
          "name": "_amountTokenSb",
          "type": "uint256"
        }
      ],
      "name": "tokenSbSwapTokenEth",
      "outputs": [],
      "stateMutability": "view",
      "type": "function",
      "constant": true
    }
  ],
  "bytecode": "0x6080604052670de0b6b3a7640000600355678ac7230489e800006004556001600560006101000a81548160ff0219169083151502179055503480156200004457600080fd5b5060405162000dfc38038062000dfc83398181016040528101906200006a919062000188565b806000806101000a81548173ffffffffffffffffffffffffffffffffffffffff021916908373ffffffffffffffffffffffffffffffffffffffff16021790555033600260006101000a81548173ffffffffffffffffffffffffffffffffffffffff021916908373ffffffffffffffffffffffffffffffffffffffff160217905550600454600354620000fd9190620001f3565b6006819055505062000254565b600080fd5b600073ffffffffffffffffffffffffffffffffffffffff82169050919050565b60006200013c826200010f565b9050919050565b600062000150826200012f565b9050919050565b620001628162000143565b81146200016e57600080fd5b50565b600081519050620001828162000157565b92915050565b600060208284031215620001a157620001a06200010a565b5b6000620001b18482850162000171565b91505092915050565b6000819050919050565b7f4e487b7100000000000000000000000000000000000000000000000000000000600052601160045260246000fd5b60006200020082620001ba565b91506200020d83620001ba565b9250817fffffffffffffffffffffffffffffffffffffffffffffffffffffffffffffffff0483118215151615620002495762000248620001c4565b5b828202905092915050565b610b9880620002646000396000f3fe60806040526004361061008a5760003560e01c8063b29f5d3e11610059578063b29f5d3e1461011c578063c86a1fa214610159578063cc81afc814610184578063d64157fb146101af578063fb8c2729146101ec57610091565b806308b0d32d14610093578063618ba8fc146100bc57806390e1437c146100c6578063b1324f7b146100f157610091565b3661009157005b005b34801561009f57600080fd5b506100ba60048036038101906100b591906106e8565b610217565b005b6100c461021a565b005b3480156100d257600080fd5b506100db610486565b6040516100e89190610794565b60405180910390f35b3480156100fd57600080fd5b506101066104ac565b60405161011391906107e2565b60405180910390f35b34801561012857600080fd5b50610143600480360381019061013e91906106e8565b6104d0565b604051610150919061080c565b60405180910390f35b34801561016557600080fd5b5061016e610520565b60405161017b919061080c565b60405180910390f35b34801561019057600080fd5b50610199610526565b6040516101a691906108c0565b60405180910390f35b3480156101bb57600080fd5b506101d660048036038101906101d191906106e8565b6105b4565b6040516101e3919061080c565b60405180910390f35b3480156101f857600080fd5b50610201610604565b60405161020e919061080c565b60405180910390f35b50565b6000341161022757600080fd5b600260009054906101000a900473ffffffffffffffffffffffffffffffffffffffff1673ffffffffffffffffffffffffffffffffffffffff163134111561026d57600080fd5b3073ffffffffffffffffffffffffffffffffffffffff166108fc349081150290604051600060405180830381858888f193505050501580156102b3573d6000803e3d6000fd5b5060008054906101000a900473ffffffffffffffffffffffffffffffffffffffff1673ffffffffffffffffffffffffffffffffffffffff1663095ea7b3600260009054906101000a900473ffffffffffffffffffffffffffffffffffffffff16346040518363ffffffff1660e01b8152600401610331929190610903565b6020604051808303816000875af1158015610350573d6000803e3d6000fd5b505050506040513d601f19601f820116820180604052508101906103749190610964565b5060008054906101000a900473ffffffffffffffffffffffffffffffffffffffff1673ffffffffffffffffffffffffffffffffffffffff166323b872dd600260009054906101000a900473ffffffffffffffffffffffffffffffffffffffff1630346040518463ffffffff1660e01b81526004016103f4939291906109b2565b6020604051808303816000875af1158015610413573d6000803e3d6000fd5b505050506040513d601f19601f820116820180604052508101906104379190610964565b506040518060400160405280600881526020017f7472616e736665720000000000000000000000000000000000000000000000008152506007908051906020019061048392919061060a565b50565b600160009054906101000a900473ffffffffffffffffffffffffffffffffffffffff1681565b60008054906101000a900473ffffffffffffffffffffffffffffffffffffffff1681565b6000600560009054906101000a900460ff166104eb57600080fd5b6000826004546104fb9190610a18565b90508060065461050b9190610a9d565b6003546105189190610ace565b915050919050565b60035481565b6007805461053390610b31565b80601f016020809104026020016040519081016040528092919081815260200182805461055f90610b31565b80156105ac5780601f10610581576101008083540402835291602001916105ac565b820191906000526020600020905b81548152906001019060200180831161058f57829003601f168201915b505050505081565b6000600560009054906101000a900460ff166105cf57600080fd5b6000826003546105df9190610a18565b9050806006546105ef9190610a9d565b6004546105fc9190610ace565b915050919050565b60045481565b82805461061690610b31565b90600052602060002090601f016020900481019282610638576000855561067f565b82601f1061065157805160ff191683800117855561067f565b8280016001018555821561067f579182015b8281111561067e578251825591602001919060010190610663565b5b50905061068c9190610690565b5090565b5b808211156106a9576000816000905550600101610691565b5090565b600080fd5b6000819050919050565b6106c5816106b2565b81146106d057600080fd5b50565b6000813590506106e2816106bc565b92915050565b6000602082840312156106fe576106fd6106ad565b5b600061070c848285016106d3565b91505092915050565b600073ffffffffffffffffffffffffffffffffffffffff82169050919050565b6000819050919050565b600061075a61075561075084610715565b610735565b610715565b9050919050565b600061076c8261073f565b9050919050565b600061077e82610761565b9050919050565b61078e81610773565b82525050565b60006020820190506107a96000830184610785565b92915050565b60006107ba8261073f565b9050919050565b60006107cc826107af565b9050919050565b6107dc816107c1565b82525050565b60006020820190506107f760008301846107d3565b92915050565b610806816106b2565b82525050565b600060208201905061082160008301846107fd565b92915050565b600081519050919050565b600082825260208201905092915050565b60005b83811015610861578082015181840152602081019050610846565b83811115610870576000848401525b50505050565b6000601f19601f8301169050919050565b600061089282610827565b61089c8185610832565b93506108ac818560208601610843565b6108b581610876565b840191505092915050565b600060208201905081810360008301526108da8184610887565b905092915050565b60006108ed826107af565b9050919050565b6108fd816108e2565b82525050565b600060408201905061091860008301856108f4565b61092560208301846107fd565b9392505050565b60008115159050919050565b6109418161092c565b811461094c57600080fd5b50565b60008151905061095e81610938565b92915050565b60006020828403121561097a576109796106ad565b5b60006109888482850161094f565b91505092915050565b600061099c82610715565b9050919050565b6109ac81610991565b82525050565b60006060820190506109c760008301866108f4565b6109d460208301856109a3565b6109e160408301846107fd565b949350505050565b7f4e487b7100000000000000000000000000000000000000000000000000000000600052601160045260246000fd5b6000610a23826106b2565b9150610a2e836106b2565b9250827fffffffffffffffffffffffffffffffffffffffffffffffffffffffffffffffff03821115610a6357610a626109e9565b5b828201905092915050565b7f4e487b7100000000000000000000000000000000000000000000000000000000600052601260045260246000fd5b6000610aa8826106b2565b9150610ab3836106b2565b925082610ac357610ac2610a6e565b5b828204905092915050565b6000610ad9826106b2565b9150610ae4836106b2565b925082821015610af757610af66109e9565b5b828203905092915050565b7f4e487b7100000000000000000000000000000000000000000000000000000000600052602260045260246000fd5b60006002820490506001821680610b4957607f821691505b602082108103610b5c57610b5b610b02565b5b5091905056fea264697066735822122081af0abff414615268330838b00d4e365749f0d37b0970e1f5ea86388dde818a64736f6c634300080d0033",
  "immutableReferences": {},
  "source": "// SPDX-License-Identifier: MIT\r\npragma solidity >=0.5.0 <0.9.0;\r\n\r\nimport \"./pool.sol\";\r\nimport \"./SbToken.sol\";\r\n\r\ncontract swap {\r\n    SbToken public sbt;\r\n    pool public pl;\r\n\r\n    address payable user;\r\n    uint256 public totalTokenEth = 1000000000000000000;\r\n    uint256 public totalTokenSb = 10000000000000000000;\r\n\r\n    bool run = true;\r\n    uint256 k;\r\n\r\n    string public functionCalled;\r\n\r\n    //mapping (address => uint) balances;\r\n\r\n    // Function to receive Ether. msg.data must be empty\r\n    receive() external payable {}\r\n\r\n    // Fallback function is called when msg.data is not empty\r\n    fallback() external payable {}\r\n\r\n    constructor(SbToken _sbToken) {\r\n        sbt = _sbToken;\r\n        user = payable(msg.sender);\r\n        k = totalTokenEth * totalTokenSb;\r\n    }\r\n\r\n    modifier checkPool() {\r\n        require(run);\r\n        _;\r\n    }\r\n\r\n    modifier checkBalance() {\r\n        require(msg.value > 0);\r\n        require(msg.value <= user.balance);\r\n        _;\r\n    }\r\n\r\n    // function calculateConstant() public{\r\n    //    k = totalTokenEth * totalTokenSb;\r\n    // }\r\n\r\n    //check is pool runnning\r\n    function getSwapTokenSbEstimate(uint256 _amountTokenEth) public view checkPool returns (uint256 estimateTokenSb)\r\n    {\r\n        uint256 tokenEthAfter = totalTokenEth + _amountTokenEth;\r\n\r\n        return totalTokenSb - (k / tokenEthAfter);\r\n    }\r\n\r\n    function getSwapTokenEthEstimate(uint256 _amountTokenSb)public view checkPool returns (uint256 estimateTokenEth)\r\n    {\r\n        uint256 tokenSbAfter = totalTokenSb + _amountTokenSb;\r\n\r\n        return totalTokenEth - (k / tokenSbAfter);\r\n    }\r\n\r\n    //need to check balance\r\n    function tokenEthSwapTokenSb() external checkBalance payable{\r\n        \r\n        payable(address(this)).transfer(msg.value);\r\n\r\n        sbt.approve(user, msg.value);\r\n        sbt.transferFrom(user, address(this), msg.value);\r\n\r\n        functionCalled = \"transfer\";\r\n    }\r\n\r\n    function tokenSbSwapTokenEth(uint256 _amountTokenSb) public view {\r\n        // uint amountTokenEth = getSwapTokenEthEstimate(_amountTokenSb);\r\n        //transfer\r\n    }\r\n}\r\n",
  "sourcePath": "C:\\Users\\User\\Documents\\GitHub\\blockchain\\contracts\\swap.sol",
  "compiler": {
    "name": "solc",
    "version": "0.8.13+commit.abaa5c0e.Emscripten.clang"
  },
  "schemaVersion": "3.4.6",
  "updatedAt": "2022-04-06T17:08:32.666Z",
  "networkType": "ethereum",
  "devdoc": {
    "kind": "dev",
    "methods": {},
    "version": 1
  },
  "userdoc": {
    "kind": "user",
    "methods": {},
    "version": 1
  }
}